{
  "contractName": "WavePortal",
  "abi": [
    {
      "inputs": [],
      "stateMutability": "nonpayable",
      "type": "constructor"
    },
    {
      "anonymous": false,
      "inputs": [
        {
          "indexed": true,
          "internalType": "address",
          "name": "from",
          "type": "address"
        },
        {
          "indexed": false,
          "internalType": "string",
          "name": "msg",
          "type": "string"
        },
        {
          "indexed": false,
          "internalType": "uint256",
          "name": "date",
          "type": "uint256"
        }
      ],
      "name": "NewWave",
      "type": "event"
    },
    {
      "inputs": [],
      "name": "admin",
      "outputs": [
        {
          "internalType": "address",
          "name": "",
          "type": "address"
        }
      ],
      "stateMutability": "view",
      "type": "function"
    },
    {
      "inputs": [
        {
          "internalType": "address",
          "name": "",
          "type": "address"
        }
      ],
      "name": "countWaves",
      "outputs": [
        {
          "internalType": "uint256",
          "name": "",
          "type": "uint256"
        }
      ],
      "stateMutability": "view",
      "type": "function"
    },
    {
      "inputs": [],
      "name": "numWaves",
      "outputs": [
        {
          "internalType": "uint256",
          "name": "",
          "type": "uint256"
        }
      ],
      "stateMutability": "view",
      "type": "function"
    },
    {
      "inputs": [
        {
          "internalType": "uint256",
          "name": "",
          "type": "uint256"
        }
      ],
      "name": "waves",
      "outputs": [
        {
          "internalType": "address",
          "name": "waver",
          "type": "address"
        },
        {
          "internalType": "string",
          "name": "msg",
          "type": "string"
        },
        {
          "internalType": "uint256",
          "name": "createdAt",
          "type": "uint256"
        }
      ],
      "stateMutability": "view",
      "type": "function"
    },
    {
      "inputs": [
        {
          "internalType": "string",
          "name": "_str",
          "type": "string"
        }
      ],
      "name": "wave",
      "outputs": [
        {
          "internalType": "bool",
          "name": "",
          "type": "bool"
        }
      ],
      "stateMutability": "payable",
      "type": "function"
    },
    {
      "inputs": [],
      "name": "getAllWaves",
      "outputs": [
        {
          "components": [
            {
              "internalType": "address",
              "name": "waver",
              "type": "address"
            },
            {
              "internalType": "string",
              "name": "msg",
              "type": "string"
            },
            {
              "internalType": "uint256",
              "name": "createdAt",
              "type": "uint256"
            }
          ],
          "internalType": "struct WavePortal.Wave[]",
          "name": "",
          "type": "tuple[]"
        }
      ],
      "stateMutability": "view",
      "type": "function"
    }
  ],
  "bytecode": "0x6080604052606460025534801561001557600080fd5b50336000806101000a81548173ffffffffffffffffffffffffffffffffffffffff021916908373ffffffffffffffffffffffffffffffffffffffff160217905550610e08806100656000396000f3fe6080604052600436106100555760003560e01c8063449d46c01461005a57806349175ada1461008a578063b5822150146100b5578063bd43a908146100f2578063c781267a1461011d578063f851a4401461015c575b600080fd5b610074600480360381019061006f919061083a565b610187565b604051610081919061089e565b60405180910390f35b34801561009657600080fd5b5061009f6103c8565b6040516100ac91906108d2565b60405180910390f35b3480156100c157600080fd5b506100dc60048036038101906100d7919061094b565b6103ce565b6040516100e991906108d2565b60405180910390f35b3480156100fe57600080fd5b506101076103e6565b6040516101149190610b30565b60405180910390f35b34801561012957600080fd5b50610144600480360381019061013f9190610b7e565b610537565b60405161015393929190610c04565b60405180910390f35b34801561016857600080fd5b50610171610619565b60405161017e9190610c42565b60405180910390f35b60003460025481146101ce576040517f08c379a00000000000000000000000000000000000000000000000000000000081526004016101c590610ca9565b60405180910390fd5b600160008154809291906101e190610cf8565b919050555060008054906101000a900473ffffffffffffffffffffffffffffffffffffffff1673ffffffffffffffffffffffffffffffffffffffff166108fc349081150290604051600060405180830381858888f1935050505015801561024c573d6000803e3d6000fd5b50600460405180606001604052803373ffffffffffffffffffffffffffffffffffffffff16815260200185815260200142815250908060018154018082558091505060019003906000526020600020906003020160009091909190915060008201518160000160006101000a81548173ffffffffffffffffffffffffffffffffffffffff021916908373ffffffffffffffffffffffffffffffffffffffff160217905550602082015181600101908051906020019061030c92919061063d565b50604082015181600201555050600360003373ffffffffffffffffffffffffffffffffffffffff1673ffffffffffffffffffffffffffffffffffffffff168152602001908152602001600020600081548092919061036990610cf8565b91905055503373ffffffffffffffffffffffffffffffffffffffff167f6728ef66814a55b797863bf8ffcd954b19cbca4ed4f0e6cf04c980705fd82c3684426040516103b6929190610d41565b60405180910390a26001915050919050565b60015481565b60036020528060005260406000206000915090505481565b60606004805480602002602001604051908101604052809291908181526020016000905b8282101561052e57838290600052602060002090600302016040518060600160405290816000820160009054906101000a900473ffffffffffffffffffffffffffffffffffffffff1673ffffffffffffffffffffffffffffffffffffffff1673ffffffffffffffffffffffffffffffffffffffff16815260200160018201805461049390610da0565b80601f01602080910402602001604051908101604052809291908181526020018280546104bf90610da0565b801561050c5780601f106104e15761010080835404028352916020019161050c565b820191906000526020600020905b8154815290600101906020018083116104ef57829003601f168201915b505050505081526020016002820154815250508152602001906001019061040a565b50505050905090565b6004818154811061054757600080fd5b90600052602060002090600302016000915090508060000160009054906101000a900473ffffffffffffffffffffffffffffffffffffffff169080600101805461059090610da0565b80601f01602080910402602001604051908101604052809291908181526020018280546105bc90610da0565b80156106095780601f106105de57610100808354040283529160200191610609565b820191906000526020600020905b8154815290600101906020018083116105ec57829003601f168201915b5050505050908060020154905083565b60008054906101000a900473ffffffffffffffffffffffffffffffffffffffff1681565b82805461064990610da0565b90600052602060002090601f01602090048101928261066b57600085556106b2565b82601f1061068457805160ff19168380011785556106b2565b828001600101855582156106b2579182015b828111156106b1578251825591602001919060010190610696565b5b5090506106bf91906106c3565b5090565b5b808211156106dc5760008160009055506001016106c4565b5090565b6000604051905090565b600080fd5b600080fd5b600080fd5b600080fd5b6000601f19601f8301169050919050565b7f4e487b7100000000000000000000000000000000000000000000000000000000600052604160045260246000fd5b610747826106fe565b810181811067ffffffffffffffff821117156107665761076561070f565b5b80604052505050565b60006107796106e0565b9050610785828261073e565b919050565b600067ffffffffffffffff8211156107a5576107a461070f565b5b6107ae826106fe565b9050602081019050919050565b82818337600083830152505050565b60006107dd6107d88461078a565b61076f565b9050828152602081018484840111156107f9576107f86106f9565b5b6108048482856107bb565b509392505050565b600082601f830112610821576108206106f4565b5b81356108318482602086016107ca565b91505092915050565b6000602082840312156108505761084f6106ea565b5b600082013567ffffffffffffffff81111561086e5761086d6106ef565b5b61087a8482850161080c565b91505092915050565b60008115159050919050565b61089881610883565b82525050565b60006020820190506108b3600083018461088f565b92915050565b6000819050919050565b6108cc816108b9565b82525050565b60006020820190506108e760008301846108c3565b92915050565b600073ffffffffffffffffffffffffffffffffffffffff82169050919050565b6000610918826108ed565b9050919050565b6109288161090d565b811461093357600080fd5b50565b6000813590506109458161091f565b92915050565b600060208284031215610961576109606106ea565b5b600061096f84828501610936565b91505092915050565b600081519050919050565b600082825260208201905092915050565b6000819050602082019050919050565b6109ad8161090d565b82525050565b600081519050919050565b600082825260208201905092915050565b60005b838110156109ed5780820151818401526020810190506109d2565b838111156109fc576000848401525b50505050565b6000610a0d826109b3565b610a1781856109be565b9350610a278185602086016109cf565b610a30816106fe565b840191505092915050565b610a44816108b9565b82525050565b6000606083016000830151610a6260008601826109a4565b5060208301518482036020860152610a7a8282610a02565b9150506040830151610a8f6040860182610a3b565b508091505092915050565b6000610aa68383610a4a565b905092915050565b6000602082019050919050565b6000610ac682610978565b610ad08185610983565b935083602082028501610ae285610994565b8060005b85811015610b1e5784840389528151610aff8582610a9a565b9450610b0a83610aae565b925060208a01995050600181019050610ae6565b50829750879550505050505092915050565b60006020820190508181036000830152610b4a8184610abb565b905092915050565b610b5b816108b9565b8114610b6657600080fd5b50565b600081359050610b7881610b52565b92915050565b600060208284031215610b9457610b936106ea565b5b6000610ba284828501610b69565b91505092915050565b610bb48161090d565b82525050565b600082825260208201905092915050565b6000610bd6826109b3565b610be08185610bba565b9350610bf08185602086016109cf565b610bf9816106fe565b840191505092915050565b6000606082019050610c196000830186610bab565b8181036020830152610c2b8185610bcb565b9050610c3a60408301846108c3565b949350505050565b6000602082019050610c576000830184610bab565b92915050565b7f436f6e646974696f6e206e6f7420736174697366696564200000000000000000600082015250565b6000610c93601883610bba565b9150610c9e82610c5d565b602082019050919050565b60006020820190508181036000830152610cc281610c86565b9050919050565b7f4e487b7100000000000000000000000000000000000000000000000000000000600052601160045260246000fd5b6000610d03826108b9565b91507fffffffffffffffffffffffffffffffffffffffffffffffffffffffffffffffff821415610d3657610d35610cc9565b5b600182019050919050565b60006040820190508181036000830152610d5b8185610bcb565b9050610d6a60208301846108c3565b9392505050565b7f4e487b7100000000000000000000000000000000000000000000000000000000600052602260045260246000fd5b60006002820490506001821680610db857607f821691505b60208210811415610dcc57610dcb610d71565b5b5091905056fea2646970667358221220b5cc3324f791446fda2a16b0b4986f468e2c56c852d6aa6b3457953375b0f69464736f6c634300080b0033",
  "immutableReferences": {},
  "source": "// SPDX-License-Identifier: MIT\r\npragma solidity ^0.8.11;\r\ncontract WavePortal{\r\n    address public admin;\r\n    uint public numWaves;\r\n    uint minFees=100 wei;\r\n    mapping(address=>uint) public countWaves;\r\n    struct Wave{\r\n        address waver;\r\n        string msg;\r\n        uint createdAt;\r\n        \r\n    }\r\n    event NewWave(address indexed from, string msg,uint date);\r\n    Wave[] public waves;\r\n\r\n    constructor(){\r\n        admin=msg.sender;\r\n    }\r\n\r\n    function wave(string memory _str) payable public minimumFee(msg.value) returns(bool){\r\n        numWaves++;\r\n        payable(admin).transfer(msg.value);\r\n        waves.push(Wave(msg.sender,_str,block.timestamp));\r\n        countWaves[msg.sender]++;\r\n        emit NewWave(msg.sender,_str,block.timestamp);\r\n        \r\n        return true;\r\n    }\r\n    \r\n    function getAllWaves() view public returns(Wave[] memory){\r\n        return waves;\r\n    }\r\n\r\n    modifier minimumFee(uint x){\r\n        require(x==minFees,\"Condition not satisfied \");\r\n        _;\r\n    }\r\n\r\n    \r\n}",
  "sourcePath": "C:\\Users\\HP\\Desktop\\Web3 Js\\Dapps-Factory-Nikku876\\Wave BuildSpace\\contracts\\WavePortal.sol",
  "compiler": {
    "name": "solc",
    "version": "0.8.11+commit.d7f03943.Emscripten.clang"
  },
  "schemaVersion": "3.4.4",
  "updatedAt": "2022-05-14T11:44:26.569Z",
  "devdoc": {
    "kind": "dev",
    "methods": {},
    "version": 1
  },
  "userdoc": {
    "kind": "user",
    "methods": {},
    "version": 1
  }
}