{
  "contractName": "WavePortal",
  "abi": [
    {
      "inputs": [],
      "stateMutability": "nonpayable",
      "type": "constructor"
    },
    {
      "inputs": [],
      "name": "admin",
      "outputs": [
        {
          "internalType": "address",
          "name": "",
          "type": "address"
        }
      ],
      "stateMutability": "view",
      "type": "function",
      "constant": true
    },
    {
      "inputs": [],
      "name": "totalWaves",
      "outputs": [
        {
          "internalType": "uint256",
          "name": "",
          "type": "uint256"
        }
      ],
      "stateMutability": "view",
      "type": "function",
      "constant": true
    },
    {
      "inputs": [],
      "name": "wave",
      "outputs": [
        {
          "internalType": "bool",
          "name": "",
          "type": "bool"
        }
      ],
      "stateMutability": "nonpayable",
      "type": "function"
    }
  ],
  "bytecode": "0x608060405234801561001057600080fd5b50336000806101000a81548173ffffffffffffffffffffffffffffffffffffffff021916908373ffffffffffffffffffffffffffffffffffffffff1602179055506101cf806100606000396000f3fe608060405234801561001057600080fd5b50600436106100415760003560e01c8063291bcab3146100465780636fe15b4414610064578063f851a44014610082575b600080fd5b61004e6100a0565b60405161005b91906100ec565b60405180910390f35b61006c6100a6565b6040516100799190610122565b60405180910390f35b61008a6100af565b604051610097919061017e565b60405180910390f35b60015481565b60006001905090565b60008054906101000a900473ffffffffffffffffffffffffffffffffffffffff1681565b6000819050919050565b6100e6816100d3565b82525050565b600060208201905061010160008301846100dd565b92915050565b60008115159050919050565b61011c81610107565b82525050565b60006020820190506101376000830184610113565b92915050565b600073ffffffffffffffffffffffffffffffffffffffff82169050919050565b60006101688261013d565b9050919050565b6101788161015d565b82525050565b6000602082019050610193600083018461016f565b9291505056fea26469706673582212200ea37f017c0b2af239ea54d6ace87ac3c2246274a8b09226efead8971284ad8e64736f6c634300080b0033",
  "immutableReferences": {},
  "source": "// SPDX-License-Identifier: MIT\r\npragma solidity ^0.8.11;\r\ncontract WavePortal{\r\n    address public admin;\r\n    uint public totalWaves;\r\n\r\n    constructor(){\r\n        admin=msg.sender;\r\n    }\r\n\r\n    function wave()  public returns(bool){\r\n\r\n        return true;\r\n    }\r\n}",
  "sourcePath": "C:\\Users\\HP\\Desktop\\Web3 Js\\Dapps-Factory-Nikku876\\Wave BuildSpace\\contracts\\WavePortal.sol",
  "compiler": {
    "name": "solc",
    "version": "0.8.11+commit.d7f03943.Emscripten.clang"
  },
  "schemaVersion": "3.4.4",
  "updatedAt": "2022-04-18T17:58:21.507Z",
  "networkType": "ethereum",
  "devdoc": {
    "kind": "dev",
    "methods": {},
    "version": 1
  },
  "userdoc": {
    "kind": "user",
    "methods": {},
    "version": 1
  }
}