{
  "contractName": "DTinder",
  "abi": [
    {
      "anonymous": false,
      "inputs": [
        {
          "indexed": true,
          "internalType": "address",
          "name": "from",
          "type": "address"
        },
        {
          "indexed": true,
          "internalType": "address",
          "name": "to",
          "type": "address"
        },
        {
          "indexed": false,
          "internalType": "uint256",
          "name": "date",
          "type": "uint256"
        }
      ],
      "name": "NewMatch",
      "type": "event"
    },
    {
      "anonymous": false,
      "inputs": [
        {
          "indexed": true,
          "internalType": "address",
          "name": "from",
          "type": "address"
        },
        {
          "indexed": true,
          "internalType": "address",
          "name": "to",
          "type": "address"
        },
        {
          "indexed": false,
          "internalType": "string",
          "name": "content",
          "type": "string"
        },
        {
          "indexed": false,
          "internalType": "uint256",
          "name": "date",
          "type": "uint256"
        }
      ],
      "name": "NewMessage",
      "type": "event"
    },
    {
      "inputs": [
        {
          "internalType": "string",
          "name": "_name",
          "type": "string"
        },
        {
          "internalType": "string",
          "name": "_city",
          "type": "string"
        },
        {
          "internalType": "enum DTinder.Gender",
          "name": "_gender",
          "type": "uint8"
        },
        {
          "internalType": "uint256",
          "name": "_age",
          "type": "uint256"
        },
        {
          "internalType": "string",
          "name": "_url",
          "type": "string"
        }
      ],
      "name": "register",
      "outputs": [],
      "stateMutability": "nonpayable",
      "type": "function"
    },
    {
      "inputs": [
        {
          "internalType": "string",
          "name": "_city",
          "type": "string"
        }
      ],
      "name": "getMatchableUsers",
      "outputs": [
        {
          "components": [
            {
              "internalType": "address",
              "name": "uid",
              "type": "address"
            },
            {
              "internalType": "string",
              "name": "name",
              "type": "string"
            },
            {
              "internalType": "string",
              "name": "city",
              "type": "string"
            },
            {
              "internalType": "enum DTinder.Gender",
              "name": "gender",
              "type": "uint8"
            },
            {
              "internalType": "uint256",
              "name": "age",
              "type": "uint256"
            },
            {
              "internalType": "string",
              "name": "picUrl",
              "type": "string"
            }
          ],
          "internalType": "struct DTinder.User[]",
          "name": "",
          "type": "tuple[]"
        }
      ],
      "stateMutability": "view",
      "type": "function",
      "constant": true
    },
    {
      "inputs": [
        {
          "internalType": "enum DTinder.SwipeStatus",
          "name": "_swipeStatus",
          "type": "uint8"
        },
        {
          "internalType": "address",
          "name": "_userId",
          "type": "address"
        }
      ],
      "name": "swipe",
      "outputs": [],
      "stateMutability": "nonpayable",
      "type": "function"
    },
    {
      "inputs": [
        {
          "internalType": "string",
          "name": "_content",
          "type": "string"
        },
        {
          "internalType": "address",
          "name": "_to",
          "type": "address"
        }
      ],
      "name": "sendMessage",
      "outputs": [],
      "stateMutability": "nonpayable",
      "type": "function"
    }
  ],
  "bytecode": "0x608060405234801561001057600080fd5b506123b4806100206000396000f3fe608060405234801561001057600080fd5b506004361061004c5760003560e01c8063b04e547514610051578063b2c55ce914610081578063c48d6d5e1461009d578063f1ba0f75146100b9575b600080fd5b61006b6004803603810190610066919061178e565b6100d5565b6040516100789190611a89565b60405180910390f35b61009b60048036038101906100969190611afc565b6107a1565b005b6100b760048036038101906100b29190611b9c565b610d0e565b005b6100d360048036038101906100ce9190611c4d565b611033565b005b60603360008060003373ffffffffffffffffffffffffffffffffffffffff1673ffffffffffffffffffffffffffffffffffffffff16815260200190815260200160002060040154141561015d576040517f08c379a000000000000000000000000000000000000000000000000000000000815260040161015490611d86565b60405180910390fd5b60008060003373ffffffffffffffffffffffffffffffffffffffff1673ffffffffffffffffffffffffffffffffffffffff168152602001908152602001600020905060008060018111156101b4576101b36118cc565b5b8260030160009054906101000a900460ff1660018111156101d8576101d76118cc565b5b146101e45760006101e7565b60015b60ff169050600060016000876040516020016102039190611de2565b60405160208183030381529060405280519060200120815260200190815260200160002060008381526020019081526020016000209050600080600090505b828054905081101561036957600083828154811061026357610262611df9565b5b9060005260206000200160009054906101000a900473ffffffffffffffffffffffffffffffffffffffff169050600060028111156102a4576102a36118cc565b5b600260003373ffffffffffffffffffffffffffffffffffffffff1673ffffffffffffffffffffffffffffffffffffffff16815260200190815260200160002060008373ffffffffffffffffffffffffffffffffffffffff1673ffffffffffffffffffffffffffffffffffffffff16815260200190815260200160002060009054906101000a900460ff1660028111156103405761033f6118cc565b5b141561035557828061035190611e57565b9350505b50808061036190611e57565b915050610242565b5060008167ffffffffffffffff81111561038657610385611663565b5b6040519080825280602002602001820160405280156103bf57816020015b6103ac611533565b8152602001906001900390816103a45790505b50905060005b828110156107925760008482815481106103e2576103e1611df9565b5b9060005260206000200160009054906101000a900473ffffffffffffffffffffffffffffffffffffffff16905060006002811115610423576104226118cc565b5b600260003373ffffffffffffffffffffffffffffffffffffffff1673ffffffffffffffffffffffffffffffffffffffff16815260200190815260200160002060008373ffffffffffffffffffffffffffffffffffffffff1673ffffffffffffffffffffffffffffffffffffffff16815260200190815260200160002060009054906101000a900460ff1660028111156104bf576104be6118cc565b5b141561077e576000808273ffffffffffffffffffffffffffffffffffffffff1673ffffffffffffffffffffffffffffffffffffffff1681526020019081526020016000206040518060c00160405290816000820160009054906101000a900473ffffffffffffffffffffffffffffffffffffffff1673ffffffffffffffffffffffffffffffffffffffff1673ffffffffffffffffffffffffffffffffffffffff16815260200160018201805461057490611ecf565b80601f01602080910402602001604051908101604052809291908181526020018280546105a090611ecf565b80156105ed5780601f106105c2576101008083540402835291602001916105ed565b820191906000526020600020905b8154815290600101906020018083116105d057829003601f168201915b5050505050815260200160028201805461060690611ecf565b80601f016020809104026020016040519081016040528092919081815260200182805461063290611ecf565b801561067f5780601f106106545761010080835404028352916020019161067f565b820191906000526020600020905b81548152906001019060200180831161066257829003601f168201915b505050505081526020016003820160009054906101000a900460ff1660018111156106ad576106ac6118cc565b5b60018111156106bf576106be6118cc565b5b8152602001600482015481526020016005820180546106dd90611ecf565b80601f016020809104026020016040519081016040528092919081815260200182805461070990611ecf565b80156107565780601f1061072b57610100808354040283529160200191610756565b820191906000526020600020905b81548152906001019060200180831161073957829003601f168201915b50505050508152505083838151811061077257610771611df9565b5b60200260200101819052505b50808061078a90611e57565b9150506103c5565b50809650505050505050919050565b3360008060003373ffffffffffffffffffffffffffffffffffffffff1673ffffffffffffffffffffffffffffffffffffffff168152602001908152602001600020600401541415610827576040517f08c379a000000000000000000000000000000000000000000000000000000000815260040161081e90611d86565b60405180910390fd5b8160008060003373ffffffffffffffffffffffffffffffffffffffff1673ffffffffffffffffffffffffffffffffffffffff1681526020019081526020016000206004015414156108ad576040517f08c379a00000000000000000000000000000000000000000000000000000000081526004016108a490611d86565b60405180910390fd5b600060028111156108c1576108c06118cc565b5b600260003373ffffffffffffffffffffffffffffffffffffffff1673ffffffffffffffffffffffffffffffffffffffff16815260200190815260200160002060008573ffffffffffffffffffffffffffffffffffffffff1673ffffffffffffffffffffffffffffffffffffffff16815260200190815260200160002060009054906101000a900460ff16600281111561095d5761095c6118cc565b5b1461099d576040517f08c379a000000000000000000000000000000000000000000000000000000000815260040161099490611f4d565b60405180910390fd5b6000600360003373ffffffffffffffffffffffffffffffffffffffff1673ffffffffffffffffffffffffffffffffffffffff1681526020019081526020016000209050426201518082600001546109f49190611f6d565b11610a0d57428160000181905550606481600101819055505b606481600101541115610a55576040517f08c379a0000000000000000000000000000000000000000000000000000000008152600401610a4c9061200f565b60405180910390fd5b806001016000815480929190610a6a90611e57565b9190505550600280811115610a8257610a816118cc565b5b856002811115610a9557610a946118cc565b5b1415610b455784600260003373ffffffffffffffffffffffffffffffffffffffff1673ffffffffffffffffffffffffffffffffffffffff16815260200190815260200160002060008673ffffffffffffffffffffffffffffffffffffffff1673ffffffffffffffffffffffffffffffffffffffff16815260200190815260200160002060006101000a81548160ff02191690836002811115610b3a57610b396118cc565b5b021790555050610d08565b6001600260003373ffffffffffffffffffffffffffffffffffffffff1673ffffffffffffffffffffffffffffffffffffffff16815260200190815260200160002060008673ffffffffffffffffffffffffffffffffffffffff1673ffffffffffffffffffffffffffffffffffffffff16815260200190815260200160002060006101000a81548160ff02191690836002811115610be557610be46118cc565b5b021790555060016002811115610bfe57610bfd6118cc565b5b600260008673ffffffffffffffffffffffffffffffffffffffff1673ffffffffffffffffffffffffffffffffffffffff16815260200190815260200160002060003373ffffffffffffffffffffffffffffffffffffffff1673ffffffffffffffffffffffffffffffffffffffff16815260200190815260200160002060009054906101000a900460ff166002811115610c9a57610c996118cc565b5b1415610d06578373ffffffffffffffffffffffffffffffffffffffff163373ffffffffffffffffffffffffffffffffffffffff167fe846b994a6e575558985b45176c874d739a96392a33d125f5234e147e68090a142604051610cfd919061203e565b60405180910390a35b505b50505050565b3360008060003373ffffffffffffffffffffffffffffffffffffffff1673ffffffffffffffffffffffffffffffffffffffff168152602001908152602001600020600401541415610d94576040517f08c379a0000000000000000000000000000000000000000000000000000000008152600401610d8b90611d86565b60405180910390fd5b8160008060003373ffffffffffffffffffffffffffffffffffffffff1673ffffffffffffffffffffffffffffffffffffffff168152602001908152602001600020600401541415610e1a576040517f08c379a0000000000000000000000000000000000000000000000000000000008152600401610e1190611d86565b60405180910390fd5b60016002811115610e2e57610e2d6118cc565b5b600260003373ffffffffffffffffffffffffffffffffffffffff1673ffffffffffffffffffffffffffffffffffffffff16815260200190815260200160002060008573ffffffffffffffffffffffffffffffffffffffff1673ffffffffffffffffffffffffffffffffffffffff16815260200190815260200160002060009054906101000a900460ff166002811115610eca57610ec96118cc565b5b148015610f84575060016002811115610ee657610ee56118cc565b5b600260008573ffffffffffffffffffffffffffffffffffffffff1673ffffffffffffffffffffffffffffffffffffffff16815260200190815260200160002060003373ffffffffffffffffffffffffffffffffffffffff1673ffffffffffffffffffffffffffffffffffffffff16815260200190815260200160002060009054906101000a900460ff166002811115610f8257610f816118cc565b5b145b610fc3576040517f08c379a0000000000000000000000000000000000000000000000000000000008152600401610fba906120a5565b60405180910390fd5b8273ffffffffffffffffffffffffffffffffffffffff163373ffffffffffffffffffffffffffffffffffffffff167f820e6d37b56b06482f38c0c5918db7d094c4b90fb974528a28d8344079064099878742604051611024939291906120f2565b60405180910390a35050505050565b60008060003373ffffffffffffffffffffffffffffffffffffffff1673ffffffffffffffffffffffffffffffffffffffff16815260200190815260200160002060040154146110b7576040517f08c379a00000000000000000000000000000000000000000000000000000000081526004016110ae90612170565b60405180910390fd5b6110c188886114db565b15611101576040517f08c379a00000000000000000000000000000000000000000000000000000000081526004016110f8906121dc565b60405180910390fd5b61110b86866114db565b1561114b576040517f08c379a000000000000000000000000000000000000000000000000000000000815260040161114290612248565b60405180910390fd5b6011831161118e576040517f08c379a0000000000000000000000000000000000000000000000000000000008152600401611185906122b4565b60405180910390fd5b61119882826114db565b156111d8576040517f08c379a00000000000000000000000000000000000000000000000000000000081526004016111cf90612320565b60405180910390fd5b6040518060c001604052803373ffffffffffffffffffffffffffffffffffffffff16815260200189898080601f016020809104026020016040519081016040528093929190818152602001838380828437600081840152601f19601f82011690508083019250505050505050815260200187878080601f016020809104026020016040519081016040528093929190818152602001838380828437600081840152601f19601f8201169050808301925050505050505081526020018560018111156112a6576112a56118cc565b5b815260200184815260200183838080601f016020809104026020016040519081016040528093929190818152602001838380828437600081840152601f19601f820116905080830192505050505050508152506000803373ffffffffffffffffffffffffffffffffffffffff1673ffffffffffffffffffffffffffffffffffffffff16815260200190815260200160002060008201518160000160006101000a81548173ffffffffffffffffffffffffffffffffffffffff021916908373ffffffffffffffffffffffffffffffffffffffff160217905550602082015181600101908051906020019061139a929190611591565b5060408201518160020190805190602001906113b7929190611591565b5060608201518160030160006101000a81548160ff021916908360018111156113e3576113e26118cc565b5b02179055506080820151816004015560a082015181600501908051906020019061140e929190611591565b50905050600160008787604051602001611429929190612365565b6040516020818303038152906040528051906020012081526020019081526020016000206000856001811115611462576114616118cc565b5b8152602001908152602001600020339080600181540180825580915050600190039060005260206000200160009091909190916101000a81548173ffffffffffffffffffffffffffffffffffffffff021916908373ffffffffffffffffffffffffffffffffffffffff1602179055505050505050505050565b60008083838080601f016020809104026020016040519081016040528093929190818152602001838380828437600081840152601f19601f820116905080830192505050505050509050600081511491505092915050565b6040518060c00160405280600073ffffffffffffffffffffffffffffffffffffffff16815260200160608152602001606081526020016000600181111561157d5761157c6118cc565b5b815260200160008152602001606081525090565b82805461159d90611ecf565b90600052602060002090601f0160209004810192826115bf5760008555611606565b82601f106115d857805160ff1916838001178555611606565b82800160010185558215611606579182015b828111156116055782518255916020019190600101906115ea565b5b5090506116139190611617565b5090565b5b80821115611630576000816000905550600101611618565b5090565b6000604051905090565b600080fd5b600080fd5b600080fd5b600080fd5b6000601f19601f8301169050919050565b7f4e487b7100000000000000000000000000000000000000000000000000000000600052604160045260246000fd5b61169b82611652565b810181811067ffffffffffffffff821117156116ba576116b9611663565b5b80604052505050565b60006116cd611634565b90506116d98282611692565b919050565b600067ffffffffffffffff8211156116f9576116f8611663565b5b61170282611652565b9050602081019050919050565b82818337600083830152505050565b600061173161172c846116de565b6116c3565b90508281526020810184848401111561174d5761174c61164d565b5b61175884828561170f565b509392505050565b600082601f83011261177557611774611648565b5b813561178584826020860161171e565b91505092915050565b6000602082840312156117a4576117a361163e565b5b600082013567ffffffffffffffff8111156117c2576117c1611643565b5b6117ce84828501611760565b91505092915050565b600081519050919050565b600082825260208201905092915050565b6000819050602082019050919050565b600073ffffffffffffffffffffffffffffffffffffffff82169050919050565b600061182e82611803565b9050919050565b61183e81611823565b82525050565b600081519050919050565b600082825260208201905092915050565b60005b8381101561187e578082015181840152602081019050611863565b8381111561188d576000848401525b50505050565b600061189e82611844565b6118a8818561184f565b93506118b8818560208601611860565b6118c181611652565b840191505092915050565b7f4e487b7100000000000000000000000000000000000000000000000000000000600052602160045260246000fd5b6002811061190c5761190b6118cc565b5b50565b600081905061191d826118fb565b919050565b600061192d8261190f565b9050919050565b61193d81611922565b82525050565b6000819050919050565b61195681611943565b82525050565b600060c0830160008301516119746000860182611835565b506020830151848203602086015261198c8282611893565b915050604083015184820360408601526119a68282611893565b91505060608301516119bb6060860182611934565b5060808301516119ce608086018261194d565b5060a083015184820360a08601526119e68282611893565b9150508091505092915050565b60006119ff838361195c565b905092915050565b6000602082019050919050565b6000611a1f826117d7565b611a2981856117e2565b935083602082028501611a3b856117f3565b8060005b85811015611a775784840389528151611a5885826119f3565b9450611a6383611a07565b925060208a01995050600181019050611a3f565b50829750879550505050505092915050565b60006020820190508181036000830152611aa38184611a14565b905092915050565b60038110611ab857600080fd5b50565b600081359050611aca81611aab565b92915050565b611ad981611823565b8114611ae457600080fd5b50565b600081359050611af681611ad0565b92915050565b60008060408385031215611b1357611b1261163e565b5b6000611b2185828601611abb565b9250506020611b3285828601611ae7565b9150509250929050565b600080fd5b600080fd5b60008083601f840112611b5c57611b5b611648565b5b8235905067ffffffffffffffff811115611b7957611b78611b3c565b5b602083019150836001820283011115611b9557611b94611b41565b5b9250929050565b600080600060408486031215611bb557611bb461163e565b5b600084013567ffffffffffffffff811115611bd357611bd2611643565b5b611bdf86828701611b46565b93509350506020611bf286828701611ae7565b9150509250925092565b60028110611c0957600080fd5b50565b600081359050611c1b81611bfc565b92915050565b611c2a81611943565b8114611c3557600080fd5b50565b600081359050611c4781611c21565b92915050565b60008060008060008060008060a0898b031215611c6d57611c6c61163e565b5b600089013567ffffffffffffffff811115611c8b57611c8a611643565b5b611c978b828c01611b46565b9850985050602089013567ffffffffffffffff811115611cba57611cb9611643565b5b611cc68b828c01611b46565b96509650506040611cd98b828c01611c0c565b9450506060611cea8b828c01611c38565b935050608089013567ffffffffffffffff811115611d0b57611d0a611643565b5b611d178b828c01611b46565b92509250509295985092959890939650565b600082825260208201905092915050565b7f55736572206973206e6f74206578697374000000000000000000000000000000600082015250565b6000611d70601183611d29565b9150611d7b82611d3a565b602082019050919050565b60006020820190508181036000830152611d9f81611d63565b9050919050565b600081905092915050565b6000611dbc82611844565b611dc68185611da6565b9350611dd6818560208601611860565b80840191505092915050565b6000611dee8284611db1565b915081905092915050565b7f4e487b7100000000000000000000000000000000000000000000000000000000600052603260045260246000fd5b7f4e487b7100000000000000000000000000000000000000000000000000000000600052601160045260246000fd5b6000611e6282611943565b91507fffffffffffffffffffffffffffffffffffffffffffffffffffffffffffffffff821415611e9557611e94611e28565b5b600182019050919050565b7f4e487b7100000000000000000000000000000000000000000000000000000000600052602260045260246000fd5b60006002820490506001821680611ee757607f821691505b60208210811415611efb57611efa611ea0565b5b50919050565b7f43616e6e6f742073776970652073616d6520706572736f6e2074776963652000600082015250565b6000611f37601f83611d29565b9150611f4282611f01565b602082019050919050565b60006020820190508181036000830152611f6681611f2a565b9050919050565b6000611f7882611943565b9150611f8383611943565b9250827fffffffffffffffffffffffffffffffffffffffffffffffffffffffffffffffff03821115611fb857611fb7611e28565b5b828201905092915050565b7f596f7520636f6d70656c74656420746f64617973207377697065207461736b73600082015250565b6000611ff9602083611d29565b915061200482611fc3565b602082019050919050565b6000602082019050818103600083015261202881611fec565b9050919050565b61203881611943565b82525050565b6000602082019050612053600083018461202f565b92915050565b7f426f7468206c696b652065616368206f74686572000000000000000000000000600082015250565b600061208f601483611d29565b915061209a82612059565b602082019050919050565b600060208201905081810360008301526120be81612082565b9050919050565b60006120d18385611d29565b93506120de83858461170f565b6120e783611652565b840190509392505050565b6000604082019050818103600083015261210d8185876120c5565b905061211c602083018461202f565b949350505050565b7f5573657220697320416c72656164792065786973740000000000000000000000600082015250565b600061215a601583611d29565b915061216582612124565b602082019050919050565b600060208201905081810360008301526121898161214d565b9050919050565b7f506c6561736520656e746572206e616d65200000000000000000000000000000600082015250565b60006121c6601283611d29565b91506121d182612190565b602082019050919050565b600060208201905081810360008301526121f5816121b9565b9050919050565b7f506c6561736520656e7465722043697479200000000000000000000000000000600082015250565b6000612232601283611d29565b915061223d826121fc565b602082019050919050565b6000602082019050818103600083015261226181612225565b9050919050565b7f596f7520617265206e6f742061626f7665203137000000000000000000000000600082015250565b600061229e601483611d29565b91506122a982612268565b602082019050919050565b600060208201905081810360008301526122cd81612291565b9050919050565b7f506c6561736520656e746572205069632075726c200000000000000000000000600082015250565b600061230a601583611d29565b9150612315826122d4565b602082019050919050565b60006020820190508181036000830152612339816122fd565b9050919050565b600061234c8385611da6565b935061235983858461170f565b82840190509392505050565b6000612372828486612340565b9150819050939250505056fea2646970667358221220211f5ef07035fc7b3077c8fe312c2e5c533cda91f2f0efe86af80afb3105455664736f6c634300080b0033",
  "immutableReferences": {},
  "source": "// SPDX-License-Identifier: MIT\r\npragma solidity ^0.8.11;\r\npragma experimental ABIEncoderV2;\r\ncontract DTinder{\r\n    //1. Register User\r\n    //2. Matching: swipe right / left\r\n    //3. Messaging: send messages to matches\r\n\r\n    enum Gender {\r\n        MALE,FEMALE\r\n    }\r\n    enum SwipeStatus{\r\n        UNKNOWN,\r\n        LIKE,\r\n        DISLIKE\r\n    }\r\n    struct User{\r\n        address uid;\r\n        string name ;\r\n        string city;\r\n        Gender gender;\r\n        uint age;\r\n        string picUrl;\r\n    }\r\n\r\n    struct SwipeSession{\r\n        uint start;\r\n        uint count;\r\n    }\r\n\r\n    mapping(address=>User) private users;\r\n    mapping(bytes32=>mapping(uint=>address[])) private userIdsByCity;\r\n    mapping(address=>mapping(address=>SwipeStatus)) private swipes;\r\n    mapping(address=>SwipeSession) private swipeSessions;\r\n\r\n    event NewMatch(address indexed from ,address indexed to,uint date);\r\n\r\n    event NewMessage(address indexed from ,address indexed to , string content,uint date);\r\n\r\n    function register(string calldata _name,string calldata _city,Gender _gender,uint _age ,string calldata _url) external {\r\n        require(users[msg.sender].age==0,\"User is Already exist\");\r\n        require(!_isEmptyString(_name),\"Please enter name \");\r\n        require(!_isEmptyString(_city),\"Please enter City \");\r\n        require(_age>17,\"You are not above 17\");\r\n        require(!_isEmptyString(_url),\"Please enter Pic url \");\r\n        users[msg.sender]=User(msg.sender,_name,_city,_gender,_age,_url);\r\n        userIdsByCity[keccak256(abi.encodePacked(_city))][uint(_gender)].push(msg.sender);\r\n\r\n    }\r\n\r\n    function getMatchableUsers(string memory _city) view external userExist(msg.sender) returns(User[] memory){\r\n        User storage user = users[msg.sender];\r\n        uint oppositeGender= user.gender==Gender.MALE ? 1: 0;\r\n        address[] storage userIds= userIdsByCity[keccak256(abi.encodePacked(_city))][oppositeGender];\r\n        uint matchableUsersCount;\r\n\r\n        for(uint i=0;i<userIds.length;i++){\r\n            address userId= userIds[i];\r\n            if(swipes[msg.sender][userId]== SwipeStatus.UNKNOWN){\r\n                matchableUsersCount++;\r\n            }\r\n        }\r\n\r\n        User[] memory _users= new User[](matchableUsersCount);\r\n\r\n        for(uint i=0;i<matchableUsersCount;i++){\r\n            address userId= userIds[i];\r\n            if(swipes[msg.sender][userId]== SwipeStatus.UNKNOWN){\r\n                _users[i]=users[userId];\r\n            }\r\n        }\r\n        \r\n\r\n        return _users;\r\n\r\n\r\n    }\r\n\r\n\r\n\r\n    function swipe(SwipeStatus _swipeStatus,address _userId) userExist(msg.sender) external userExist(_userId) {\r\n        require(swipes[msg.sender][_userId] == SwipeStatus.UNKNOWN,\"Cannot swipe same person twice \");\r\n\r\n        SwipeSession storage swipeSession = swipeSessions[msg.sender];\r\n        if(swipeSession.start + 86400 <= block.timestamp) {\r\n            swipeSession.start = block.timestamp;\r\n            swipeSession.count = 100;\r\n        }\r\n\r\n        require(swipeSession.count<=100,\"You compelted todays swipe tasks\");\r\n        swipeSession.count++;\r\n        if(_swipeStatus==SwipeStatus.DISLIKE){\r\n            swipes[msg.sender][_userId]=_swipeStatus;\r\n            return ;\r\n        }\r\n        swipes[msg.sender][_userId]=SwipeStatus.LIKE;\r\n\r\n        if(swipes[_userId][msg.sender] == SwipeStatus.LIKE) {\r\n            emit NewMatch(msg.sender, _userId, block.timestamp);\r\n        }\r\n\r\n    }\r\n\r\n    function sendMessage(string calldata _content,address _to) userExist(msg.sender) external userExist(_to){\r\n        require(swipes[msg.sender][_to]==SwipeStatus.LIKE && swipes[_to][msg.sender]==SwipeStatus.LIKE,\"Both like each other\");\r\n        emit NewMessage(msg.sender, _to, _content, block.timestamp);\r\n    }\r\n\r\n    function _isEmptyString(string calldata _str) private returns(bool){\r\n        bytes memory str= bytes(_str);\r\n        return str.length==0;\r\n    }\r\n\r\n    modifier userExist(address _addr){\r\n        require(users[msg.sender].age!=0,\"User is not exist\");\r\n        _;\r\n    }\r\n\r\n}",
  "sourcePath": "C:\\Users\\HP\\Desktop\\Web3 Js\\Dapps-Factory-Nikku876\\tinder\\contracts\\Tinder.sol",
  "compiler": {
    "name": "solc",
    "version": "0.8.11+commit.d7f03943.Emscripten.clang"
  },
  "schemaVersion": "3.4.4",
  "updatedAt": "2022-06-16T07:12:33.495Z",
  "networkType": "ethereum",
  "devdoc": {
    "kind": "dev",
    "methods": {},
    "version": 1
  },
  "userdoc": {
    "kind": "user",
    "methods": {},
    "version": 1
  }
}