{
  "contractName": "DAO",
  "abi": [
    {
      "inputs": [
        {
          "internalType": "uint256",
          "name": "contributeTime",
          "type": "uint256"
        },
        {
          "internalType": "uint256",
          "name": "_voteTime",
          "type": "uint256"
        },
        {
          "internalType": "uint256",
          "name": "_quorum",
          "type": "uint256"
        }
      ],
      "stateMutability": "nonpayable",
      "type": "constructor"
    },
    {
      "inputs": [],
      "name": "contributionEnd",
      "outputs": [
        {
          "internalType": "uint256",
          "name": "",
          "type": "uint256"
        }
      ],
      "stateMutability": "view",
      "type": "function",
      "constant": true
    },
    {
      "inputs": [
        {
          "internalType": "address",
          "name": "",
          "type": "address"
        }
      ],
      "name": "investors",
      "outputs": [
        {
          "internalType": "bool",
          "name": "",
          "type": "bool"
        }
      ],
      "stateMutability": "view",
      "type": "function",
      "constant": true
    },
    {
      "inputs": [],
      "name": "manager",
      "outputs": [
        {
          "internalType": "address",
          "name": "",
          "type": "address"
        }
      ],
      "stateMutability": "view",
      "type": "function",
      "constant": true
    },
    {
      "inputs": [],
      "name": "nextId",
      "outputs": [
        {
          "internalType": "uint256",
          "name": "",
          "type": "uint256"
        }
      ],
      "stateMutability": "view",
      "type": "function",
      "constant": true
    },
    {
      "inputs": [
        {
          "internalType": "uint256",
          "name": "",
          "type": "uint256"
        }
      ],
      "name": "proposals",
      "outputs": [
        {
          "internalType": "uint256",
          "name": "id",
          "type": "uint256"
        },
        {
          "internalType": "string",
          "name": "name",
          "type": "string"
        },
        {
          "internalType": "uint256",
          "name": "amount",
          "type": "uint256"
        },
        {
          "internalType": "address payable",
          "name": "to",
          "type": "address"
        },
        {
          "internalType": "uint256",
          "name": "votes",
          "type": "uint256"
        },
        {
          "internalType": "uint256",
          "name": "end",
          "type": "uint256"
        },
        {
          "internalType": "bool",
          "name": "executed",
          "type": "bool"
        }
      ],
      "stateMutability": "view",
      "type": "function",
      "constant": true
    },
    {
      "inputs": [],
      "name": "quorum",
      "outputs": [
        {
          "internalType": "uint256",
          "name": "",
          "type": "uint256"
        }
      ],
      "stateMutability": "view",
      "type": "function",
      "constant": true
    },
    {
      "inputs": [],
      "name": "remainingShares",
      "outputs": [
        {
          "internalType": "uint256",
          "name": "",
          "type": "uint256"
        }
      ],
      "stateMutability": "view",
      "type": "function",
      "constant": true
    },
    {
      "inputs": [
        {
          "internalType": "address",
          "name": "",
          "type": "address"
        }
      ],
      "name": "shares",
      "outputs": [
        {
          "internalType": "uint256",
          "name": "",
          "type": "uint256"
        }
      ],
      "stateMutability": "view",
      "type": "function",
      "constant": true
    },
    {
      "inputs": [],
      "name": "totalShares",
      "outputs": [
        {
          "internalType": "uint256",
          "name": "",
          "type": "uint256"
        }
      ],
      "stateMutability": "view",
      "type": "function",
      "constant": true
    },
    {
      "inputs": [
        {
          "internalType": "address",
          "name": "",
          "type": "address"
        },
        {
          "internalType": "uint256",
          "name": "",
          "type": "uint256"
        }
      ],
      "name": "votes",
      "outputs": [
        {
          "internalType": "bool",
          "name": "",
          "type": "bool"
        }
      ],
      "stateMutability": "view",
      "type": "function",
      "constant": true
    },
    {
      "inputs": [],
      "name": "votesTime",
      "outputs": [
        {
          "internalType": "uint256",
          "name": "",
          "type": "uint256"
        }
      ],
      "stateMutability": "view",
      "type": "function",
      "constant": true
    },
    {
      "stateMutability": "payable",
      "type": "receive",
      "payable": true
    },
    {
      "inputs": [],
      "name": "contribute",
      "outputs": [],
      "stateMutability": "payable",
      "type": "function",
      "payable": true
    },
    {
      "inputs": [
        {
          "internalType": "uint256",
          "name": "amount",
          "type": "uint256"
        }
      ],
      "name": "redeemShare",
      "outputs": [],
      "stateMutability": "nonpayable",
      "type": "function"
    },
    {
      "inputs": [
        {
          "internalType": "uint256",
          "name": "amount",
          "type": "uint256"
        },
        {
          "internalType": "address",
          "name": "to",
          "type": "address"
        }
      ],
      "name": "transferShare",
      "outputs": [],
      "stateMutability": "nonpayable",
      "type": "function"
    },
    {
      "inputs": [
        {
          "internalType": "string",
          "name": "name",
          "type": "string"
        },
        {
          "internalType": "uint256",
          "name": "amount",
          "type": "uint256"
        },
        {
          "internalType": "address payable",
          "name": "to",
          "type": "address"
        }
      ],
      "name": "createProposal",
      "outputs": [],
      "stateMutability": "nonpayable",
      "type": "function"
    },
    {
      "inputs": [
        {
          "internalType": "uint256",
          "name": "id",
          "type": "uint256"
        }
      ],
      "name": "voteProposal",
      "outputs": [],
      "stateMutability": "nonpayable",
      "type": "function"
    },
    {
      "inputs": [
        {
          "internalType": "uint256",
          "name": "id",
          "type": "uint256"
        }
      ],
      "name": "executeProposal",
      "outputs": [
        {
          "internalType": "bool",
          "name": "",
          "type": "bool"
        }
      ],
      "stateMutability": "nonpayable",
      "type": "function"
    },
    {
      "inputs": [
        {
          "internalType": "uint256",
          "name": "amount",
          "type": "uint256"
        },
        {
          "internalType": "address payable",
          "name": "to",
          "type": "address"
        }
      ],
      "name": "withdrawEther",
      "outputs": [],
      "stateMutability": "nonpayable",
      "type": "function"
    }
  ],
  "bytecode": "0x60806040523480156200001157600080fd5b506040516200225838038062002258833981810160405281019062000037919062000135565b600081118015620000485750606481105b6200008a576040517f08c379a00000000000000000000000000000000000000000000000000000000081526004016200008190620001f2565b60405180910390fd5b336000806101000a81548173ffffffffffffffffffffffffffffffffffffffff021916908373ffffffffffffffffffffffffffffffffffffffff1602179055504283620000d8919062000243565b6005819055508160098190555080600a81905550505050620002a0565b600080fd5b6000819050919050565b6200010f81620000fa565b81146200011b57600080fd5b50565b6000815190506200012f8162000104565b92915050565b600080600060608486031215620001515762000150620000f5565b5b600062000161868287016200011e565b935050602062000174868287016200011e565b925050604062000187868287016200011e565b9150509250925092565b600082825260208201905092915050565b7f506c6561736520656e7465722076616c69642051756f72756d00000000000000600082015250565b6000620001da60198362000191565b9150620001e782620001a2565b602082019050919050565b600060208201905081810360008301526200020d81620001cb565b9050919050565b7f4e487b7100000000000000000000000000000000000000000000000000000000600052601160045260246000fd5b60006200025082620000fa565b91506200025d83620000fa565b9250827fffffffffffffffffffffffffffffffffffffffffffffffffffffffffffffffff0382111562000295576200029462000214565b5b828201905092915050565b611fa880620002b06000396000f3fe60806040526004361061010d5760003560e01c8063807896d511610095578063ce7c2ac211610064578063ce7c2ac2146103a5578063d151b516146103e2578063d5a4a3ec1461040d578063d66c42ec14610438578063d7bb99ba146104635761012d565b8063807896d5146102ed578063868643df146103165780639f2524ee1461033f578063ce56c4541461037c5761012d565b80633a98ef39116100dc5780633a98ef3914610206578063481c6a751461023157806361b8ce8c1461025c5780636ac1e01f146102875780636f7bc9be146102b05761012d565b8063013cf08b14610132578063039383e6146101755780630d61b5191461019e5780631703a018146101db5761012d565b3661012d57346004600082825461012491906112e6565b92505081905550005b600080fd5b34801561013e57600080fd5b506101596004803603810190610154919061137c565b61046d565b60405161016c97969594939291906114ad565b60405180910390f35b34801561018157600080fd5b5061019c60048036038101906101979190611561565b610564565b005b3480156101aa57600080fd5b506101c560048036038101906101c0919061137c565b6106ed565b6040516101d291906115a1565b60405180910390f35b3480156101e757600080fd5b506101f06108d2565b6040516101fd91906115bc565b60405180910390f35b34801561021257600080fd5b5061021b6108d8565b60405161022891906115bc565b60405180910390f35b34801561023d57600080fd5b506102466108de565b60405161025391906115e6565b60405180910390f35b34801561026857600080fd5b50610271610902565b60405161027e91906115bc565b60405180910390f35b34801561029357600080fd5b506102ae60048036038101906102a99190611762565b610908565b005b3480156102bc57600080fd5b506102d760048036038101906102d291906117d1565b610b3e565b6040516102e491906115a1565b60405180910390f35b3480156102f957600080fd5b50610314600480360381019061030f919061137c565b610b5e565b005b34801561032257600080fd5b5061033d6004803603810190610338919061137c565b610dc7565b005b34801561034b57600080fd5b50610366600480360381019061036191906117fe565b610f47565b60405161037391906115a1565b60405180910390f35b34801561038857600080fd5b506103a3600480360381019061039e919061183e565b610f76565b005b3480156103b157600080fd5b506103cc60048036038101906103c791906117d1565b611012565b6040516103d991906115bc565b60405180910390f35b3480156103ee57600080fd5b506103f761102a565b60405161040491906115bc565b60405180910390f35b34801561041957600080fd5b50610422611030565b60405161042f91906115bc565b60405180910390f35b34801561044457600080fd5b5061044d611036565b60405161045a91906115bc565b60405180910390f35b61046b61103c565b005b6006602052806000526040600020600091509050806000015490806001018054610496906118ad565b80601f01602080910402602001604051908101604052809291908181526020018280546104c2906118ad565b801561050f5780601f106104e45761010080835404028352916020019161050f565b820191906000526020600020905b8154815290600101906020018083116104f257829003601f168201915b5050505050908060020154908060030160009054906101000a900473ffffffffffffffffffffffffffffffffffffffff16908060040154908060050154908060060160009054906101000a900460ff16905087565b81600260003373ffffffffffffffffffffffffffffffffffffffff1673ffffffffffffffffffffffffffffffffffffffff1681526020019081526020016000205410156105e6576040517f08c379a00000000000000000000000000000000000000000000000000000000081526004016105dd90611951565b60405180910390fd5b81600260003373ffffffffffffffffffffffffffffffffffffffff1673ffffffffffffffffffffffffffffffffffffffff16815260200190815260200160002060008282546106359190611971565b9250508190555081600260008373ffffffffffffffffffffffffffffffffffffffff1673ffffffffffffffffffffffffffffffffffffffff168152602001908152602001600020600082825461068b91906112e6565b9250508190555060018060008373ffffffffffffffffffffffffffffffffffffffff1673ffffffffffffffffffffffffffffffffffffffff16815260200190815260200160002060006101000a81548160ff0219169083151502179055505050565b60008060009054906101000a900473ffffffffffffffffffffffffffffffffffffffff1673ffffffffffffffffffffffffffffffffffffffff163373ffffffffffffffffffffffffffffffffffffffff161461077e576040517f08c379a000000000000000000000000000000000000000000000000000000000815260040161077590611a17565b60405180910390fd5b600060066000848152602001908152602001600020905080600501544210156107dc576040517f08c379a00000000000000000000000000000000000000000000000000000000081526004016107d390611a83565b60405180910390fd5b600015158160060160009054906101000a900460ff16151514610834576040517f08c379a000000000000000000000000000000000000000000000000000000000815260040161082b90611aef565b60405180910390fd5b600a5460035482600401546108499190611b3e565b60646108559190611b6f565b1015610896576040517f08c379a000000000000000000000000000000000000000000000000000000000815260040161088d90611c15565b60405180910390fd5b6108c881600201548260030160009054906101000a900473ffffffffffffffffffffffffffffffffffffffff16611161565b6001915050919050565b600a5481565b60035481565b60008054906101000a900473ffffffffffffffffffffffffffffffffffffffff1681565b60075481565b3360011515600160008373ffffffffffffffffffffffffffffffffffffffff1673ffffffffffffffffffffffffffffffffffffffff16815260200190815260200160002060009054906101000a900460ff1615151461099c576040517f08c379a000000000000000000000000000000000000000000000000000000000815260040161099390611c81565b60405180910390fd5b8260045410156109e1576040517f08c379a00000000000000000000000000000000000000000000000000000000081526004016109d890611ced565b60405180910390fd5b60006040518060e0016040528060075481526020018681526020018581526020018473ffffffffffffffffffffffffffffffffffffffff1681526020016000815260200160095442610a3391906112e6565b815260200160001515815250905080600660006007548152602001908152602001600020600082015181600001556020820151816001019080519060200190610a7d92919061120a565b506040820151816002015560608201518160030160006101000a81548173ffffffffffffffffffffffffffffffffffffffff021916908373ffffffffffffffffffffffffffffffffffffffff1602179055506080820151816004015560a0820151816005015560c08201518160060160006101000a81548160ff0219169083151502179055509050508360046000828254610b189190611971565b9250508190555060076000815480929190610b3290611d0d565b91905055505050505050565b60016020528060005260406000206000915054906101000a900460ff1681565b3360011515600160008373ffffffffffffffffffffffffffffffffffffffff1673ffffffffffffffffffffffffffffffffffffffff16815260200190815260200160002060009054906101000a900460ff16151514610bf2576040517f08c379a0000000000000000000000000000000000000000000000000000000008152600401610be990611c81565b60405180910390fd5b60001515600860003373ffffffffffffffffffffffffffffffffffffffff1673ffffffffffffffffffffffffffffffffffffffff168152602001908152602001600020600084815260200190815260200160002060009054906101000a900460ff16151514610c96576040517f08c379a0000000000000000000000000000000000000000000000000000000008152600401610c8d90611da2565b60405180910390fd5b60066000838152602001908152602001600020600501544210610cee576040517f08c379a0000000000000000000000000000000000000000000000000000000008152600401610ce590611e0e565b60405180910390fd5b6001600860003373ffffffffffffffffffffffffffffffffffffffff1673ffffffffffffffffffffffffffffffffffffffff168152602001908152602001600020600084815260200190815260200160002060006101000a81548160ff021916908315150217905550600260003373ffffffffffffffffffffffffffffffffffffffff1673ffffffffffffffffffffffffffffffffffffffff16815260200190815260200160002054600660008481526020019081526020016000206004016000828254610dbc91906112e6565b925050819055505050565b80600260003373ffffffffffffffffffffffffffffffffffffffff1673ffffffffffffffffffffffffffffffffffffffff168152602001908152602001600020541015610e49576040517f08c379a0000000000000000000000000000000000000000000000000000000008152600401610e4090611951565b60405180910390fd5b806004541015610e8e576040517f08c379a0000000000000000000000000000000000000000000000000000000008152600401610e8590611e7a565b60405180910390fd5b80600260003373ffffffffffffffffffffffffffffffffffffffff1673ffffffffffffffffffffffffffffffffffffffff1681526020019081526020016000206000828254610edd9190611971565b925050819055508060046000828254610ef69190611971565b925050819055503373ffffffffffffffffffffffffffffffffffffffff166108fc829081150290604051600060405180830381858888f19350505050158015610f43573d6000803e3d6000fd5b5050565b60086020528160005260406000206020528060005260406000206000915091509054906101000a900460ff1681565b60008054906101000a900473ffffffffffffffffffffffffffffffffffffffff1673ffffffffffffffffffffffffffffffffffffffff163373ffffffffffffffffffffffffffffffffffffffff1614611004576040517f08c379a0000000000000000000000000000000000000000000000000000000008152600401610ffb90611a17565b60405180910390fd5b61100e8282611161565b5050565b60026020528060005260406000206000915090505481565b60055481565b60095481565b60045481565b6005544210611080576040517f08c379a000000000000000000000000000000000000000000000000000000000815260040161107790611ee6565b60405180910390fd5b60018060003373ffffffffffffffffffffffffffffffffffffffff1673ffffffffffffffffffffffffffffffffffffffff16815260200190815260200160002060006101000a81548160ff02191690831515021790555034600260003373ffffffffffffffffffffffffffffffffffffffff1673ffffffffffffffffffffffffffffffffffffffff168152602001908152602001600020600082825461112691906112e6565b92505081905550346003600082825461113f91906112e6565b92505081905550346004600082825461115891906112e6565b92505081905550565b6004548211156111a6576040517f08c379a000000000000000000000000000000000000000000000000000000000815260040161119d90611f52565b60405180910390fd5b81600460008282546111b89190611971565b925050819055508073ffffffffffffffffffffffffffffffffffffffff166108fc839081150290604051600060405180830381858888f19350505050158015611205573d6000803e3d6000fd5b505050565b828054611216906118ad565b90600052602060002090601f016020900481019282611238576000855561127f565b82601f1061125157805160ff191683800117855561127f565b8280016001018555821561127f579182015b8281111561127e578251825591602001919060010190611263565b5b50905061128c9190611290565b5090565b5b808211156112a9576000816000905550600101611291565b5090565b6000819050919050565b7f4e487b7100000000000000000000000000000000000000000000000000000000600052601160045260246000fd5b60006112f1826112ad565b91506112fc836112ad565b9250827fffffffffffffffffffffffffffffffffffffffffffffffffffffffffffffffff03821115611331576113306112b7565b5b828201905092915050565b6000604051905090565b600080fd5b600080fd5b611359816112ad565b811461136457600080fd5b50565b60008135905061137681611350565b92915050565b60006020828403121561139257611391611346565b5b60006113a084828501611367565b91505092915050565b6113b2816112ad565b82525050565b600081519050919050565b600082825260208201905092915050565b60005b838110156113f25780820151818401526020810190506113d7565b83811115611401576000848401525b50505050565b6000601f19601f8301169050919050565b6000611423826113b8565b61142d81856113c3565b935061143d8185602086016113d4565b61144681611407565b840191505092915050565b600073ffffffffffffffffffffffffffffffffffffffff82169050919050565b600061147c82611451565b9050919050565b61148c81611471565b82525050565b60008115159050919050565b6114a781611492565b82525050565b600060e0820190506114c2600083018a6113a9565b81810360208301526114d48189611418565b90506114e360408301886113a9565b6114f06060830187611483565b6114fd60808301866113a9565b61150a60a08301856113a9565b61151760c083018461149e565b98975050505050505050565b600061152e82611451565b9050919050565b61153e81611523565b811461154957600080fd5b50565b60008135905061155b81611535565b92915050565b6000806040838503121561157857611577611346565b5b600061158685828601611367565b92505060206115978582860161154c565b9150509250929050565b60006020820190506115b6600083018461149e565b92915050565b60006020820190506115d160008301846113a9565b92915050565b6115e081611523565b82525050565b60006020820190506115fb60008301846115d7565b92915050565b600080fd5b600080fd5b7f4e487b7100000000000000000000000000000000000000000000000000000000600052604160045260246000fd5b61164382611407565b810181811067ffffffffffffffff821117156116625761166161160b565b5b80604052505050565b600061167561133c565b9050611681828261163a565b919050565b600067ffffffffffffffff8211156116a1576116a061160b565b5b6116aa82611407565b9050602081019050919050565b82818337600083830152505050565b60006116d96116d484611686565b61166b565b9050828152602081018484840111156116f5576116f4611606565b5b6117008482856116b7565b509392505050565b600082601f83011261171d5761171c611601565b5b813561172d8482602086016116c6565b91505092915050565b61173f81611471565b811461174a57600080fd5b50565b60008135905061175c81611736565b92915050565b60008060006060848603121561177b5761177a611346565b5b600084013567ffffffffffffffff8111156117995761179861134b565b5b6117a586828701611708565b93505060206117b686828701611367565b92505060406117c78682870161174d565b9150509250925092565b6000602082840312156117e7576117e6611346565b5b60006117f58482850161154c565b91505092915050565b6000806040838503121561181557611814611346565b5b60006118238582860161154c565b925050602061183485828601611367565b9150509250929050565b6000806040838503121561185557611854611346565b5b600061186385828601611367565b92505060206118748582860161174d565b9150509250929050565b7f4e487b7100000000000000000000000000000000000000000000000000000000600052602260045260246000fd5b600060028204905060018216806118c557607f821691505b602082108114156118d9576118d861187e565b5b50919050565b7f4e6f2074686174206d7563682073686165727320696e20796f757220706f727460008201527f666f6c696f000000000000000000000000000000000000000000000000000000602082015250565b600061193b6025836113c3565b9150611946826118df565b604082019050919050565b6000602082019050818103600083015261196a8161192e565b9050919050565b600061197c826112ad565b9150611987836112ad565b92508282101561199a576119996112b7565b5b828203905092915050565b7f4f6e6c792061646d696e2063616e20706572666f726d20746869732066756e6360008201527f74696f6e00000000000000000000000000000000000000000000000000000000602082015250565b6000611a016024836113c3565b9150611a0c826119a5565b604082019050919050565b60006020820190508181036000830152611a30816119f4565b9050919050565b7f4e6f742042652065786563757465640000000000000000000000000000000000600082015250565b6000611a6d600f836113c3565b9150611a7882611a37565b602082019050919050565b60006020820190508181036000830152611a9c81611a60565b9050919050565b7f50726f706f73616c20616c726561647920657865637574656400000000000000600082015250565b6000611ad96019836113c3565b9150611ae482611aa3565b602082019050919050565b60006020820190508181036000830152611b0881611acc565b9050919050565b7f4e487b7100000000000000000000000000000000000000000000000000000000600052601260045260246000fd5b6000611b49826112ad565b9150611b54836112ad565b925082611b6457611b63611b0f565b5b828204905092915050565b6000611b7a826112ad565b9150611b85836112ad565b9250817fffffffffffffffffffffffffffffffffffffffffffffffffffffffffffffffff0483118215151615611bbe57611bbd6112b7565b5b828202905092915050565b7f436f6e646974696f6e2069732074727565200000000000000000000000000000600082015250565b6000611bff6012836113c3565b9150611c0a82611bc9565b602082019050919050565b60006020820190508181036000830152611c2e81611bf2565b9050919050565b7f596f7520617265206e6f7420616e20696e766573746f72000000000000000000600082015250565b6000611c6b6017836113c3565b9150611c7682611c35565b602082019050919050565b60006020820190508181036000830152611c9a81611c5e565b9050919050565b7f4e6f7420656e6f75676820736861726573000000000000000000000000000000600082015250565b6000611cd76011836113c3565b9150611ce282611ca1565b602082019050919050565b60006020820190508181036000830152611d0681611cca565b9050919050565b6000611d18826112ad565b91507fffffffffffffffffffffffffffffffffffffffffffffffffffffffffffffffff821415611d4b57611d4a6112b7565b5b600182019050919050565b7f596f752063616e6e6f7420766f746520646f75626c652074696d652000000000600082015250565b6000611d8c601c836113c3565b9150611d9782611d56565b602082019050919050565b60006020820190508181036000830152611dbb81611d7f565b9050919050565b7f50726f706f73616c2069732020656e6400000000000000000000000000000000600082015250565b6000611df86010836113c3565b9150611e0382611dc2565b602082019050919050565b60006020820190508181036000830152611e2781611deb565b9050919050565b7f4e6f7420417661696c61626c6520000000000000000000000000000000000000600082015250565b6000611e64600e836113c3565b9150611e6f82611e2e565b602082019050919050565b60006020820190508181036000830152611e9381611e57565b9050919050565b7f54696d65204973206f7665720000000000000000000000000000000000000000600082015250565b6000611ed0600c836113c3565b9150611edb82611e9a565b602082019050919050565b60006020820190508181036000830152611eff81611ec3565b9050919050565b7f4e6f7420456e6f7567682042616c616e63650000000000000000000000000000600082015250565b6000611f3c6012836113c3565b9150611f4782611f06565b602082019050919050565b60006020820190508181036000830152611f6b81611f2f565b905091905056fea2646970667358221220af265cd7bf79df23ea3710871f67b44de8cd02aff741118eb143444bc151ac6f64736f6c634300080b0033",
  "immutableReferences": {},
  "source": "// SPDX-License-Identifier: MIT\r\npragma solidity ^0.8.11;\r\n\r\ncontract DAO{\r\n\r\n    address public manager;\r\n    mapping(address=>bool) public investors;\r\n    mapping(address=>uint) public shares;\r\n    uint public totalShares;\r\n    uint public remainingShares;\r\n    uint public contributionEnd;\r\n    //create Investment proposal \r\n    struct Proposal{\r\n        uint id;\r\n        string name;\r\n        uint amount;\r\n        address payable to;\r\n        uint votes;\r\n        uint end;\r\n        bool executed;\r\n    }\r\n\r\n    mapping(uint=>Proposal) public proposals;\r\n    uint public nextId;\r\n    mapping(address=>mapping(uint=>bool)) public votes;\r\n    uint public votesTime;\r\n    uint public quorum;\r\n    \r\n\r\n    constructor(uint contributeTime,uint _voteTime,uint _quorum){\r\n        require(_quorum>0 && _quorum<100 ,\"Please enter valid Quorum\");\r\n        manager=msg.sender;\r\n        contributionEnd=contributeTime+block.timestamp;\r\n        votesTime=_voteTime;\r\n        quorum=_quorum;\r\n    } \r\n\r\n    // Contribute Shares \r\n    function contribute() payable external {\r\n        require(block.timestamp<contributionEnd,\"Time Is over\");\r\n        investors[msg.sender]=true;\r\n        shares[msg.sender]+=msg.value;\r\n        totalShares+=msg.value;\r\n        remainingShares+=msg.value;\r\n    }\r\n\r\n    //Reedeming Shares\r\n    function redeemShare(uint amount) external {\r\n        \r\n         require(shares[msg.sender]>=amount,\"No that much shaers in your portfolio\");\r\n         require(remainingShares>=amount,\"Not Available \");\r\n         shares[msg.sender]-=amount;\r\n         remainingShares-=amount;\r\n         payable(msg.sender).transfer(amount);\r\n         \r\n    }\r\n\r\n    function transferShare(uint amount,address to) external {\r\n        require(shares[msg.sender]>=amount,\"No that much shaers in your portfolio\");\r\n        shares[msg.sender]-=amount;\r\n        shares[to]+=amount;\r\n        investors[to]=true;\r\n\r\n    }\r\n\r\n    \r\n\r\n    function createProposal(string memory name ,uint amount, address payable to) external onlyInvestor(msg.sender) {\r\n        require(remainingShares>=amount,\"Not enough shares\");\r\n        Proposal memory newProposal = Proposal({\r\n            id:nextId,\r\n            name:name,\r\n            amount:amount,\r\n            to:to,\r\n            votes:0,\r\n            end:block.timestamp+votesTime,\r\n            executed:false\r\n\r\n        });\r\n\r\n        proposals[nextId]=newProposal;\r\n        remainingShares-=amount;\r\n        nextId++;\r\n    }\r\n\r\n    function voteProposal(uint id) external onlyInvestor(msg.sender)  {\r\n       \r\n        require(votes[msg.sender][id]==false,\"You cannot vote double time \");\r\n        require(block.timestamp<proposals[id].end,\"Proposal is  end\");\r\n        votes[msg.sender][id]=true;\r\n        proposals[id].votes+=shares[msg.sender];\r\n    }\r\n   \r\n\r\n    //successfull investment prposal\r\n   function executeProposal(uint id) external onlyAdmin() returns(bool){\r\n       Proposal storage newProposal= proposals[id];\r\n       require(block.timestamp>=newProposal.end,\"Not Be executed\");\r\n       require(newProposal.executed==false,\"Proposal already executed\");\r\n       require(100*(newProposal.votes/totalShares)>=quorum,\"Condition is true \" );\r\n\r\n       _transferEther(newProposal.amount,newProposal.to);\r\n       return true;\r\n   }\r\n\r\n   function withdrawEther(uint amount,address payable to) external onlyAdmin() {\r\n       _transferEther(amount,to);\r\n   }\r\n\r\n   function _transferEther(uint amount,address payable to) internal  {\r\n       require(amount<=remainingShares,\"Not Enough Balance\");\r\n         remainingShares-=amount;\r\n         to.transfer(amount);\r\n   }\r\n\r\n    receive() payable external {\r\n        remainingShares+=msg.value;\r\n    }\r\n\r\n    //Modifiers\r\n    modifier onlyInvestor(address x){\r\n        require(investors[x]==true,\"You are not an investor\");\r\n        _;\r\n    }\r\n    modifier onlyAdmin(){\r\n        require(msg.sender==manager,\"Only admin can perform this function\");\r\n        _; \r\n    }\r\n}",
  "sourcePath": "C:\\Users\\HP\\Desktop\\Web3 Js\\Dapps-Factory-Nikku876\\Day-14-DAO\\contracts\\DAO.sol",
  "compiler": {
    "name": "solc",
    "version": "0.8.11+commit.d7f03943.Emscripten.clang"
  },
  "schemaVersion": "3.4.4",
  "updatedAt": "2022-03-17T15:40:31.718Z",
  "networkType": "ethereum",
  "devdoc": {
    "kind": "dev",
    "methods": {},
    "version": 1
  },
  "userdoc": {
    "kind": "user",
    "methods": {},
    "version": 1
  }
}