{
  "contractName": "Airbnb",
  "abi": [
    {
      "anonymous": false,
      "inputs": [
        {
          "indexed": true,
          "internalType": "uint256",
          "name": "propertyId",
          "type": "uint256"
        },
        {
          "indexed": true,
          "internalType": "uint256",
          "name": "bookingId",
          "type": "uint256"
        }
      ],
      "name": "NewBooking",
      "type": "event"
    },
    {
      "anonymous": false,
      "inputs": [
        {
          "indexed": true,
          "internalType": "uint256",
          "name": "propertyId",
          "type": "uint256"
        }
      ],
      "name": "NewProperty",
      "type": "event"
    },
    {
      "inputs": [],
      "name": "bookingId",
      "outputs": [
        {
          "internalType": "uint256",
          "name": "",
          "type": "uint256"
        }
      ],
      "stateMutability": "view",
      "type": "function",
      "constant": true
    },
    {
      "inputs": [
        {
          "internalType": "uint256",
          "name": "",
          "type": "uint256"
        }
      ],
      "name": "bookings",
      "outputs": [
        {
          "internalType": "uint256",
          "name": "id",
          "type": "uint256"
        },
        {
          "internalType": "uint256",
          "name": "propertyId",
          "type": "uint256"
        },
        {
          "internalType": "uint256",
          "name": "checkIn",
          "type": "uint256"
        },
        {
          "internalType": "uint256",
          "name": "checkOut",
          "type": "uint256"
        }
      ],
      "stateMutability": "view",
      "type": "function",
      "constant": true
    },
    {
      "inputs": [
        {
          "internalType": "uint256",
          "name": "",
          "type": "uint256"
        }
      ],
      "name": "properties",
      "outputs": [
        {
          "internalType": "uint256",
          "name": "id",
          "type": "uint256"
        },
        {
          "internalType": "uint256",
          "name": "price",
          "type": "uint256"
        },
        {
          "internalType": "address",
          "name": "owner",
          "type": "address"
        },
        {
          "internalType": "string",
          "name": "name",
          "type": "string"
        },
        {
          "internalType": "string",
          "name": "desc",
          "type": "string"
        },
        {
          "internalType": "bool",
          "name": "isActive",
          "type": "bool"
        },
        {
          "internalType": "uint256",
          "name": "date",
          "type": "uint256"
        }
      ],
      "stateMutability": "view",
      "type": "function",
      "constant": true
    },
    {
      "inputs": [],
      "name": "propertyId",
      "outputs": [
        {
          "internalType": "uint256",
          "name": "",
          "type": "uint256"
        }
      ],
      "stateMutability": "view",
      "type": "function",
      "constant": true
    },
    {
      "inputs": [
        {
          "internalType": "string",
          "name": "name",
          "type": "string"
        },
        {
          "internalType": "string",
          "name": "description",
          "type": "string"
        },
        {
          "internalType": "uint256",
          "name": "price",
          "type": "uint256"
        }
      ],
      "name": "rentOutproperty",
      "outputs": [],
      "stateMutability": "nonpayable",
      "type": "function"
    },
    {
      "inputs": [
        {
          "internalType": "uint256",
          "name": "_propertyId",
          "type": "uint256"
        },
        {
          "internalType": "uint256",
          "name": "checkInDate",
          "type": "uint256"
        },
        {
          "internalType": "uint256",
          "name": "checkoutDate",
          "type": "uint256"
        }
      ],
      "name": "rentProperty",
      "outputs": [],
      "stateMutability": "payable",
      "type": "function",
      "payable": true
    },
    {
      "inputs": [
        {
          "internalType": "uint256",
          "name": "_propertyId",
          "type": "uint256"
        }
      ],
      "name": "markPropertyAsInactive",
      "outputs": [],
      "stateMutability": "nonpayable",
      "type": "function"
    }
  ],
  "bytecode": "0x608060405234801561001057600080fd5b50611132806100206000396000f3fe6080604052600436106100705760003560e01c8063b3e3f8031161004e578063b3e3f80314610109578063d2da7c7114610132578063ee7a3b8e1461014e578063f7b108081461017957610070565b80630a10df7c146100755780631dab301e146100a05780632c56ed27146100e0575b600080fd5b34801561008157600080fd5b5061008a6101bc565b604051610097919061090d565b60405180910390f35b3480156100ac57600080fd5b506100c760048036038101906100c29190610968565b6101c2565b6040516100d79493929190610995565b60405180910390f35b3480156100ec57600080fd5b5061010760048036038101906101029190610b20565b6101f2565b005b34801561011557600080fd5b50610130600480360381019061012b9190610968565b610361565b005b61014c60048036038101906101479190610bab565b610437565b005b34801561015a57600080fd5b506101636105ac565b604051610170919061090d565b60405180910390f35b34801561018557600080fd5b506101a0600480360381019061019b9190610968565b6105b2565b6040516101b39796959493929190610ce2565b60405180910390f35b60025481565b60036020528060005260406000206000915090508060000154908060010154908060020154908060030154905084565b6040518060e0016040528060005481526020018281526020013373ffffffffffffffffffffffffffffffffffffffff168152602001848152602001838152602001600115158152602001428152506001600080548152602001908152602001600020600082015181600001556020820151816001015560408201518160020160006101000a81548173ffffffffffffffffffffffffffffffffffffffff021916908373ffffffffffffffffffffffffffffffffffffffff16021790555060608201518160030190805190602001906102cb929190610851565b5060808201518160040190805190602001906102e8929190610851565b5060a08201518160050160006101000a81548160ff02191690831515021790555060c082015181600601559050506000547f49b7a39e21349b16cf820bbd35d2bc2d9f04dac75faa535510fc24d172b34afd60405160405180910390a260008081548092919061035790610d8e565b9190505550505050565b3373ffffffffffffffffffffffffffffffffffffffff166001600083815260200190815260200160002060020160009054906101000a900473ffffffffffffffffffffffffffffffffffffffff1673ffffffffffffffffffffffffffffffffffffffff1614610405576040517f08c379a00000000000000000000000000000000000000000000000000000000081526004016103fc90610e23565b60405180910390fd5b60006001600083815260200190815260200160002060050160006101000a81548160ff02191690831515021790555050565b6000600160008581526020019081526020016000209050600115158160050160009054906101000a900460ff161515146104a6576040517f08c379a000000000000000000000000000000000000000000000000000000000815260040161049d90610e8f565b60405180910390fd5b828160060154101580156104be575081816006015411155b6104fd576040517f08c379a00000000000000000000000000000000000000000000000000000000081526004016104f490610f21565b60405180910390fd5b600062015180848461050f9190610f41565b6105199190610fa4565b905080826001015461052b9190610fd5565b341461056c576040517f08c379a00000000000000000000000000000000000000000000000000000000081526004016105639061107b565b60405180910390fd5b61059a8260020160009054906101000a900473ffffffffffffffffffffffffffffffffffffffff1634610731565b6105a585858561077c565b5050505050565b60005481565b60016020528060005260406000206000915090508060000154908060010154908060020160009054906101000a900473ffffffffffffffffffffffffffffffffffffffff1690806003018054610607906110ca565b80601f0160208091040260200160405190810160405280929190818152602001828054610633906110ca565b80156106805780601f1061065557610100808354040283529160200191610680565b820191906000526020600020905b81548152906001019060200180831161066357829003601f168201915b505050505090806004018054610695906110ca565b80601f01602080910402602001604051908101604052809291908181526020018280546106c1906110ca565b801561070e5780601f106106e35761010080835404028352916020019161070e565b820191906000526020600020905b8154815290600101906020018083116106f157829003601f168201915b5050505050908060050160009054906101000a900460ff16908060060154905087565b8173ffffffffffffffffffffffffffffffffffffffff166108fc829081150290604051600060405180830381858888f19350505050158015610777573d6000803e3d6000fd5b505050565b60405180608001604052806002548152602001848152602001838152602001828152506003600060025481526020019081526020016000206000820151816000015560208201518160010155604082015181600201556060820151816003015590505060006001600085815260200190815260200160002090506108038160000154610361565b600254847f4f65de66b4cd3e97fb943ca503efa62b328170ad1a0aac0e9c979a164a317b3860405160405180910390a36002600081548092919061084690610d8e565b919050555050505050565b82805461085d906110ca565b90600052602060002090601f01602090048101928261087f57600085556108c6565b82601f1061089857805160ff19168380011785556108c6565b828001600101855582156108c6579182015b828111156108c55782518255916020019190600101906108aa565b5b5090506108d391906108d7565b5090565b5b808211156108f05760008160009055506001016108d8565b5090565b6000819050919050565b610907816108f4565b82525050565b600060208201905061092260008301846108fe565b92915050565b6000604051905090565b600080fd5b600080fd5b610945816108f4565b811461095057600080fd5b50565b6000813590506109628161093c565b92915050565b60006020828403121561097e5761097d610932565b5b600061098c84828501610953565b91505092915050565b60006080820190506109aa60008301876108fe565b6109b760208301866108fe565b6109c460408301856108fe565b6109d160608301846108fe565b95945050505050565b600080fd5b600080fd5b6000601f19601f8301169050919050565b7f4e487b7100000000000000000000000000000000000000000000000000000000600052604160045260246000fd5b610a2d826109e4565b810181811067ffffffffffffffff82111715610a4c57610a4b6109f5565b5b80604052505050565b6000610a5f610928565b9050610a6b8282610a24565b919050565b600067ffffffffffffffff821115610a8b57610a8a6109f5565b5b610a94826109e4565b9050602081019050919050565b82818337600083830152505050565b6000610ac3610abe84610a70565b610a55565b905082815260208101848484011115610adf57610ade6109df565b5b610aea848285610aa1565b509392505050565b600082601f830112610b0757610b066109da565b5b8135610b17848260208601610ab0565b91505092915050565b600080600060608486031215610b3957610b38610932565b5b600084013567ffffffffffffffff811115610b5757610b56610937565b5b610b6386828701610af2565b935050602084013567ffffffffffffffff811115610b8457610b83610937565b5b610b9086828701610af2565b9250506040610ba186828701610953565b9150509250925092565b600080600060608486031215610bc457610bc3610932565b5b6000610bd286828701610953565b9350506020610be386828701610953565b9250506040610bf486828701610953565b9150509250925092565b600073ffffffffffffffffffffffffffffffffffffffff82169050919050565b6000610c2982610bfe565b9050919050565b610c3981610c1e565b82525050565b600081519050919050565b600082825260208201905092915050565b60005b83811015610c79578082015181840152602081019050610c5e565b83811115610c88576000848401525b50505050565b6000610c9982610c3f565b610ca38185610c4a565b9350610cb3818560208601610c5b565b610cbc816109e4565b840191505092915050565b60008115159050919050565b610cdc81610cc7565b82525050565b600060e082019050610cf7600083018a6108fe565b610d0460208301896108fe565b610d116040830188610c30565b8181036060830152610d238187610c8e565b90508181036080830152610d378186610c8e565b9050610d4660a0830185610cd3565b610d5360c08301846108fe565b98975050505050505050565b7f4e487b7100000000000000000000000000000000000000000000000000000000600052601160045260246000fd5b6000610d99826108f4565b91507fffffffffffffffffffffffffffffffffffffffffffffffffffffffffffffffff821415610dcc57610dcb610d5f565b5b600182019050919050565b7f54484953204953204e4f5420594f55522050524f504552545900000000000000600082015250565b6000610e0d601983610c4a565b9150610e1882610dd7565b602082019050919050565b60006020820190508181036000830152610e3c81610e00565b9050919050565b7f4e6f74204163746976652050726f706572747920666f722072656e7400000000600082015250565b6000610e79601c83610c4a565b9150610e8482610e43565b602082019050919050565b60006020820190508181036000830152610ea881610e6c565b9050919050565b7f70726f7065727479206973206e6f7420617661696c61626c6520666f7220746860008201527f6520646174657300000000000000000000000000000000000000000000000000602082015250565b6000610f0b602783610c4a565b9150610f1682610eaf565b604082019050919050565b60006020820190508181036000830152610f3a81610efe565b9050919050565b6000610f4c826108f4565b9150610f57836108f4565b925082821015610f6a57610f69610d5f565b5b828203905092915050565b7f4e487b7100000000000000000000000000000000000000000000000000000000600052601260045260246000fd5b6000610faf826108f4565b9150610fba836108f4565b925082610fca57610fc9610f75565b5b828204905092915050565b6000610fe0826108f4565b9150610feb836108f4565b9250817fffffffffffffffffffffffffffffffffffffffffffffffffffffffffffffffff048311821515161561102457611023610d5f565b5b828202905092915050565b7f416d6f756e74206973206e6f74205375697461626c6500000000000000000000600082015250565b6000611065601683610c4a565b91506110708261102f565b602082019050919050565b6000602082019050818103600083015261109481611058565b9050919050565b7f4e487b7100000000000000000000000000000000000000000000000000000000600052602260045260246000fd5b600060028204905060018216806110e257607f821691505b602082108114156110f6576110f561109b565b5b5091905056fea26469706673582212208cd73e60545965c255c914fabde6a820e2374a6e31b908279e1d80a79447b2c164736f6c634300080b0033",
  "immutableReferences": {},
  "source": "// SPDX-License-Identifier: MIT\r\npragma solidity ^0.8.11;\r\ncontract Airbnb {\r\n  // INSERT struct Property\r\n  struct Property{\r\n      uint id;\r\n      uint price;\r\n      address owner;\r\n      string name;\r\n      string desc;\r\n      bool isActive;\r\n      uint date;\r\n\r\n  }\r\n  \r\n\r\n  // Unique and sequential propertyId for every new property\r\n  uint256 public propertyId;\r\n\r\n  // mapping of propertyId to Property object\r\n  mapping(uint256 => Property) public properties;\r\n\r\n  // INSERT struct Booking\r\n  struct Booking{\r\n      uint id;\r\n      uint propertyId;\r\n      uint checkIn;\r\n      uint checkOut;\r\n\r\n  }\r\n\r\n  uint256 public bookingId;\r\n\r\n  // mapping of bookingId to Booking object\r\n  mapping(uint256 => Booking) public bookings;\r\n\r\n  // This event is emitted when a new property is put up for sale\r\n  event NewProperty (\r\n    uint256 indexed propertyId\r\n  );\r\n\r\n  // This event is emitted when a NewBooking is made\r\n  event NewBooking (\r\n    uint256 indexed propertyId,\r\n    uint256 indexed bookingId\r\n  );\r\n\r\n  /**\r\n    * @dev Put up your funky space on the market\r\n    * @param name Name of the property\r\n    * @param description Short description of your property\r\n    * @param price Price per day in wei (1 ether = 10^18 wei)\r\n    */\r\n  function rentOutproperty(string memory name, string memory description, uint256 price) public {\r\n    // create a property object\r\n\r\n    // Persist `property` object to the \"permanent\" storage\r\n    properties[propertyId]= Property(propertyId,price,msg.sender,name,description,true,block.timestamp);\r\n\r\n    // emit an event to notify the clients\r\n    emit NewProperty(propertyId);\r\n    propertyId++;\r\n  }\r\n\r\n  /**\r\n   * @dev Make an Airbnb booking\r\n   * @param _propertyId id of the property to rent out\r\n   * @param checkInDate Check-in date\r\n   * @param checkoutDate Check-out date\r\n   */\r\n  function rentProperty(uint256 _propertyId, uint256 checkInDate, uint256 checkoutDate) public payable {\r\n    // Retrieve `property` object from the storage\r\n    Property storage property= properties[_propertyId]; \r\n    // Assert that property is active\r\n    require(property.isActive==true,\"Not Active Property for rent\");\r\n\r\n    // Assert that property is available for the dates\r\n    require(property.date>=checkInDate && property.date<= checkoutDate ,\"property is not available for the dates\");\r\n    // Check the customer has sent an amount equal to (pricePerDay * numberOfDays)\r\n    uint numberOfDays= (checkoutDate-checkInDate)/(24*60*60);\r\n    require(msg.value==(property.price * numberOfDays),\"Amount is not Suitable\");\r\n\r\n    // send funds to the owner of the property\r\n    _sendFunds(property.owner, msg.value);\r\n\r\n    // conditions for a booking are satisfied, so make the booking\r\n    _createBooking(_propertyId, checkInDate, checkoutDate);\r\n  }\r\n\r\n  function _sendFunds (address beneficiary, uint256 value) internal {\r\n    // address(uint160()) is a weird solidity quirk\r\n    // Read more here: https://solidity.readthedocs.io/en/v0.5.10/050-breaking-changes.html?highlight=address%20payable#explicitness-requirements\r\n    payable(beneficiary).transfer(value);\r\n  }\r\n\r\n  function _createBooking(uint256 _propertyId, uint256 checkInDate, uint256 checkoutDate) internal {\r\n    // Create a new booking object\r\n\r\n    // persist to storage\r\n    bookings[bookingId]=Booking(bookingId,_propertyId,checkInDate,checkoutDate);\r\n    // Retrieve `property` object from the storage\r\n    Property storage property= properties[_propertyId]; \r\n\r\n    // Mark the property booked on the requested dates\r\n    markPropertyAsInactive(property.id);\r\n\r\n    // Emit an event to notify clients\r\n    emit NewBooking(_propertyId,bookingId);\r\n    bookingId++;\r\n  }\r\n\r\n  /**\r\n   * @dev Take down the property from the market\r\n   * @param _propertyId Property ID\r\n   */\r\n  function markPropertyAsInactive(uint256 _propertyId) public {\r\n    require(\r\n      properties[_propertyId].owner == msg.sender,\r\n      \"THIS IS NOT YOUR PROPERTY\"\r\n    );\r\n    properties[_propertyId].isActive = false;\r\n  }\r\n}",
  "sourcePath": "C:\\Users\\HP\\Desktop\\Web3 Js\\Dapps-Factory-Nikku876\\Airbnb Decentralised\\contracts\\Airbnb.sol",
  "compiler": {
    "name": "solc",
    "version": "0.8.11+commit.d7f03943.Emscripten.clang"
  },
  "schemaVersion": "3.4.4",
  "updatedAt": "2022-03-25T07:22:07.048Z",
  "networkType": "ethereum",
  "devdoc": {
    "kind": "dev",
    "methods": {
      "markPropertyAsInactive(uint256)": {
        "details": "Take down the property from the market",
        "params": {
          "_propertyId": "Property ID"
        }
      },
      "rentOutproperty(string,string,uint256)": {
        "details": "Put up your funky space on the market",
        "params": {
          "description": "Short description of your property",
          "name": "Name of the property",
          "price": "Price per day in wei (1 ether = 10^18 wei)"
        }
      },
      "rentProperty(uint256,uint256,uint256)": {
        "details": "Make an Airbnb booking",
        "params": {
          "_propertyId": "id of the property to rent out",
          "checkInDate": "Check-in date",
          "checkoutDate": "Check-out date"
        }
      }
    },
    "version": 1
  },
  "userdoc": {
    "kind": "user",
    "methods": {},
    "version": 1
  }
}