{
  "contractName": "Domains",
  "abi": [
    {
      "inputs": [
        {
          "internalType": "string",
          "name": "_tld",
          "type": "string"
        }
      ],
      "stateMutability": "payable",
      "type": "constructor",
      "payable": true
    },
    {
      "anonymous": false,
      "inputs": [
        {
          "indexed": true,
          "internalType": "address",
          "name": "owner",
          "type": "address"
        },
        {
          "indexed": true,
          "internalType": "address",
          "name": "approved",
          "type": "address"
        },
        {
          "indexed": true,
          "internalType": "uint256",
          "name": "tokenId",
          "type": "uint256"
        }
      ],
      "name": "Approval",
      "type": "event"
    },
    {
      "anonymous": false,
      "inputs": [
        {
          "indexed": true,
          "internalType": "address",
          "name": "owner",
          "type": "address"
        },
        {
          "indexed": true,
          "internalType": "address",
          "name": "operator",
          "type": "address"
        },
        {
          "indexed": false,
          "internalType": "bool",
          "name": "approved",
          "type": "bool"
        }
      ],
      "name": "ApprovalForAll",
      "type": "event"
    },
    {
      "anonymous": false,
      "inputs": [
        {
          "indexed": true,
          "internalType": "address",
          "name": "from",
          "type": "address"
        },
        {
          "indexed": true,
          "internalType": "address",
          "name": "to",
          "type": "address"
        },
        {
          "indexed": true,
          "internalType": "uint256",
          "name": "tokenId",
          "type": "uint256"
        }
      ],
      "name": "Transfer",
      "type": "event"
    },
    {
      "inputs": [],
      "name": "admin",
      "outputs": [
        {
          "internalType": "address",
          "name": "",
          "type": "address"
        }
      ],
      "stateMutability": "view",
      "type": "function",
      "constant": true
    },
    {
      "inputs": [
        {
          "internalType": "address",
          "name": "to",
          "type": "address"
        },
        {
          "internalType": "uint256",
          "name": "tokenId",
          "type": "uint256"
        }
      ],
      "name": "approve",
      "outputs": [],
      "stateMutability": "nonpayable",
      "type": "function"
    },
    {
      "inputs": [
        {
          "internalType": "address",
          "name": "owner",
          "type": "address"
        }
      ],
      "name": "balanceOf",
      "outputs": [
        {
          "internalType": "uint256",
          "name": "",
          "type": "uint256"
        }
      ],
      "stateMutability": "view",
      "type": "function",
      "constant": true
    },
    {
      "inputs": [
        {
          "internalType": "string",
          "name": "",
          "type": "string"
        }
      ],
      "name": "domains",
      "outputs": [
        {
          "internalType": "address",
          "name": "",
          "type": "address"
        }
      ],
      "stateMutability": "view",
      "type": "function",
      "constant": true
    },
    {
      "inputs": [
        {
          "internalType": "uint256",
          "name": "tokenId",
          "type": "uint256"
        }
      ],
      "name": "getApproved",
      "outputs": [
        {
          "internalType": "address",
          "name": "",
          "type": "address"
        }
      ],
      "stateMutability": "view",
      "type": "function",
      "constant": true
    },
    {
      "inputs": [
        {
          "internalType": "address",
          "name": "owner",
          "type": "address"
        },
        {
          "internalType": "address",
          "name": "operator",
          "type": "address"
        }
      ],
      "name": "isApprovedForAll",
      "outputs": [
        {
          "internalType": "bool",
          "name": "",
          "type": "bool"
        }
      ],
      "stateMutability": "view",
      "type": "function",
      "constant": true
    },
    {
      "inputs": [],
      "name": "name",
      "outputs": [
        {
          "internalType": "string",
          "name": "",
          "type": "string"
        }
      ],
      "stateMutability": "view",
      "type": "function",
      "constant": true
    },
    {
      "inputs": [
        {
          "internalType": "uint256",
          "name": "tokenId",
          "type": "uint256"
        }
      ],
      "name": "ownerOf",
      "outputs": [
        {
          "internalType": "address",
          "name": "",
          "type": "address"
        }
      ],
      "stateMutability": "view",
      "type": "function",
      "constant": true
    },
    {
      "inputs": [
        {
          "internalType": "string",
          "name": "",
          "type": "string"
        }
      ],
      "name": "records",
      "outputs": [
        {
          "internalType": "string",
          "name": "",
          "type": "string"
        }
      ],
      "stateMutability": "view",
      "type": "function",
      "constant": true
    },
    {
      "inputs": [
        {
          "internalType": "address",
          "name": "from",
          "type": "address"
        },
        {
          "internalType": "address",
          "name": "to",
          "type": "address"
        },
        {
          "internalType": "uint256",
          "name": "tokenId",
          "type": "uint256"
        }
      ],
      "name": "safeTransferFrom",
      "outputs": [],
      "stateMutability": "nonpayable",
      "type": "function"
    },
    {
      "inputs": [
        {
          "internalType": "address",
          "name": "from",
          "type": "address"
        },
        {
          "internalType": "address",
          "name": "to",
          "type": "address"
        },
        {
          "internalType": "uint256",
          "name": "tokenId",
          "type": "uint256"
        },
        {
          "internalType": "bytes",
          "name": "_data",
          "type": "bytes"
        }
      ],
      "name": "safeTransferFrom",
      "outputs": [],
      "stateMutability": "nonpayable",
      "type": "function"
    },
    {
      "inputs": [
        {
          "internalType": "address",
          "name": "operator",
          "type": "address"
        },
        {
          "internalType": "bool",
          "name": "approved",
          "type": "bool"
        }
      ],
      "name": "setApprovalForAll",
      "outputs": [],
      "stateMutability": "nonpayable",
      "type": "function"
    },
    {
      "inputs": [
        {
          "internalType": "bytes4",
          "name": "interfaceId",
          "type": "bytes4"
        }
      ],
      "name": "supportsInterface",
      "outputs": [
        {
          "internalType": "bool",
          "name": "",
          "type": "bool"
        }
      ],
      "stateMutability": "view",
      "type": "function",
      "constant": true
    },
    {
      "inputs": [],
      "name": "symbol",
      "outputs": [
        {
          "internalType": "string",
          "name": "",
          "type": "string"
        }
      ],
      "stateMutability": "view",
      "type": "function",
      "constant": true
    },
    {
      "inputs": [],
      "name": "tld",
      "outputs": [
        {
          "internalType": "string",
          "name": "",
          "type": "string"
        }
      ],
      "stateMutability": "view",
      "type": "function",
      "constant": true
    },
    {
      "inputs": [
        {
          "internalType": "uint256",
          "name": "tokenId",
          "type": "uint256"
        }
      ],
      "name": "tokenURI",
      "outputs": [
        {
          "internalType": "string",
          "name": "",
          "type": "string"
        }
      ],
      "stateMutability": "view",
      "type": "function",
      "constant": true
    },
    {
      "inputs": [
        {
          "internalType": "address",
          "name": "from",
          "type": "address"
        },
        {
          "internalType": "address",
          "name": "to",
          "type": "address"
        },
        {
          "internalType": "uint256",
          "name": "tokenId",
          "type": "uint256"
        }
      ],
      "name": "transferFrom",
      "outputs": [],
      "stateMutability": "nonpayable",
      "type": "function"
    },
    {
      "inputs": [],
      "name": "uri",
      "outputs": [
        {
          "internalType": "string",
          "name": "",
          "type": "string"
        }
      ],
      "stateMutability": "view",
      "type": "function",
      "constant": true
    },
    {
      "inputs": [
        {
          "internalType": "string",
          "name": "_name",
          "type": "string"
        }
      ],
      "name": "calcPrice",
      "outputs": [
        {
          "internalType": "uint256",
          "name": "",
          "type": "uint256"
        }
      ],
      "stateMutability": "pure",
      "type": "function",
      "constant": true
    },
    {
      "inputs": [
        {
          "internalType": "string",
          "name": "_name",
          "type": "string"
        }
      ],
      "name": "register",
      "outputs": [],
      "stateMutability": "payable",
      "type": "function",
      "payable": true
    },
    {
      "inputs": [
        {
          "internalType": "string",
          "name": "_name",
          "type": "string"
        }
      ],
      "name": "getDomainAddress",
      "outputs": [
        {
          "internalType": "address",
          "name": "",
          "type": "address"
        }
      ],
      "stateMutability": "view",
      "type": "function",
      "constant": true
    },
    {
      "inputs": [
        {
          "internalType": "string",
          "name": "_name",
          "type": "string"
        },
        {
          "internalType": "string",
          "name": "_record",
          "type": "string"
        }
      ],
      "name": "setRecord",
      "outputs": [],
      "stateMutability": "nonpayable",
      "type": "function"
    },
    {
      "inputs": [
        {
          "internalType": "string",
          "name": "_name",
          "type": "string"
        }
      ],
      "name": "getRecord",
      "outputs": [
        {
          "internalType": "string",
          "name": "",
          "type": "string"
        }
      ],
      "stateMutability": "view",
      "type": "function",
      "constant": true
    }
  ],
  "bytecode": "0x6080604052604051806080016040528060528152602001620046c2605291396009908051906020019062000035929190620001aa565b506040518060400160405280600d81526020017f3c2f746578743e3c2f7376673e00000000000000000000000000000000000000815250600a908051906020019062000083929190620001aa565b5060405162004714380380620047148339818101604052810190620000a99190620003f7565b6040518060400160405280601281526020017f4e696e6a61204e616d65205365727669636500000000000000000000000000008152506040518060400160405280600381526020017f4e4e53000000000000000000000000000000000000000000000000000000000081525081600090805190602001906200012d929190620001aa565b50806001908051906020019062000146929190620001aa565b50505080600c908051906020019062000161929190620001aa565b5033600b60006101000a81548173ffffffffffffffffffffffffffffffffffffffff021916908373ffffffffffffffffffffffffffffffffffffffff16021790555050620004ad565b828054620001b89062000477565b90600052602060002090601f016020900481019282620001dc576000855562000228565b82601f10620001f757805160ff191683800117855562000228565b8280016001018555821562000228579182015b82811115620002275782518255916020019190600101906200020a565b5b5090506200023791906200023b565b5090565b5b80821115620002565760008160009055506001016200023c565b5090565b6000604051905090565b600080fd5b600080fd5b600080fd5b600080fd5b6000601f19601f8301169050919050565b7f4e487b7100000000000000000000000000000000000000000000000000000000600052604160045260246000fd5b620002c38262000278565b810181811067ffffffffffffffff82111715620002e557620002e462000289565b5b80604052505050565b6000620002fa6200025a565b9050620003088282620002b8565b919050565b600067ffffffffffffffff8211156200032b576200032a62000289565b5b620003368262000278565b9050602081019050919050565b60005b838110156200036357808201518184015260208101905062000346565b8381111562000373576000848401525b50505050565b6000620003906200038a846200030d565b620002ee565b905082815260208101848484011115620003af57620003ae62000273565b5b620003bc84828562000343565b509392505050565b600082601f830112620003dc57620003db6200026e565b5b8151620003ee84826020860162000379565b91505092915050565b60006020828403121562000410576200040f62000264565b5b600082015167ffffffffffffffff81111562000431576200043062000269565b5b6200043f84828501620003c4565b91505092915050565b7f4e487b7100000000000000000000000000000000000000000000000000000000600052602260045260246000fd5b600060028204905060018216806200049057607f821691505b60208210811415620004a757620004a662000448565b5b50919050565b61420580620004bd6000396000f3fe6080604052600436106101405760003560e01c80636352211e116100b6578063c1880a981161006f578063c1880a98146104b8578063c87b56dd146104e1578063e985e9c51461051e578063eac989f81461055b578063f2c298be14610586578063f851a440146105a257610140565b80636352211e1461038457806370a08231146103c157806394310e51146103fe57806395d89b411461043b578063a22cb46514610466578063b88d4fde1461048f57610140565b80631b07ac3e116101085780631b07ac3e1461025057806323b872dd1461028d57806326449235146102b65780632d551432146102f357806342842e0e1461031e578063541e771d1461034757610140565b806301ffc9a71461014557806306fdde0314610182578063081812fc146101ad578063095ea7b3146101ea57806311dd884514610213575b600080fd5b34801561015157600080fd5b5061016c600480360381019061016791906127ef565b6105cd565b6040516101799190612837565b60405180910390f35b34801561018e57600080fd5b506101976106af565b6040516101a491906128eb565b60405180910390f35b3480156101b957600080fd5b506101d460048036038101906101cf9190612943565b610741565b6040516101e191906129b1565b60405180910390f35b3480156101f657600080fd5b50610211600480360381019061020c91906129f8565b6107c6565b005b34801561021f57600080fd5b5061023a60048036038101906102359190612a9d565b6108de565b60405161024791906128eb565b60405180910390f35b34801561025c57600080fd5b5061027760048036038101906102729190612c1a565b610991565b6040516102849190612c72565b60405180910390f35b34801561029957600080fd5b506102b460048036038101906102af9190612c8d565b610a36565b005b3480156102c257600080fd5b506102dd60048036038101906102d89190612c1a565b610a96565b6040516102ea91906129b1565b60405180910390f35b3480156102ff57600080fd5b50610308610adf565b60405161031591906128eb565b60405180910390f35b34801561032a57600080fd5b5061034560048036038101906103409190612c8d565b610b6d565b005b34801561035357600080fd5b5061036e60048036038101906103699190612c1a565b610b8d565b60405161037b91906128eb565b60405180910390f35b34801561039057600080fd5b506103ab60048036038101906103a69190612943565b610c43565b6040516103b891906129b1565b60405180910390f35b3480156103cd57600080fd5b506103e860048036038101906103e39190612ce0565b610cf5565b6040516103f59190612c72565b60405180910390f35b34801561040a57600080fd5b5061042560048036038101906104209190612a9d565b610dad565b60405161043291906129b1565b60405180910390f35b34801561044757600080fd5b50610450610df8565b60405161045d91906128eb565b60405180910390f35b34801561047257600080fd5b5061048d60048036038101906104889190612d39565b610e8a565b005b34801561049b57600080fd5b506104b660048036038101906104b19190612e1a565b610ea0565b005b3480156104c457600080fd5b506104df60048036038101906104da9190612e9d565b610f02565b005b3480156104ed57600080fd5b5061050860048036038101906105039190612943565b610fe6565b60405161051591906128eb565b60405180910390f35b34801561052a57600080fd5b5061054560048036038101906105409190612f1e565b611138565b6040516105529190612837565b60405180910390f35b34801561056757600080fd5b506105706111cc565b60405161057d91906128eb565b60405180910390f35b6105a0600480360381019061059b9190612a9d565b61125a565b005b3480156105ae57600080fd5b506105b76115b7565b6040516105c491906129b1565b60405180910390f35b60007f80ac58cd000000000000000000000000000000000000000000000000000000007bffffffffffffffffffffffffffffffffffffffffffffffffffffffff1916827bffffffffffffffffffffffffffffffffffffffffffffffffffffffff1916148061069857507f5b5e139f000000000000000000000000000000000000000000000000000000007bffffffffffffffffffffffffffffffffffffffffffffffffffffffff1916827bffffffffffffffffffffffffffffffffffffffffffffffffffffffff1916145b806106a857506106a7826115dd565b5b9050919050565b6060600080546106be90612f8d565b80601f01602080910402602001604051908101604052809291908181526020018280546106ea90612f8d565b80156107375780601f1061070c57610100808354040283529160200191610737565b820191906000526020600020905b81548152906001019060200180831161071a57829003601f168201915b5050505050905090565b600061074c82611647565b61078b576040517f08c379a000000000000000000000000000000000000000000000000000000000815260040161078290613031565b60405180910390fd5b6004600083815260200190815260200160002060009054906101000a900473ffffffffffffffffffffffffffffffffffffffff169050919050565b60006107d182610c43565b90508073ffffffffffffffffffffffffffffffffffffffff168373ffffffffffffffffffffffffffffffffffffffff161415610842576040517f08c379a0000000000000000000000000000000000000000000000000000000008152600401610839906130c3565b60405180910390fd5b8073ffffffffffffffffffffffffffffffffffffffff166108616116b3565b73ffffffffffffffffffffffffffffffffffffffff161480610890575061088f8161088a6116b3565b611138565b5b6108cf576040517f08c379a00000000000000000000000000000000000000000000000000000000081526004016108c690613155565b60405180910390fd5b6108d983836116bb565b505050565b6060600e83836040516108f29291906131a5565b9081526020016040518091039020805461090b90612f8d565b80601f016020809104026020016040519081016040528092919081815260200182805461093790612f8d565b80156109845780601f1061095957610100808354040283529160200191610984565b820191906000526020600020905b81548152906001019060200180831161096757829003601f168201915b5050505050905092915050565b60008061099d83611774565b9050600281116109e2576040517f08c379a00000000000000000000000000000000000000000000000000000000081526004016109d990613230565b60405180910390fd5b60038114156109fc576706f05b59d3b20000915050610a31565b6004811415610a1657670429d069189e0000915050610a31565b60058110610a2f5767016345785d8a0000915050610a31565b505b919050565b610a47610a416116b3565b82611929565b610a86576040517f08c379a0000000000000000000000000000000000000000000000000000000008152600401610a7d906132c2565b60405180910390fd5b610a91838383611a07565b505050565b600d818051602081018201805184825260208301602085012081835280955050505050506000915054906101000a900473ffffffffffffffffffffffffffffffffffffffff1681565b600c8054610aec90612f8d565b80601f0160208091040260200160405190810160405280929190818152602001828054610b1890612f8d565b8015610b655780601f10610b3a57610100808354040283529160200191610b65565b820191906000526020600020905b815481529060010190602001808311610b4857829003601f168201915b505050505081565b610b8883838360405180602001604052806000815250610ea0565b505050565b600e818051602081018201805184825260208301602085012081835280955050505050506000915090508054610bc290612f8d565b80601f0160208091040260200160405190810160405280929190818152602001828054610bee90612f8d565b8015610c3b5780601f10610c1057610100808354040283529160200191610c3b565b820191906000526020600020905b815481529060010190602001808311610c1e57829003601f168201915b505050505081565b6000806002600084815260200190815260200160002060009054906101000a900473ffffffffffffffffffffffffffffffffffffffff169050600073ffffffffffffffffffffffffffffffffffffffff168173ffffffffffffffffffffffffffffffffffffffff161415610cec576040517f08c379a0000000000000000000000000000000000000000000000000000000008152600401610ce390613354565b60405180910390fd5b80915050919050565b60008073ffffffffffffffffffffffffffffffffffffffff168273ffffffffffffffffffffffffffffffffffffffff161415610d66576040517f08c379a0000000000000000000000000000000000000000000000000000000008152600401610d5d906133e6565b60405180910390fd5b600360008373ffffffffffffffffffffffffffffffffffffffff1673ffffffffffffffffffffffffffffffffffffffff168152602001908152602001600020549050919050565b6000600d8383604051610dc19291906131a5565b908152602001604051809103902060009054906101000a900473ffffffffffffffffffffffffffffffffffffffff16905092915050565b606060018054610e0790612f8d565b80601f0160208091040260200160405190810160405280929190818152602001828054610e3390612f8d565b8015610e805780601f10610e5557610100808354040283529160200191610e80565b820191906000526020600020905b815481529060010190602001808311610e6357829003601f168201915b5050505050905090565b610e9c610e956116b3565b8383611c6e565b5050565b610eb1610eab6116b3565b83611929565b610ef0576040517f08c379a0000000000000000000000000000000000000000000000000000000008152600401610ee7906132c2565b60405180910390fd5b610efc84848484611ddb565b50505050565b3373ffffffffffffffffffffffffffffffffffffffff16600d8585604051610f2b9291906131a5565b908152602001604051809103902060009054906101000a900473ffffffffffffffffffffffffffffffffffffffff1673ffffffffffffffffffffffffffffffffffffffff1614610fb0576040517f08c379a0000000000000000000000000000000000000000000000000000000008152600401610fa790613452565b60405180910390fd5b8181600e8686604051610fc49291906131a5565b90815260200160405180910390209190610fdf92919061265a565b5050505050565b6060610ff182611647565b611030576040517f08c379a0000000000000000000000000000000000000000000000000000000008152600401611027906134e4565b60405180910390fd5b600060066000848152602001908152602001600020805461105090612f8d565b80601f016020809104026020016040519081016040528092919081815260200182805461107c90612f8d565b80156110c95780601f1061109e576101008083540402835291602001916110c9565b820191906000526020600020905b8154815290600101906020018083116110ac57829003601f168201915b5050505050905060006110da611e37565b90506000815114156110f0578192505050611133565b60008251111561112557808260405160200161110d929190613535565b60405160208183030381529060405292505050611133565b61112e84611e4e565b925050505b919050565b6000600560008473ffffffffffffffffffffffffffffffffffffffff1673ffffffffffffffffffffffffffffffffffffffff16815260200190815260200160002060008373ffffffffffffffffffffffffffffffffffffffff1673ffffffffffffffffffffffffffffffffffffffff16815260200190815260200160002060009054906101000a900460ff16905092915050565b600780546111d990612f8d565b80601f016020809104026020016040519081016040528092919081815260200182805461120590612f8d565b80156112525780601f1061122757610100808354040283529160200191611252565b820191906000526020600020905b81548152906001019060200180831161123557829003601f168201915b505050505081565b600073ffffffffffffffffffffffffffffffffffffffff16600d83836040516112849291906131a5565b908152602001604051809103902060009054906101000a900473ffffffffffffffffffffffffffffffffffffffff1673ffffffffffffffffffffffffffffffffffffffff1614611309576040517f08c379a0000000000000000000000000000000000000000000000000000000008152600401611300906135a5565b60405180910390fd5b600061135883838080601f016020809104026020016040519081016040528093929190818152602001838380828437600081840152601f19601f82011690508083019250505050505050610991565b90508034101561139d576040517f08c379a000000000000000000000000000000000000000000000000000000000815260040161139490613637565b60405180910390fd5b60008383600c6040516020016113b593929190613737565b60405160208183030381529060405290506000600982600a6040516020016113df93929190613768565b604051602081830303815290604052905060006113fc6008611ef5565b9050600061144d87878080601f016020809104026020016040519081016040528093929190818152602001838380828437600081840152601f19601f82011690508083019250505050505050611774565b9050600061145a82611f03565b905033600d898960405161146f9291906131a5565b908152602001604051809103902060006101000a81548173ffffffffffffffffffffffffffffffffffffffff021916908373ffffffffffffffffffffffffffffffffffffffff16021790555060006114f1866114ca87612064565b846040516020016114dd93929190613915565b604051602081830303815290604052612064565b905060008160405160200161150691906139be565b604051602081830303815290604052905061152133866121c8565b61152b85826121e6565b33600d8b8b60405161153e9291906131a5565b908152602001604051809103902060006101000a81548173ffffffffffffffffffffffffffffffffffffffff021916908373ffffffffffffffffffffffffffffffffffffffff16021790555080600790805190602001906115a09291906126e0565b506115ab600861225a565b50505050505050505050565b600b60009054906101000a900473ffffffffffffffffffffffffffffffffffffffff1681565b60007f01ffc9a7000000000000000000000000000000000000000000000000000000007bffffffffffffffffffffffffffffffffffffffffffffffffffffffff1916827bffffffffffffffffffffffffffffffffffffffffffffffffffffffff1916149050919050565b60008073ffffffffffffffffffffffffffffffffffffffff166002600084815260200190815260200160002060009054906101000a900473ffffffffffffffffffffffffffffffffffffffff1673ffffffffffffffffffffffffffffffffffffffff1614159050919050565b600033905090565b816004600083815260200190815260200160002060006101000a81548173ffffffffffffffffffffffffffffffffffffffff021916908373ffffffffffffffffffffffffffffffffffffffff160217905550808273ffffffffffffffffffffffffffffffffffffffff1661172e83610c43565b73ffffffffffffffffffffffffffffffffffffffff167f8c5be1e5ebec7d5bd14f71427d1e84f3dd0314c0f7b2291e5b200ac8c7c3b92560405160405180910390a45050565b60008060008084519050600092505b8082101561191e5760008583815181106117a05761179f6139e0565b5b602001015160f81c60f81b9050608060f81b817effffffffffffffffffffffffffffffffffffffffffffffffffffffffffffff191610156117ef576001836117e89190613a3e565b925061190a565b60e060f81b817effffffffffffffffffffffffffffffffffffffffffffffffffffffffffffff191610156118315760028361182a9190613a3e565b9250611909565b60f060f81b817effffffffffffffffffffffffffffffffffffffffffffffffffffffffffffff191610156118735760038361186c9190613a3e565b9250611908565b60f8801b817effffffffffffffffffffffffffffffffffffffffffffffffffffffffffffff191610156118b4576004836118ad9190613a3e565b9250611907565b60fc60f81b817effffffffffffffffffffffffffffffffffffffffffffffffffffffffffffff191610156118f6576005836118ef9190613a3e565b9250611906565b6006836119039190613a3e565b92505b5b5b5b5b50828061191690613a94565b935050611783565b829350505050919050565b600061193482611647565b611973576040517f08c379a000000000000000000000000000000000000000000000000000000000815260040161196a90613b4f565b60405180910390fd5b600061197e83610c43565b90508073ffffffffffffffffffffffffffffffffffffffff168473ffffffffffffffffffffffffffffffffffffffff1614806119c057506119bf8185611138565b5b806119fe57508373ffffffffffffffffffffffffffffffffffffffff166119e684610741565b73ffffffffffffffffffffffffffffffffffffffff16145b91505092915050565b8273ffffffffffffffffffffffffffffffffffffffff16611a2782610c43565b73ffffffffffffffffffffffffffffffffffffffff1614611a7d576040517f08c379a0000000000000000000000000000000000000000000000000000000008152600401611a7490613be1565b60405180910390fd5b600073ffffffffffffffffffffffffffffffffffffffff168273ffffffffffffffffffffffffffffffffffffffff161415611aed576040517f08c379a0000000000000000000000000000000000000000000000000000000008152600401611ae490613c73565b60405180910390fd5b611af8838383612270565b611b036000826116bb565b6001600360008573ffffffffffffffffffffffffffffffffffffffff1673ffffffffffffffffffffffffffffffffffffffff1681526020019081526020016000206000828254611b539190613c93565b925050819055506001600360008473ffffffffffffffffffffffffffffffffffffffff1673ffffffffffffffffffffffffffffffffffffffff1681526020019081526020016000206000828254611baa9190613a3e565b92505081905550816002600083815260200190815260200160002060006101000a81548173ffffffffffffffffffffffffffffffffffffffff021916908373ffffffffffffffffffffffffffffffffffffffff160217905550808273ffffffffffffffffffffffffffffffffffffffff168473ffffffffffffffffffffffffffffffffffffffff167fddf252ad1be2c89b69c2b068fc378daa952ba7f163c4a11628f55a4df523b3ef60405160405180910390a4611c69838383612275565b505050565b8173ffffffffffffffffffffffffffffffffffffffff168373ffffffffffffffffffffffffffffffffffffffff161415611cdd576040517f08c379a0000000000000000000000000000000000000000000000000000000008152600401611cd490613d13565b60405180910390fd5b80600560008573ffffffffffffffffffffffffffffffffffffffff1673ffffffffffffffffffffffffffffffffffffffff16815260200190815260200160002060008473ffffffffffffffffffffffffffffffffffffffff1673ffffffffffffffffffffffffffffffffffffffff16815260200190815260200160002060006101000a81548160ff0219169083151502179055508173ffffffffffffffffffffffffffffffffffffffff168373ffffffffffffffffffffffffffffffffffffffff167f17307eab39ab6107e8899845ad3d59bd9653f200f220920489ca2b5937696c3183604051611dce9190612837565b60405180910390a3505050565b611de6848484611a07565b611df28484848461227a565b611e31576040517f08c379a0000000000000000000000000000000000000000000000000000000008152600401611e2890613da5565b60405180910390fd5b50505050565b606060405180602001604052806000815250905090565b6060611e5982611647565b611e98576040517f08c379a0000000000000000000000000000000000000000000000000000000008152600401611e8f90613e37565b60405180910390fd5b6000611ea2611e37565b90506000815111611ec25760405180602001604052806000815250611eed565b80611ecc84611f03565b604051602001611edd929190613535565b6040516020818303038152906040525b915050919050565b600081600001549050919050565b60606000821415611f4b576040518060400160405280600181526020017f3000000000000000000000000000000000000000000000000000000000000000815250905061205f565b600082905060005b60008214611f7d578080611f6690613a94565b915050600a82611f769190613e86565b9150611f53565b60008167ffffffffffffffff811115611f9957611f98612aef565b5b6040519080825280601f01601f191660200182016040528015611fcb5781602001600182028036833780820191505090505b5090505b6000851461205857600182611fe49190613c93565b9150600a85611ff39190613eb7565b6030611fff9190613a3e565b60f81b818381518110612015576120146139e0565b5b60200101907effffffffffffffffffffffffffffffffffffffffffffffffffffffffffffff1916908160001a905350600a856120519190613e86565b9450611fcf565b8093505050505b919050565b6060600082511415612087576040518060200160405280600081525090506121c3565b600060405180606001604052806040815260200161419060409139905060006003600285516120b69190613a3e565b6120c09190613e86565b60046120cc9190613ee8565b67ffffffffffffffff8111156120e5576120e4612aef565b5b6040519080825280601f01601f1916602001820160405280156121175781602001600182028036833780820191505090505b509050600182016020820185865187015b80821015612183576003820191508151603f8160121c168501518453600184019350603f81600c1c168501518453600184019350603f8160061c168501518453600184019350603f8116850151845360018401935050612128565b505060038651066001811461219f57600281146121b2576121ba565b603d6001830353603d60028303536121ba565b603d60018303535b50505080925050505b919050565b6121e2828260405180602001604052806000815250612402565b5050565b6121ef82611647565b61222e576040517f08c379a000000000000000000000000000000000000000000000000000000000815260040161222590613fb4565b60405180910390fd5b806006600084815260200190815260200160002090805190602001906122559291906126e0565b505050565b6001816000016000828254019250508190555050565b505050565b505050565b600061229b8473ffffffffffffffffffffffffffffffffffffffff1661245d565b156123f5578373ffffffffffffffffffffffffffffffffffffffff1663150b7a026122c46116b3565b8786866040518563ffffffff1660e01b81526004016122e69493929190614029565b6020604051808303816000875af192505050801561232257506040513d601f19601f8201168201806040525081019061231f919061408a565b60015b6123a5573d8060008114612352576040519150601f19603f3d011682016040523d82523d6000602084013e612357565b606091505b5060008151141561239d576040517f08c379a000000000000000000000000000000000000000000000000000000000815260040161239490613da5565b60405180910390fd5b805181602001fd5b63150b7a0260e01b7bffffffffffffffffffffffffffffffffffffffffffffffffffffffff1916817bffffffffffffffffffffffffffffffffffffffffffffffffffffffff1916149150506123fa565b600190505b949350505050565b61240c8383612480565b612419600084848461227a565b612458576040517f08c379a000000000000000000000000000000000000000000000000000000000815260040161244f90613da5565b60405180910390fd5b505050565b6000808273ffffffffffffffffffffffffffffffffffffffff163b119050919050565b600073ffffffffffffffffffffffffffffffffffffffff168273ffffffffffffffffffffffffffffffffffffffff1614156124f0576040517f08c379a00000000000000000000000000000000000000000000000000000000081526004016124e790614103565b60405180910390fd5b6124f981611647565b15612539576040517f08c379a00000000000000000000000000000000000000000000000000000000081526004016125309061416f565b60405180910390fd5b61254560008383612270565b6001600360008473ffffffffffffffffffffffffffffffffffffffff1673ffffffffffffffffffffffffffffffffffffffff16815260200190815260200160002060008282546125959190613a3e565b92505081905550816002600083815260200190815260200160002060006101000a81548173ffffffffffffffffffffffffffffffffffffffff021916908373ffffffffffffffffffffffffffffffffffffffff160217905550808273ffffffffffffffffffffffffffffffffffffffff16600073ffffffffffffffffffffffffffffffffffffffff167fddf252ad1be2c89b69c2b068fc378daa952ba7f163c4a11628f55a4df523b3ef60405160405180910390a461265660008383612275565b5050565b82805461266690612f8d565b90600052602060002090601f01602090048101928261268857600085556126cf565b82601f106126a157803560ff19168380011785556126cf565b828001600101855582156126cf579182015b828111156126ce5782358255916020019190600101906126b3565b5b5090506126dc9190612766565b5090565b8280546126ec90612f8d565b90600052602060002090601f01602090048101928261270e5760008555612755565b82601f1061272757805160ff1916838001178555612755565b82800160010185558215612755579182015b82811115612754578251825591602001919060010190612739565b5b5090506127629190612766565b5090565b5b8082111561277f576000816000905550600101612767565b5090565b6000604051905090565b600080fd5b600080fd5b60007fffffffff0000000000000000000000000000000000000000000000000000000082169050919050565b6127cc81612797565b81146127d757600080fd5b50565b6000813590506127e9816127c3565b92915050565b6000602082840312156128055761280461278d565b5b6000612813848285016127da565b91505092915050565b60008115159050919050565b6128318161281c565b82525050565b600060208201905061284c6000830184612828565b92915050565b600081519050919050565b600082825260208201905092915050565b60005b8381101561288c578082015181840152602081019050612871565b8381111561289b576000848401525b50505050565b6000601f19601f8301169050919050565b60006128bd82612852565b6128c7818561285d565b93506128d781856020860161286e565b6128e0816128a1565b840191505092915050565b6000602082019050818103600083015261290581846128b2565b905092915050565b6000819050919050565b6129208161290d565b811461292b57600080fd5b50565b60008135905061293d81612917565b92915050565b6000602082840312156129595761295861278d565b5b60006129678482850161292e565b91505092915050565b600073ffffffffffffffffffffffffffffffffffffffff82169050919050565b600061299b82612970565b9050919050565b6129ab81612990565b82525050565b60006020820190506129c660008301846129a2565b92915050565b6129d581612990565b81146129e057600080fd5b50565b6000813590506129f2816129cc565b92915050565b60008060408385031215612a0f57612a0e61278d565b5b6000612a1d858286016129e3565b9250506020612a2e8582860161292e565b9150509250929050565b600080fd5b600080fd5b600080fd5b60008083601f840112612a5d57612a5c612a38565b5b8235905067ffffffffffffffff811115612a7a57612a79612a3d565b5b602083019150836001820283011115612a9657612a95612a42565b5b9250929050565b60008060208385031215612ab457612ab361278d565b5b600083013567ffffffffffffffff811115612ad257612ad1612792565b5b612ade85828601612a47565b92509250509250929050565b600080fd5b7f4e487b7100000000000000000000000000000000000000000000000000000000600052604160045260246000fd5b612b27826128a1565b810181811067ffffffffffffffff82111715612b4657612b45612aef565b5b80604052505050565b6000612b59612783565b9050612b658282612b1e565b919050565b600067ffffffffffffffff821115612b8557612b84612aef565b5b612b8e826128a1565b9050602081019050919050565b82818337600083830152505050565b6000612bbd612bb884612b6a565b612b4f565b905082815260208101848484011115612bd957612bd8612aea565b5b612be4848285612b9b565b509392505050565b600082601f830112612c0157612c00612a38565b5b8135612c11848260208601612baa565b91505092915050565b600060208284031215612c3057612c2f61278d565b5b600082013567ffffffffffffffff811115612c4e57612c4d612792565b5b612c5a84828501612bec565b91505092915050565b612c6c8161290d565b82525050565b6000602082019050612c876000830184612c63565b92915050565b600080600060608486031215612ca657612ca561278d565b5b6000612cb4868287016129e3565b9350506020612cc5868287016129e3565b9250506040612cd68682870161292e565b9150509250925092565b600060208284031215612cf657612cf561278d565b5b6000612d04848285016129e3565b91505092915050565b612d168161281c565b8114612d2157600080fd5b50565b600081359050612d3381612d0d565b92915050565b60008060408385031215612d5057612d4f61278d565b5b6000612d5e858286016129e3565b9250506020612d6f85828601612d24565b9150509250929050565b600067ffffffffffffffff821115612d9457612d93612aef565b5b612d9d826128a1565b9050602081019050919050565b6000612dbd612db884612d79565b612b4f565b905082815260208101848484011115612dd957612dd8612aea565b5b612de4848285612b9b565b509392505050565b600082601f830112612e0157612e00612a38565b5b8135612e11848260208601612daa565b91505092915050565b60008060008060808587031215612e3457612e3361278d565b5b6000612e42878288016129e3565b9450506020612e53878288016129e3565b9350506040612e648782880161292e565b925050606085013567ffffffffffffffff811115612e8557612e84612792565b5b612e9187828801612dec565b91505092959194509250565b60008060008060408587031215612eb757612eb661278d565b5b600085013567ffffffffffffffff811115612ed557612ed4612792565b5b612ee187828801612a47565b9450945050602085013567ffffffffffffffff811115612f0457612f03612792565b5b612f1087828801612a47565b925092505092959194509250565b60008060408385031215612f3557612f3461278d565b5b6000612f43858286016129e3565b9250506020612f54858286016129e3565b9150509250929050565b7f4e487b7100000000000000000000000000000000000000000000000000000000600052602260045260246000fd5b60006002820490506001821680612fa557607f821691505b60208210811415612fb957612fb8612f5e565b5b50919050565b7f4552433732313a20617070726f76656420717565727920666f72206e6f6e657860008201527f697374656e7420746f6b656e0000000000000000000000000000000000000000602082015250565b600061301b602c8361285d565b915061302682612fbf565b604082019050919050565b6000602082019050818103600083015261304a8161300e565b9050919050565b7f4552433732313a20617070726f76616c20746f2063757272656e74206f776e6560008201527f7200000000000000000000000000000000000000000000000000000000000000602082015250565b60006130ad60218361285d565b91506130b882613051565b604082019050919050565b600060208201905081810360008301526130dc816130a0565b9050919050565b7f4552433732313a20617070726f76652063616c6c6572206973206e6f74206f7760008201527f6e6572206e6f7220617070726f76656420666f7220616c6c0000000000000000602082015250565b600061313f60388361285d565b915061314a826130e3565b604082019050919050565b6000602082019050818103600083015261316e81613132565b9050919050565b600081905092915050565b600061318c8385613175565b9350613199838584612b9b565b82840190509392505050565b60006131b2828486613180565b91508190509392505050565b7f506c6561736520656e74657220737472696e672067726561746572207468616e60008201527f2032206c656e6774680000000000000000000000000000000000000000000000602082015250565b600061321a60298361285d565b9150613225826131be565b604082019050919050565b600060208201905081810360008301526132498161320d565b9050919050565b7f4552433732313a207472616e736665722063616c6c6572206973206e6f74206f60008201527f776e6572206e6f7220617070726f766564000000000000000000000000000000602082015250565b60006132ac60318361285d565b91506132b782613250565b604082019050919050565b600060208201905081810360008301526132db8161329f565b9050919050565b7f4552433732313a206f776e657220717565727920666f72206e6f6e657869737460008201527f656e7420746f6b656e0000000000000000000000000000000000000000000000602082015250565b600061333e60298361285d565b9150613349826132e2565b604082019050919050565b6000602082019050818103600083015261336d81613331565b9050919050565b7f4552433732313a2062616c616e636520717565727920666f7220746865207a6560008201527f726f206164647265737300000000000000000000000000000000000000000000602082015250565b60006133d0602a8361285d565b91506133db82613374565b604082019050919050565b600060208201905081810360008301526133ff816133c3565b9050919050565b7f7468697320646f6d61696e206973206e6f7420796f7572732000000000000000600082015250565b600061343c60198361285d565b915061344782613406565b602082019050919050565b6000602082019050818103600083015261346b8161342f565b9050919050565b7f45524337323155524953746f726167653a2055524920717565727920666f722060008201527f6e6f6e6578697374656e7420746f6b656e000000000000000000000000000000602082015250565b60006134ce60318361285d565b91506134d982613472565b604082019050919050565b600060208201905081810360008301526134fd816134c1565b9050919050565b600061350f82612852565b6135198185613175565b935061352981856020860161286e565b80840191505092915050565b60006135418285613504565b915061354d8284613504565b91508190509392505050565b7f416c726561647920657869737420697473206f776e6572000000000000000000600082015250565b600061358f60178361285d565b915061359a82613559565b602082019050919050565b600060208201905081810360008301526135be81613582565b9050919050565b7f596f752068617665206e6f7420656e6f756768207061796d656e7420746f206160008201527f63637175697265207468697320646f6d61696e20000000000000000000000000602082015250565b600061362160348361285d565b915061362c826135c5565b604082019050919050565b6000602082019050818103600083015261365081613614565b9050919050565b7f2e00000000000000000000000000000000000000000000000000000000000000600082015250565b600061368d600183613175565b915061369882613657565b600182019050919050565b60008190508160005260206000209050919050565b600081546136c581612f8d565b6136cf8186613175565b945060018216600081146136ea57600181146136fb5761372e565b60ff1983168652818601935061372e565b613704856136a3565b60005b8381101561372657815481890152600182019150602081019050613707565b838801955050505b50505092915050565b6000613744828587613180565b915061374f82613680565b915061375b82846136b8565b9150819050949350505050565b600061377482866136b8565b91506137808285613504565b915061378c82846136b8565b9150819050949350505050565b7f7b226e616d65223a202200000000000000000000000000000000000000000000600082015250565b60006137cf600a83613175565b91506137da82613799565b600a82019050919050565b7f222c20226465736372697074696f6e223a20224120646f6d61696e206f6e207460008201527f6865204e696e6a61206e616d652073657276696365222c2022696d616765223a60208201527f2022646174613a696d6167652f7376672b786d6c3b6261736536342c00000000604082015250565b6000613867605c83613175565b9150613872826137e5565b605c82019050919050565b7f222c226c656e677468223a220000000000000000000000000000000000000000600082015250565b60006138b3600c83613175565b91506138be8261387d565b600c82019050919050565b7f227d000000000000000000000000000000000000000000000000000000000000600082015250565b60006138ff600283613175565b915061390a826138c9565b600282019050919050565b6000613920826137c2565b915061392c8286613504565b91506139378261385a565b91506139438285613504565b915061394e826138a6565b915061395a8284613504565b9150613965826138f2565b9150819050949350505050565b7f646174613a6170706c69636174696f6e2f6a736f6e3b6261736536342c000000600082015250565b60006139a8601d83613175565b91506139b382613972565b601d82019050919050565b60006139c98261399b565b91506139d58284613504565b915081905092915050565b7f4e487b7100000000000000000000000000000000000000000000000000000000600052603260045260246000fd5b7f4e487b7100000000000000000000000000000000000000000000000000000000600052601160045260246000fd5b6000613a498261290d565b9150613a548361290d565b9250827fffffffffffffffffffffffffffffffffffffffffffffffffffffffffffffffff03821115613a8957613a88613a0f565b5b828201905092915050565b6000613a9f8261290d565b91507fffffffffffffffffffffffffffffffffffffffffffffffffffffffffffffffff821415613ad257613ad1613a0f565b5b600182019050919050565b7f4552433732313a206f70657261746f7220717565727920666f72206e6f6e657860008201527f697374656e7420746f6b656e0000000000000000000000000000000000000000602082015250565b6000613b39602c8361285d565b9150613b4482613add565b604082019050919050565b60006020820190508181036000830152613b6881613b2c565b9050919050565b7f4552433732313a207472616e736665722066726f6d20696e636f72726563742060008201527f6f776e6572000000000000000000000000000000000000000000000000000000602082015250565b6000613bcb60258361285d565b9150613bd682613b6f565b604082019050919050565b60006020820190508181036000830152613bfa81613bbe565b9050919050565b7f4552433732313a207472616e7366657220746f20746865207a65726f2061646460008201527f7265737300000000000000000000000000000000000000000000000000000000602082015250565b6000613c5d60248361285d565b9150613c6882613c01565b604082019050919050565b60006020820190508181036000830152613c8c81613c50565b9050919050565b6000613c9e8261290d565b9150613ca98361290d565b925082821015613cbc57613cbb613a0f565b5b828203905092915050565b7f4552433732313a20617070726f766520746f2063616c6c657200000000000000600082015250565b6000613cfd60198361285d565b9150613d0882613cc7565b602082019050919050565b60006020820190508181036000830152613d2c81613cf0565b9050919050565b7f4552433732313a207472616e7366657220746f206e6f6e20455243373231526560008201527f63656976657220696d706c656d656e7465720000000000000000000000000000602082015250565b6000613d8f60328361285d565b9150613d9a82613d33565b604082019050919050565b60006020820190508181036000830152613dbe81613d82565b9050919050565b7f4552433732314d657461646174613a2055524920717565727920666f72206e6f60008201527f6e6578697374656e7420746f6b656e0000000000000000000000000000000000602082015250565b6000613e21602f8361285d565b9150613e2c82613dc5565b604082019050919050565b60006020820190508181036000830152613e5081613e14565b9050919050565b7f4e487b7100000000000000000000000000000000000000000000000000000000600052601260045260246000fd5b6000613e918261290d565b9150613e9c8361290d565b925082613eac57613eab613e57565b5b828204905092915050565b6000613ec28261290d565b9150613ecd8361290d565b925082613edd57613edc613e57565b5b828206905092915050565b6000613ef38261290d565b9150613efe8361290d565b9250817fffffffffffffffffffffffffffffffffffffffffffffffffffffffffffffffff0483118215151615613f3757613f36613a0f565b5b828202905092915050565b7f45524337323155524953746f726167653a2055524920736574206f66206e6f6e60008201527f6578697374656e7420746f6b656e000000000000000000000000000000000000602082015250565b6000613f9e602e8361285d565b9150613fa982613f42565b604082019050919050565b60006020820190508181036000830152613fcd81613f91565b9050919050565b600081519050919050565b600082825260208201905092915050565b6000613ffb82613fd4565b6140058185613fdf565b935061401581856020860161286e565b61401e816128a1565b840191505092915050565b600060808201905061403e60008301876129a2565b61404b60208301866129a2565b6140586040830185612c63565b818103606083015261406a8184613ff0565b905095945050505050565b600081519050614084816127c3565b92915050565b6000602082840312156140a05761409f61278d565b5b60006140ae84828501614075565b91505092915050565b7f4552433732313a206d696e7420746f20746865207a65726f2061646472657373600082015250565b60006140ed60208361285d565b91506140f8826140b7565b602082019050919050565b6000602082019050818103600083015261411c816140e0565b9050919050565b7f4552433732313a20746f6b656e20616c7265616479206d696e74656400000000600082015250565b6000614159601c8361285d565b915061416482614123565b602082019050919050565b600060208201905081810360008301526141888161414c565b905091905056fe4142434445464748494a4b4c4d4e4f505152535455565758595a6162636465666768696a6b6c6d6e6f707172737475767778797a303132333435363738392b2fa264697066735822122051e6feca909cda4c41091ed9118036bc32d83efe26bb56ac806c33f82b05733164736f6c634300080b00333c7376672076696577426f783d22302030203133323020333030223e3c7465787420783d223530252220793d22353025222064793d222e3235656d2220746578742d616e63686f723d226d6964646c65223e",
  "immutableReferences": {},
  "source": "// SPDX-License-Identifier: MIT\r\npragma solidity ^0.8.11;\r\nimport {StringUtils} from \"./libraries/stringUtils.sol\";\r\nimport \"@openzeppelin/contracts/token/ERC721/extensions/ERC721URIStorage.sol\";\r\nimport \"@openzeppelin/contracts/utils/Counters.sol\";\r\nimport {Base64} from \"./libraries/Base64.sol\";\r\n\r\ncontract Domains is ERC721URIStorage {\r\n    string public uri;\r\n    //create NFT of domain\r\n    // Magic given to us by OpenZeppelin to help us keep track of tokenIds.\r\n    using Counters for Counters.Counter;\r\n    Counters.Counter private _tokenIds;\r\n    string svgPartOne =\r\n        '<svg viewBox=\"0 0 1320 300\"><text x=\"50%\" y=\"50%\" dy=\".25em\" text-anchor=\"middle\">';\r\n    string svgPartTwo = \"</text></svg>\";\r\n\r\n    address public admin;\r\n    string public tld; //top level domain\r\n    //to store domains associated with their addresses\r\n    mapping(string => address) public domains;\r\n    mapping(string => string) public records;\r\n\r\n    constructor(string memory _tld) payable ERC721(\"Ninja Name Service\", \"NNS\") {\r\n\r\n        tld = _tld;\r\n        admin = msg.sender ;\r\n    }\r\n\r\n    function calcPrice(string memory _name) public pure returns (uint256) {\r\n        uint256 len = StringUtils.strlen(_name);\r\n        require(len > 2, \"Please enter string greater than 2 length\");\r\n        if (len == 3) {\r\n            return 5 * 10**17; // 5 MATIC = 5 000 000 000 000 000 000 (18 decimals). We're going with 0.5 Matic cause the faucets don't give a lot\r\n        } else if (len == 4) {\r\n            return 3 * 10**17; // Small domain have more charge\r\n        } else if (len >= 5) {\r\n            // fixed charge for length greater than 4\r\n            return 1 * 10**17;\r\n        }\r\n    }\r\n\r\n    // a register function to register string with address of node which call this function\r\n    function register(string calldata _name) public payable {\r\n        require(domains[_name] == address(0), \"Already exist its owner\");\r\n        uint256 price = calcPrice(_name);\r\n        require(\r\n            msg.value >= price,\r\n            \"You have not enough payment to accquire this domain \"\r\n        );\r\n        // Combine the name passed into the function  with the TLD\r\n        string memory name = string(abi.encodePacked(_name, \".\", tld));\r\n        // Create the SVG (image) for the NFT with the name\r\n        string memory finalSvg = string(\r\n            abi.encodePacked(svgPartOne, name, svgPartTwo)\r\n        );\r\n        uint256 newRecordId = _tokenIds.current();\r\n        uint256 length = StringUtils.strlen(_name);\r\n        string memory strLen = Strings.toString(length);\r\n\r\n        domains[_name] = msg.sender;\r\n\r\n        // Create the JSON metadata of our NFT. We do this by combining strings and encoding as base64\r\n        string memory json = Base64.encode(\r\n            abi.encodePacked(\r\n                '{\"name\": \"',\r\n                name,\r\n                '\", \"description\": \"A domain on the Ninja name service\", \"image\": \"data:image/svg+xml;base64,',\r\n                Base64.encode(bytes(finalSvg)),\r\n                '\",\"length\":\"',\r\n                strLen,\r\n                '\"}'\r\n            )\r\n        );\r\n\r\n        string memory finalTokenUri = string(\r\n            abi.encodePacked(\"data:application/json;base64,\", json)\r\n        );\r\n\r\n        _safeMint(msg.sender, newRecordId);\r\n        _setTokenURI(newRecordId, finalTokenUri);\r\n        domains[_name] = msg.sender;\r\n        uri= finalTokenUri;\r\n        _tokenIds.increment();\r\n    }\r\n\r\n    // // This will give us the domain owners' address\r\n\r\n    function getDomainAddress(string calldata _name)\r\n        public\r\n        view\r\n        returns (address)\r\n    {\r\n        return domains[_name];\r\n    }\r\n\r\n    // function to set record\r\n    function setRecord(string calldata _name, string calldata _record) public {\r\n        require(domains[_name] == msg.sender, \"this domain is not yours \");\r\n        records[_name] = _record;\r\n    }\r\n\r\n    // get record of your domain\r\n    function getRecord(string calldata _name)\r\n        public\r\n        view\r\n        returns (string memory)\r\n    {\r\n        return records[_name];\r\n    }\r\n}\r\n",
  "sourcePath": "C:\\Users\\HP\\Desktop\\Web3 Js\\Dapps-Factory-Nikku876\\Domain Buildspace\\contracts\\Domains.sol",
  "compiler": {
    "name": "solc",
    "version": "0.8.11+commit.d7f03943.Emscripten.clang"
  },
  "schemaVersion": "3.4.4",
  "updatedAt": "2022-05-03T06:55:05.189Z",
  "networkType": "ethereum",
  "devdoc": {
    "kind": "dev",
    "methods": {
      "approve(address,uint256)": {
        "details": "See {IERC721-approve}."
      },
      "balanceOf(address)": {
        "details": "See {IERC721-balanceOf}."
      },
      "getApproved(uint256)": {
        "details": "See {IERC721-getApproved}."
      },
      "isApprovedForAll(address,address)": {
        "details": "See {IERC721-isApprovedForAll}."
      },
      "name()": {
        "details": "See {IERC721Metadata-name}."
      },
      "ownerOf(uint256)": {
        "details": "See {IERC721-ownerOf}."
      },
      "safeTransferFrom(address,address,uint256)": {
        "details": "See {IERC721-safeTransferFrom}."
      },
      "safeTransferFrom(address,address,uint256,bytes)": {
        "details": "See {IERC721-safeTransferFrom}."
      },
      "setApprovalForAll(address,bool)": {
        "details": "See {IERC721-setApprovalForAll}."
      },
      "supportsInterface(bytes4)": {
        "details": "See {IERC165-supportsInterface}."
      },
      "symbol()": {
        "details": "See {IERC721Metadata-symbol}."
      },
      "tokenURI(uint256)": {
        "details": "See {IERC721Metadata-tokenURI}."
      },
      "transferFrom(address,address,uint256)": {
        "details": "See {IERC721-transferFrom}."
      }
    },
    "version": 1
  },
  "userdoc": {
    "kind": "user",
    "methods": {},
    "version": 1
  }
}