{
  "contractName": "ResourcePlatform",
  "abi": [
    {
      "inputs": [],
      "stateMutability": "nonpayable",
      "type": "constructor"
    },
    {
      "inputs": [],
      "name": "admin",
      "outputs": [
        {
          "internalType": "address",
          "name": "",
          "type": "address"
        }
      ],
      "stateMutability": "view",
      "type": "function",
      "constant": true
    },
    {
      "inputs": [],
      "name": "basePrice",
      "outputs": [
        {
          "internalType": "uint256",
          "name": "",
          "type": "uint256"
        }
      ],
      "stateMutability": "view",
      "type": "function",
      "constant": true
    },
    {
      "inputs": [
        {
          "internalType": "uint256",
          "name": "",
          "type": "uint256"
        }
      ],
      "name": "courses",
      "outputs": [
        {
          "internalType": "uint256",
          "name": "id",
          "type": "uint256"
        },
        {
          "internalType": "address",
          "name": "owner",
          "type": "address"
        },
        {
          "internalType": "uint256",
          "name": "timesSold",
          "type": "uint256"
        },
        {
          "internalType": "uint256",
          "name": "likes",
          "type": "uint256"
        },
        {
          "internalType": "uint256",
          "name": "price",
          "type": "uint256"
        },
        {
          "internalType": "uint256",
          "name": "category",
          "type": "uint256"
        },
        {
          "internalType": "string",
          "name": "desc",
          "type": "string"
        },
        {
          "internalType": "string",
          "name": "name",
          "type": "string"
        },
        {
          "internalType": "string",
          "name": "url",
          "type": "string"
        },
        {
          "internalType": "string",
          "name": "picUrl",
          "type": "string"
        },
        {
          "internalType": "string",
          "name": "instructor",
          "type": "string"
        },
        {
          "internalType": "bool",
          "name": "sold",
          "type": "bool"
        }
      ],
      "stateMutability": "view",
      "type": "function",
      "constant": true
    },
    {
      "inputs": [],
      "name": "numCourse",
      "outputs": [
        {
          "internalType": "uint256",
          "name": "",
          "type": "uint256"
        }
      ],
      "stateMutability": "view",
      "type": "function",
      "constant": true
    },
    {
      "inputs": [
        {
          "internalType": "address",
          "name": "",
          "type": "address"
        }
      ],
      "name": "students",
      "outputs": [
        {
          "internalType": "uint256",
          "name": "id",
          "type": "uint256"
        },
        {
          "internalType": "address",
          "name": "owner",
          "type": "address"
        },
        {
          "internalType": "uint256",
          "name": "timesSold",
          "type": "uint256"
        },
        {
          "internalType": "uint256",
          "name": "likes",
          "type": "uint256"
        },
        {
          "internalType": "uint256",
          "name": "price",
          "type": "uint256"
        },
        {
          "internalType": "uint256",
          "name": "category",
          "type": "uint256"
        },
        {
          "internalType": "string",
          "name": "desc",
          "type": "string"
        },
        {
          "internalType": "string",
          "name": "name",
          "type": "string"
        },
        {
          "internalType": "string",
          "name": "url",
          "type": "string"
        },
        {
          "internalType": "string",
          "name": "picUrl",
          "type": "string"
        },
        {
          "internalType": "string",
          "name": "instructor",
          "type": "string"
        },
        {
          "internalType": "bool",
          "name": "sold",
          "type": "bool"
        }
      ],
      "stateMutability": "view",
      "type": "function",
      "constant": true
    },
    {
      "inputs": [
        {
          "internalType": "address",
          "name": "_owner",
          "type": "address"
        },
        {
          "internalType": "string",
          "name": "_name",
          "type": "string"
        },
        {
          "internalType": "string",
          "name": "_desc",
          "type": "string"
        },
        {
          "internalType": "uint256",
          "name": "_category",
          "type": "uint256"
        },
        {
          "internalType": "string",
          "name": "_url",
          "type": "string"
        },
        {
          "internalType": "string",
          "name": "_picUrl",
          "type": "string"
        },
        {
          "internalType": "string",
          "name": "_instructor",
          "type": "string"
        },
        {
          "internalType": "uint256",
          "name": "_price",
          "type": "uint256"
        },
        {
          "internalType": "bool",
          "name": "_isSold",
          "type": "bool"
        }
      ],
      "name": "addCourse",
      "outputs": [
        {
          "internalType": "bool",
          "name": "",
          "type": "bool"
        }
      ],
      "stateMutability": "nonpayable",
      "type": "function"
    },
    {
      "inputs": [
        {
          "internalType": "uint256",
          "name": "id",
          "type": "uint256"
        }
      ],
      "name": "purchaseCourse",
      "outputs": [
        {
          "internalType": "bool",
          "name": "",
          "type": "bool"
        }
      ],
      "stateMutability": "payable",
      "type": "function",
      "payable": true
    },
    {
      "inputs": [
        {
          "internalType": "uint256",
          "name": "id",
          "type": "uint256"
        }
      ],
      "name": "getSingleCourse",
      "outputs": [
        {
          "components": [
            {
              "internalType": "uint256",
              "name": "id",
              "type": "uint256"
            },
            {
              "internalType": "address",
              "name": "owner",
              "type": "address"
            },
            {
              "internalType": "uint256",
              "name": "timesSold",
              "type": "uint256"
            },
            {
              "internalType": "uint256",
              "name": "likes",
              "type": "uint256"
            },
            {
              "internalType": "uint256",
              "name": "price",
              "type": "uint256"
            },
            {
              "internalType": "uint256",
              "name": "category",
              "type": "uint256"
            },
            {
              "internalType": "string",
              "name": "desc",
              "type": "string"
            },
            {
              "internalType": "string",
              "name": "name",
              "type": "string"
            },
            {
              "internalType": "string",
              "name": "url",
              "type": "string"
            },
            {
              "internalType": "string",
              "name": "picUrl",
              "type": "string"
            },
            {
              "internalType": "string",
              "name": "instructor",
              "type": "string"
            },
            {
              "internalType": "bool",
              "name": "sold",
              "type": "bool"
            }
          ],
          "internalType": "struct ResourcePlatform.Course",
          "name": "",
          "type": "tuple"
        }
      ],
      "stateMutability": "view",
      "type": "function",
      "constant": true
    },
    {
      "inputs": [],
      "name": "getAllCourses",
      "outputs": [
        {
          "components": [
            {
              "internalType": "uint256",
              "name": "id",
              "type": "uint256"
            },
            {
              "internalType": "address",
              "name": "owner",
              "type": "address"
            },
            {
              "internalType": "uint256",
              "name": "timesSold",
              "type": "uint256"
            },
            {
              "internalType": "uint256",
              "name": "likes",
              "type": "uint256"
            },
            {
              "internalType": "uint256",
              "name": "price",
              "type": "uint256"
            },
            {
              "internalType": "uint256",
              "name": "category",
              "type": "uint256"
            },
            {
              "internalType": "string",
              "name": "desc",
              "type": "string"
            },
            {
              "internalType": "string",
              "name": "name",
              "type": "string"
            },
            {
              "internalType": "string",
              "name": "url",
              "type": "string"
            },
            {
              "internalType": "string",
              "name": "picUrl",
              "type": "string"
            },
            {
              "internalType": "string",
              "name": "instructor",
              "type": "string"
            },
            {
              "internalType": "bool",
              "name": "sold",
              "type": "bool"
            }
          ],
          "internalType": "struct ResourcePlatform.Course[]",
          "name": "",
          "type": "tuple[]"
        }
      ],
      "stateMutability": "view",
      "type": "function",
      "constant": true
    },
    {
      "inputs": [
        {
          "internalType": "uint256",
          "name": "_category",
          "type": "uint256"
        }
      ],
      "name": "getCategoryCourse",
      "outputs": [
        {
          "components": [
            {
              "internalType": "uint256",
              "name": "id",
              "type": "uint256"
            },
            {
              "internalType": "address",
              "name": "owner",
              "type": "address"
            },
            {
              "internalType": "uint256",
              "name": "timesSold",
              "type": "uint256"
            },
            {
              "internalType": "uint256",
              "name": "likes",
              "type": "uint256"
            },
            {
              "internalType": "uint256",
              "name": "price",
              "type": "uint256"
            },
            {
              "internalType": "uint256",
              "name": "category",
              "type": "uint256"
            },
            {
              "internalType": "string",
              "name": "desc",
              "type": "string"
            },
            {
              "internalType": "string",
              "name": "name",
              "type": "string"
            },
            {
              "internalType": "string",
              "name": "url",
              "type": "string"
            },
            {
              "internalType": "string",
              "name": "picUrl",
              "type": "string"
            },
            {
              "internalType": "string",
              "name": "instructor",
              "type": "string"
            },
            {
              "internalType": "bool",
              "name": "sold",
              "type": "bool"
            }
          ],
          "internalType": "struct ResourcePlatform.Course[]",
          "name": "",
          "type": "tuple[]"
        }
      ],
      "stateMutability": "view",
      "type": "function",
      "constant": true
    },
    {
      "inputs": [
        {
          "internalType": "uint256",
          "name": "id",
          "type": "uint256"
        }
      ],
      "name": "likeMe",
      "outputs": [
        {
          "internalType": "bool",
          "name": "",
          "type": "bool"
        }
      ],
      "stateMutability": "nonpayable",
      "type": "function"
    }
  ],
  "bytecode": "0x6080604052606460015534801561001557600080fd5b50336000806101000a81548173ffffffffffffffffffffffffffffffffffffffff021916908373ffffffffffffffffffffffffffffffffffffffff160217905550612a03806100656000396000f3fe60806040526004361061009c5760003560e01c8063a327a95811610064578063a327a958146101cb578063a6c807a9146101f6578063c7876ea41461023e578063cd13193814610269578063e47513cc14610299578063f851a440146102d65761009c565b806304e48bd1146100a157806347aa513f146100cc578063885c5d1c146101095780638ac3a7271461014657806396f979d214610183575b600080fd5b3480156100ad57600080fd5b506100b6610301565b6040516100c39190611fab565b60405180910390f35b3480156100d857600080fd5b506100f360048036038101906100ee919061219a565b610748565b60405161010091906122ff565b60405180910390f35b34801561011557600080fd5b50610130600480360381019061012b919061231a565b6109b5565b60405161013d9190612467565b60405180910390f35b34801561015257600080fd5b5061016d6004803603810190610168919061231a565b610db3565b60405161017a91906122ff565b60405180910390f35b34801561018f57600080fd5b506101aa60048036038101906101a5919061231a565b610e3d565b6040516101c29c9b9a999897969594939291906124f1565b60405180910390f35b3480156101d757600080fd5b506101e0611172565b6040516101ed91906125ce565b60405180910390f35b34801561020257600080fd5b5061021d600480360381019061021891906125e9565b611178565b6040516102359c9b9a999897969594939291906124f1565b60405180910390f35b34801561024a57600080fd5b506102536114ad565b60405161026091906125ce565b60405180910390f35b610283600480360381019061027e919061231a565b6114b3565b60405161029091906122ff565b60405180910390f35b3480156102a557600080fd5b506102c060048036038101906102bb919061231a565b6116ab565b6040516102cd9190611fab565b60405180910390f35b3480156102e257600080fd5b506102eb611b58565b6040516102f89190612616565b60405180910390f35b6060600060025467ffffffffffffffff81111561032157610320612017565b5b60405190808252806020026020018201604052801561035a57816020015b610347611b9f565b81526020019060019003908161033f5790505b5090506000600190505b60025481116107405760006003600083815260200190815260200160002090508060405180610180016040529081600082015481526020016001820160009054906101000a900473ffffffffffffffffffffffffffffffffffffffff1673ffffffffffffffffffffffffffffffffffffffff1673ffffffffffffffffffffffffffffffffffffffff1681526020016002820154815260200160038201548152602001600482015481526020016005820154815260200160068201805461042990612660565b80601f016020809104026020016040519081016040528092919081815260200182805461045590612660565b80156104a25780601f10610477576101008083540402835291602001916104a2565b820191906000526020600020905b81548152906001019060200180831161048557829003601f168201915b505050505081526020016007820180546104bb90612660565b80601f01602080910402602001604051908101604052809291908181526020018280546104e790612660565b80156105345780601f1061050957610100808354040283529160200191610534565b820191906000526020600020905b81548152906001019060200180831161051757829003601f168201915b5050505050815260200160088201805461054d90612660565b80601f016020809104026020016040519081016040528092919081815260200182805461057990612660565b80156105c65780601f1061059b576101008083540402835291602001916105c6565b820191906000526020600020905b8154815290600101906020018083116105a957829003601f168201915b505050505081526020016009820180546105df90612660565b80601f016020809104026020016040519081016040528092919081815260200182805461060b90612660565b80156106585780601f1061062d57610100808354040283529160200191610658565b820191906000526020600020905b81548152906001019060200180831161063b57829003601f168201915b50505050508152602001600a8201805461067190612660565b80601f016020809104026020016040519081016040528092919081815260200182805461069d90612660565b80156106ea5780601f106106bf576101008083540402835291602001916106ea565b820191906000526020600020905b8154815290600101906020018083116106cd57829003601f168201915b50505050508152602001600b820160009054906101000a900460ff16151515158152505083838151811061072157610720612692565b5b6020026020010181905250508080610738906126f0565b915050610364565b508091505090565b60003373ffffffffffffffffffffffffffffffffffffffff1660008054906101000a900473ffffffffffffffffffffffffffffffffffffffff1673ffffffffffffffffffffffffffffffffffffffff16146107d8576040517f08c379a00000000000000000000000000000000000000000000000000000000081526004016107cf90612785565b60405180910390fd5b600260008154809291906107eb906126f0565b919050555060405180610180016040528060025481526020018b73ffffffffffffffffffffffffffffffffffffffff16815260200160008152602001600081526020018481526020018881526020018981526020018a81526020018781526020018681526020018581526020018315158152506003600060025481526020019081526020016000206000820151816000015560208201518160010160006101000a81548173ffffffffffffffffffffffffffffffffffffffff021916908373ffffffffffffffffffffffffffffffffffffffff16021790555060408201518160020155606082015181600301556080820151816004015560a0820151816005015560c0820151816006019080519060200190610908929190611c18565b5060e0820151816007019080519060200190610925929190611c18565b50610100820151816008019080519060200190610943929190611c18565b50610120820151816009019080519060200190610961929190611c18565b5061014082015181600a01908051906020019061097f929190611c18565b5061016082015181600b0160006101000a81548160ff021916908315150217905550905050600190509998505050505050505050565b6109bd611b9f565b816000811180156109d057506002548111155b610a0f576040517f08c379a0000000000000000000000000000000000000000000000000000000008152600401610a06906127f1565b60405180910390fd5b6003600084815260200190815260200160002060405180610180016040529081600082015481526020016001820160009054906101000a900473ffffffffffffffffffffffffffffffffffffffff1673ffffffffffffffffffffffffffffffffffffffff1673ffffffffffffffffffffffffffffffffffffffff16815260200160028201548152602001600382015481526020016004820154815260200160058201548152602001600682018054610ac690612660565b80601f0160208091040260200160405190810160405280929190818152602001828054610af290612660565b8015610b3f5780601f10610b1457610100808354040283529160200191610b3f565b820191906000526020600020905b815481529060010190602001808311610b2257829003601f168201915b50505050508152602001600782018054610b5890612660565b80601f0160208091040260200160405190810160405280929190818152602001828054610b8490612660565b8015610bd15780601f10610ba657610100808354040283529160200191610bd1565b820191906000526020600020905b815481529060010190602001808311610bb457829003601f168201915b50505050508152602001600882018054610bea90612660565b80601f0160208091040260200160405190810160405280929190818152602001828054610c1690612660565b8015610c635780601f10610c3857610100808354040283529160200191610c63565b820191906000526020600020905b815481529060010190602001808311610c4657829003601f168201915b50505050508152602001600982018054610c7c90612660565b80601f0160208091040260200160405190810160405280929190818152602001828054610ca890612660565b8015610cf55780601f10610cca57610100808354040283529160200191610cf5565b820191906000526020600020905b815481529060010190602001808311610cd857829003601f168201915b50505050508152602001600a82018054610d0e90612660565b80601f0160208091040260200160405190810160405280929190818152602001828054610d3a90612660565b8015610d875780601f10610d5c57610100808354040283529160200191610d87565b820191906000526020600020905b815481529060010190602001808311610d6a57829003601f168201915b50505050508152602001600b820160009054906101000a900460ff161515151581525050915050919050565b600081600081118015610dc857506002548111155b610e07576040517f08c379a0000000000000000000000000000000000000000000000000000000008152600401610dfe906127f1565b60405180910390fd5b600360008481526020019081526020016000206003016000815480929190610e2e906126f0565b91905055506001915050919050565b60036020528060005260406000206000915090508060000154908060010160009054906101000a900473ffffffffffffffffffffffffffffffffffffffff1690806002015490806003015490806004015490806005015490806006018054610ea490612660565b80601f0160208091040260200160405190810160405280929190818152602001828054610ed090612660565b8015610f1d5780601f10610ef257610100808354040283529160200191610f1d565b820191906000526020600020905b815481529060010190602001808311610f0057829003601f168201915b505050505090806007018054610f3290612660565b80601f0160208091040260200160405190810160405280929190818152602001828054610f5e90612660565b8015610fab5780601f10610f8057610100808354040283529160200191610fab565b820191906000526020600020905b815481529060010190602001808311610f8e57829003601f168201915b505050505090806008018054610fc090612660565b80601f0160208091040260200160405190810160405280929190818152602001828054610fec90612660565b80156110395780601f1061100e57610100808354040283529160200191611039565b820191906000526020600020905b81548152906001019060200180831161101c57829003601f168201915b50505050509080600901805461104e90612660565b80601f016020809104026020016040519081016040528092919081815260200182805461107a90612660565b80156110c75780601f1061109c576101008083540402835291602001916110c7565b820191906000526020600020905b8154815290600101906020018083116110aa57829003601f168201915b50505050509080600a0180546110dc90612660565b80601f016020809104026020016040519081016040528092919081815260200182805461110890612660565b80156111555780601f1061112a57610100808354040283529160200191611155565b820191906000526020600020905b81548152906001019060200180831161113857829003601f168201915b50505050509080600b0160009054906101000a900460ff1690508c565b60025481565b60046020528060005260406000206000915090508060000154908060010160009054906101000a900473ffffffffffffffffffffffffffffffffffffffff16908060020154908060030154908060040154908060050154908060060180546111df90612660565b80601f016020809104026020016040519081016040528092919081815260200182805461120b90612660565b80156112585780601f1061122d57610100808354040283529160200191611258565b820191906000526020600020905b81548152906001019060200180831161123b57829003601f168201915b50505050509080600701805461126d90612660565b80601f016020809104026020016040519081016040528092919081815260200182805461129990612660565b80156112e65780601f106112bb576101008083540402835291602001916112e6565b820191906000526020600020905b8154815290600101906020018083116112c957829003601f168201915b5050505050908060080180546112fb90612660565b80601f016020809104026020016040519081016040528092919081815260200182805461132790612660565b80156113745780601f1061134957610100808354040283529160200191611374565b820191906000526020600020905b81548152906001019060200180831161135757829003601f168201915b50505050509080600901805461138990612660565b80601f01602080910402602001604051908101604052809291908181526020018280546113b590612660565b80156114025780601f106113d757610100808354040283529160200191611402565b820191906000526020600020905b8154815290600101906020018083116113e557829003601f168201915b50505050509080600a01805461141790612660565b80601f016020809104026020016040519081016040528092919081815260200182805461144390612660565b80156114905780601f1061146557610100808354040283529160200191611490565b820191906000526020600020905b81548152906001019060200180831161147357829003601f168201915b50505050509080600b0160009054906101000a900460ff1690508c565b60015481565b6000816000811180156114c857506002548111155b611507576040517f08c379a00000000000000000000000000000000000000000000000000000000081526004016114fe906127f1565b60405180910390fd5b6000600360008581526020019081526020016000209050600061153282600201548360030154611b7c565b90508160040154811061157a576040517f08c379a00000000000000000000000000000000000000000000000000000000081526004016115719061285d565b60405180910390fd5b348260040154146115c0576040517f08c379a00000000000000000000000000000000000000000000000000000000081526004016115b7906128c9565b60405180910390fd5b600081346115ce91906128e9565b905060008054906101000a900473ffffffffffffffffffffffffffffffffffffffff1673ffffffffffffffffffffffffffffffffffffffff166108fc839081150290604051600060405180830381858888f19350505050158015611636573d6000803e3d6000fd5b508260010160009054906101000a900473ffffffffffffffffffffffffffffffffffffffff1673ffffffffffffffffffffffffffffffffffffffff166108fc829081150290604051600060405180830381858888f193505050501580156116a1573d6000803e3d6000fd5b5050505050919050565b6060600080600190505b600254811161170457600060036000838152602001908152602001600020905084816005015414156116f05782806116ec906126f0565b9350505b5080806116fc906126f0565b9150506116b5565b5060008167ffffffffffffffff81111561172157611720612017565b5b60405190808252806020026020018201604052801561175a57816020015b611747611b9f565b81526020019060019003908161173f5790505b5090506000600190505b6002548111611b4d5760006003600083815260200190815260200160002090508581600501541415611b39578060405180610180016040529081600082015481526020016001820160009054906101000a900473ffffffffffffffffffffffffffffffffffffffff1673ffffffffffffffffffffffffffffffffffffffff1673ffffffffffffffffffffffffffffffffffffffff1681526020016002820154815260200160038201548152602001600482015481526020016005820154815260200160068201805461183590612660565b80601f016020809104026020016040519081016040528092919081815260200182805461186190612660565b80156118ae5780601f10611883576101008083540402835291602001916118ae565b820191906000526020600020905b81548152906001019060200180831161189157829003601f168201915b505050505081526020016007820180546118c790612660565b80601f01602080910402602001604051908101604052809291908181526020018280546118f390612660565b80156119405780601f1061191557610100808354040283529160200191611940565b820191906000526020600020905b81548152906001019060200180831161192357829003601f168201915b5050505050815260200160088201805461195990612660565b80601f016020809104026020016040519081016040528092919081815260200182805461198590612660565b80156119d25780601f106119a7576101008083540402835291602001916119d2565b820191906000526020600020905b8154815290600101906020018083116119b557829003601f168201915b505050505081526020016009820180546119eb90612660565b80601f0160208091040260200160405190810160405280929190818152602001828054611a1790612660565b8015611a645780601f10611a3957610100808354040283529160200191611a64565b820191906000526020600020905b815481529060010190602001808311611a4757829003601f168201915b50505050508152602001600a82018054611a7d90612660565b80601f0160208091040260200160405190810160405280929190818152602001828054611aa990612660565b8015611af65780601f10611acb57610100808354040283529160200191611af6565b820191906000526020600020905b815481529060010190602001808311611ad957829003601f168201915b50505050508152602001600b820160009054906101000a900460ff161515151581525050838381518110611b2d57611b2c612692565b5b60200260200101819052505b508080611b45906126f0565b915050611764565b508092505050919050565b60008054906101000a900473ffffffffffffffffffffffffffffffffffffffff1681565b60008183600154611b8d919061291d565b611b979190612977565b905092915050565b60405180610180016040528060008152602001600073ffffffffffffffffffffffffffffffffffffffff1681526020016000815260200160008152602001600081526020016000815260200160608152602001606081526020016060815260200160608152602001606081526020016000151581525090565b828054611c2490612660565b90600052602060002090601f016020900481019282611c465760008555611c8d565b82601f10611c5f57805160ff1916838001178555611c8d565b82800160010185558215611c8d579182015b82811115611c8c578251825591602001919060010190611c71565b5b509050611c9a9190611c9e565b5090565b5b80821115611cb7576000816000905550600101611c9f565b5090565b600081519050919050565b600082825260208201905092915050565b6000819050602082019050919050565b6000819050919050565b611cfa81611ce7565b82525050565b600073ffffffffffffffffffffffffffffffffffffffff82169050919050565b6000611d2b82611d00565b9050919050565b611d3b81611d20565b82525050565b600081519050919050565b600082825260208201905092915050565b60005b83811015611d7b578082015181840152602081019050611d60565b83811115611d8a576000848401525b50505050565b6000601f19601f8301169050919050565b6000611dac82611d41565b611db68185611d4c565b9350611dc6818560208601611d5d565b611dcf81611d90565b840191505092915050565b60008115159050919050565b611def81611dda565b82525050565b600061018083016000830151611e0e6000860182611cf1565b506020830151611e216020860182611d32565b506040830151611e346040860182611cf1565b506060830151611e476060860182611cf1565b506080830151611e5a6080860182611cf1565b5060a0830151611e6d60a0860182611cf1565b5060c083015184820360c0860152611e858282611da1565b91505060e083015184820360e0860152611e9f8282611da1565b915050610100830151848203610100860152611ebb8282611da1565b915050610120830151848203610120860152611ed78282611da1565b915050610140830151848203610140860152611ef38282611da1565b915050610160830151611f0a610160860182611de6565b508091505092915050565b6000611f218383611df5565b905092915050565b6000602082019050919050565b6000611f4182611cbb565b611f4b8185611cc6565b935083602082028501611f5d85611cd7565b8060005b85811015611f995784840389528151611f7a8582611f15565b9450611f8583611f29565b925060208a01995050600181019050611f61565b50829750879550505050505092915050565b60006020820190508181036000830152611fc58184611f36565b905092915050565b6000604051905090565b600080fd5b600080fd5b611fea81611d20565b8114611ff557600080fd5b50565b60008135905061200781611fe1565b92915050565b600080fd5b600080fd5b7f4e487b7100000000000000000000000000000000000000000000000000000000600052604160045260246000fd5b61204f82611d90565b810181811067ffffffffffffffff8211171561206e5761206d612017565b5b80604052505050565b6000612081611fcd565b905061208d8282612046565b919050565b600067ffffffffffffffff8211156120ad576120ac612017565b5b6120b682611d90565b9050602081019050919050565b82818337600083830152505050565b60006120e56120e084612092565b612077565b90508281526020810184848401111561210157612100612012565b5b61210c8482856120c3565b509392505050565b600082601f8301126121295761212861200d565b5b81356121398482602086016120d2565b91505092915050565b61214b81611ce7565b811461215657600080fd5b50565b60008135905061216881612142565b92915050565b61217781611dda565b811461218257600080fd5b50565b6000813590506121948161216e565b92915050565b60008060008060008060008060006101208a8c0312156121bd576121bc611fd7565b5b60006121cb8c828d01611ff8565b99505060208a013567ffffffffffffffff8111156121ec576121eb611fdc565b5b6121f88c828d01612114565b98505060408a013567ffffffffffffffff81111561221957612218611fdc565b5b6122258c828d01612114565b97505060606122368c828d01612159565b96505060808a013567ffffffffffffffff81111561225757612256611fdc565b5b6122638c828d01612114565b95505060a08a013567ffffffffffffffff81111561228457612283611fdc565b5b6122908c828d01612114565b94505060c08a013567ffffffffffffffff8111156122b1576122b0611fdc565b5b6122bd8c828d01612114565b93505060e06122ce8c828d01612159565b9250506101006122e08c828d01612185565b9150509295985092959850929598565b6122f981611dda565b82525050565b600060208201905061231460008301846122f0565b92915050565b6000602082840312156123305761232f611fd7565b5b600061233e84828501612159565b91505092915050565b6000610180830160008301516123606000860182611cf1565b5060208301516123736020860182611d32565b5060408301516123866040860182611cf1565b5060608301516123996060860182611cf1565b5060808301516123ac6080860182611cf1565b5060a08301516123bf60a0860182611cf1565b5060c083015184820360c08601526123d78282611da1565b91505060e083015184820360e08601526123f18282611da1565b91505061010083015184820361010086015261240d8282611da1565b9150506101208301518482036101208601526124298282611da1565b9150506101408301518482036101408601526124458282611da1565b91505061016083015161245c610160860182611de6565b508091505092915050565b600060208201905081810360008301526124818184612347565b905092915050565b61249281611ce7565b82525050565b6124a181611d20565b82525050565b600082825260208201905092915050565b60006124c382611d41565b6124cd81856124a7565b93506124dd818560208601611d5d565b6124e681611d90565b840191505092915050565b600061018082019050612507600083018f612489565b612514602083018e612498565b612521604083018d612489565b61252e606083018c612489565b61253b608083018b612489565b61254860a083018a612489565b81810360c083015261255a81896124b8565b905081810360e083015261256e81886124b8565b905081810361010083015261258381876124b8565b905081810361012083015261259881866124b8565b90508181036101408301526125ad81856124b8565b90506125bd6101608301846122f0565b9d9c50505050505050505050505050565b60006020820190506125e36000830184612489565b92915050565b6000602082840312156125ff576125fe611fd7565b5b600061260d84828501611ff8565b91505092915050565b600060208201905061262b6000830184612498565b92915050565b7f4e487b7100000000000000000000000000000000000000000000000000000000600052602260045260246000fd5b6000600282049050600182168061267857607f821691505b6020821081141561268c5761268b612631565b5b50919050565b7f4e487b7100000000000000000000000000000000000000000000000000000000600052603260045260246000fd5b7f4e487b7100000000000000000000000000000000000000000000000000000000600052601160045260246000fd5b60006126fb82611ce7565b91507fffffffffffffffffffffffffffffffffffffffffffffffffffffffffffffffff82141561272e5761272d6126c1565b5b600182019050919050565b7f596f752072206e6f742061646d696e0000000000000000000000000000000000600082015250565b600061276f600f836124a7565b915061277a82612739565b602082019050919050565b6000602082019050818103600083015261279e81612762565b9050919050565b7f436f75727365206973204e6f7420457869737400000000000000000000000000600082015250565b60006127db6013836124a7565b91506127e6826127a5565b602082019050919050565b6000602082019050818103600083015261280a816127ce565b9050919050565b7f5072696365206973206e6f742073756666696369656e74000000000000000000600082015250565b60006128476017836124a7565b915061285282612811565b602082019050919050565b600060208201905081810360008301526128768161283a565b9050919050565b7f5072696365206973206e6f742073756666696369656e7420746f206275790000600082015250565b60006128b3601e836124a7565b91506128be8261287d565b602082019050919050565b600060208201905081810360008301526128e2816128a6565b9050919050565b60006128f482611ce7565b91506128ff83611ce7565b925082821015612912576129116126c1565b5b828203905092915050565b600061292882611ce7565b915061293383611ce7565b9250817fffffffffffffffffffffffffffffffffffffffffffffffffffffffffffffffff048311821515161561296c5761296b6126c1565b5b828202905092915050565b600061298282611ce7565b915061298d83611ce7565b9250827fffffffffffffffffffffffffffffffffffffffffffffffffffffffffffffffff038211156129c2576129c16126c1565b5b82820190509291505056fea2646970667358221220de06c0b88b37d5dc3b485447d6d177a3b253ebeed22a670a192345020945e2a764736f6c634300080b0033",
  "immutableReferences": {},
  "source": "// SPDX-License-Identifier: MIT\r\npragma solidity ^0.8.11;\r\n\r\ncontract ResourcePlatform{\r\n    address  public admin;\r\n    uint public basePrice= 100 wei;\r\n    uint public numCourse;\r\n\r\n    struct Course{\r\n        uint id;\r\n        address owner;\r\n        uint timesSold;\r\n        uint likes;\r\n        uint price;\r\n        uint category;\r\n        string desc;\r\n        string name;\r\n        string url;\r\n        string picUrl;\r\n        string instructor;\r\n        \r\n        bool sold ;\r\n\r\n    }\r\n    mapping(uint => Course) public courses;\r\n    mapping(address=>Course) public students;\r\n    constructor(){\r\n        admin=msg.sender;\r\n    }\r\n    function addCourse(address _owner,string memory _name,string memory _desc,uint _category,string memory _url,string memory _picUrl,string memory _instructor,uint _price, bool _isSold) public onlyAdmin returns(bool){\r\n        numCourse++;\r\n        courses[numCourse]=Course(numCourse,_owner,0,0,_price,_category,_desc,_name,_url,_picUrl,_instructor,_isSold);\r\n        return true;\r\n    }\r\n\r\n    function _gstPrice(uint _timeSold,uint likes) view  private returns(uint){\r\n        return basePrice*_timeSold + likes;\r\n    }\r\n\r\n    function purchaseCourse(uint id) public payable courseExist(id) returns(bool){\r\n        Course storage course= courses[id];\r\n        \r\n        uint gst = _gstPrice(course.timesSold,course.likes);\r\n        require(gst<course.price,\"Price is not sufficient\");\r\n        require(course.price==msg.value,\"Price is not sufficient to buy\");\r\n        uint x= msg.value-gst;\r\n        payable(admin).transfer(gst);\r\n        payable(course.owner).transfer(x);\r\n\r\n\r\n    }\r\n\r\n    function getSingleCourse(uint id) view public courseExist(id) returns(Course memory){\r\n        return courses[id];\r\n    }   \r\n\r\n    function getAllCourses() view public returns(Course[] memory){\r\n        Course[] memory id= new Course[](numCourse);\r\n        for(uint i=1;i<=numCourse;i++){\r\n            Course storage course= courses[i];\r\n            id[i]=course;\r\n        }\r\n        return id;\r\n\r\n\r\n    }\r\n    function getCategoryCourse(uint _category) view public returns(Course[] memory){\r\n        uint count;\r\n        for(uint i=1;i<=numCourse;i++){\r\n            Course storage course= courses[i];\r\n            if(course.category==_category){\r\n                count++;\r\n            }\r\n        }\r\n        Course[] memory id= new Course[](count);\r\n        for(uint i=1;i<=numCourse;i++){\r\n            Course storage course= courses[i];\r\n            if(course.category==_category){\r\n                id[i]=course;\r\n            }\r\n        }\r\n        return id;\r\n    }\r\n\r\n    function likeMe(uint id) public  courseExist(id) returns(bool){\r\n        courses[id].likes++;\r\n        return true;\r\n    }\r\n    modifier courseExist(uint id){\r\n        require(id>0 && id<=numCourse,\"Course is Not Exist\");\r\n        _;\r\n    }\r\n    modifier onlyAdmin(){\r\n        require(admin==msg.sender,\"You r not admin\");\r\n        _;\r\n    }\r\n\r\n}",
  "sourcePath": "C:\\Users\\HP\\Desktop\\Web3 Js\\Dapps-Factory-Nikku876\\Courses Decentralised\\contracts\\Resource.sol",
  "compiler": {
    "name": "solc",
    "version": "0.8.11+commit.d7f03943.Emscripten.clang"
  },
  "schemaVersion": "3.4.4",
  "updatedAt": "2022-05-05T16:43:10.952Z",
  "networkType": "ethereum",
  "devdoc": {
    "kind": "dev",
    "methods": {},
    "version": 1
  },
  "userdoc": {
    "kind": "user",
    "methods": {},
    "version": 1
  }
}