{
  "contractName": "Tweeter",
  "abi": [
    {
      "anonymous": false,
      "inputs": [
        {
          "indexed": false,
          "name": "id",
          "type": "uint256"
        },
        {
          "indexed": true,
          "name": "author",
          "type": "address"
        },
        {
          "indexed": false,
          "name": "description",
          "type": "string"
        },
        {
          "indexed": false,
          "name": "date",
          "type": "uint256"
        }
      ],
      "name": "TweetSent",
      "type": "event"
    },
    {
      "anonymous": false,
      "inputs": [
        {
          "indexed": false,
          "name": "id",
          "type": "uint256"
        },
        {
          "indexed": false,
          "name": "message",
          "type": "string"
        },
        {
          "indexed": true,
          "name": "from",
          "type": "address"
        },
        {
          "indexed": true,
          "name": "to",
          "type": "address"
        },
        {
          "indexed": false,
          "name": "date",
          "type": "uint256"
        }
      ],
      "name": "MessageSent",
      "type": "event"
    },
    {
      "constant": false,
      "inputs": [
        {
          "name": "_content",
          "type": "string"
        }
      ],
      "name": "createTweet",
      "outputs": [],
      "payable": false,
      "stateMutability": "nonpayable",
      "type": "function"
    },
    {
      "constant": false,
      "inputs": [
        {
          "name": "_message",
          "type": "string"
        },
        {
          "name": "_from",
          "type": "address"
        },
        {
          "name": "_to",
          "type": "address"
        }
      ],
      "name": "textMessage",
      "outputs": [],
      "payable": false,
      "stateMutability": "nonpayable",
      "type": "function"
    },
    {
      "constant": false,
      "inputs": [
        {
          "name": "_followed",
          "type": "address"
        }
      ],
      "name": "follow",
      "outputs": [],
      "payable": false,
      "stateMutability": "nonpayable",
      "type": "function"
    },
    {
      "constant": true,
      "inputs": [],
      "name": "getListTweets",
      "outputs": [
        {
          "components": [
            {
              "name": "id",
              "type": "uint256"
            },
            {
              "name": "author",
              "type": "address"
            },
            {
              "name": "description",
              "type": "string"
            },
            {
              "name": "date",
              "type": "uint256"
            }
          ],
          "name": "",
          "type": "tuple[]"
        }
      ],
      "payable": false,
      "stateMutability": "view",
      "type": "function"
    },
    {
      "constant": true,
      "inputs": [],
      "name": "getTweetsOf",
      "outputs": [
        {
          "components": [
            {
              "name": "id",
              "type": "uint256"
            },
            {
              "name": "author",
              "type": "address"
            },
            {
              "name": "description",
              "type": "string"
            },
            {
              "name": "date",
              "type": "uint256"
            }
          ],
          "name": "",
          "type": "tuple[]"
        }
      ],
      "payable": false,
      "stateMutability": "view",
      "type": "function"
    }
  ],
  "bytecode": "0x608060405234801561001057600080fd5b50610e8e806100206000396000f3fe608060405234801561001057600080fd5b50600436106100575760003560e01c80634dbf27cc1461005c5780637c9cd2bc146100785780638a3166aa14610094578063df107768146100b2578063e7867041146100d0575b600080fd5b61007660048036036100719190810190610a90565b6100ec565b005b610092600480360361008d9190810190610ab9565b610192565b005b61009c610375565b6040516100a99190610ce9565b60405180910390f35b6100ba610509565b6040516100c79190610ce9565b60405180910390f35b6100ea60048036036100e59190810190610afe565b6106fc565b005b600360003373ffffffffffffffffffffffffffffffffffffffff1673ffffffffffffffffffffffffffffffffffffffff1681526020019081526020016000208190806001815401808255809150509060018203906000526020600020016000909192909190916101000a81548173ffffffffffffffffffffffffffffffffffffffff021916908373ffffffffffffffffffffffffffffffffffffffff1602179055505050565b604051806080016040528060045481526020013373ffffffffffffffffffffffffffffffffffffffff16815260200183838080601f016020809104026020016040519081016040528093929190818152602001838380828437600081840152601f19601f8201169050808301925050505050505081526020014281525060008060045481526020019081526020016000206000820151816000015560208201518160010160006101000a81548173ffffffffffffffffffffffffffffffffffffffff021916908373ffffffffffffffffffffffffffffffffffffffff160217905550604082015181600201908051906020019061029092919061094e565b5060608201518160030155905050600160003373ffffffffffffffffffffffffffffffffffffffff1673ffffffffffffffffffffffffffffffffffffffff16815260200190815260200160002060045490806001815401808255809150509060018203906000526020600020016000909192909190915055503373ffffffffffffffffffffffffffffffffffffffff167f8d6b17b300471dd2e4fef05e2e70f50c236372b9a4aaf37cdb52644d99bc21a76004548484426040516103579493929190610d0b565b60405180910390a26004600081548092919060010191905055505050565b6060806004546040519080825280602002602001820160405280156103b457816020015b6103a16109ce565b8152602001906001900390816103995790505b50905060008090505b60045481101561050157600080600083815260200190815260200160002090506040518060800160405280826000015481526020018260010160009054906101000a900473ffffffffffffffffffffffffffffffffffffffff1673ffffffffffffffffffffffffffffffffffffffff168152602001826002018054600181600116156101000203166002900480601f0160208091040260200160405190810160405280929190818152602001828054600181600116156101000203166002900480156104ca5780601f1061049f576101008083540402835291602001916104ca565b820191906000526020600020905b8154815290600101906020018083116104ad57829003601f168201915b5050505050815260200182600301548152508383815181106104e857fe5b60200260200101819052505080806001019150506103bd565b508091505090565b60606000600160003373ffffffffffffffffffffffffffffffffffffffff1673ffffffffffffffffffffffffffffffffffffffff16815260200190815260200160002090506060818054905060405190808252806020026020018201604052801561058e57816020015b61057b6109ce565b8152602001906001900390816105735790505b50905060008090505b82805490508110156106f35760008060008584815481106105b457fe5b9060005260206000200154815260200190815260200160002090506040518060800160405280826000015481526020018260010160009054906101000a900473ffffffffffffffffffffffffffffffffffffffff1673ffffffffffffffffffffffffffffffffffffffff168152602001826002018054600181600116156101000203166002900480601f0160208091040260200160405190810160405280929190818152602001828054600181600116156101000203166002900480156106bc5780601f10610691576101008083540402835291602001916106bc565b820191906000526020600020905b81548152906001019060200180831161069f57829003601f168201915b5050505050815260200182600301548152508383815181106106da57fe5b6020026020010181905250508080600101915050610597565b50809250505090565b60008173ffffffffffffffffffffffffffffffffffffffff168373ffffffffffffffffffffffffffffffffffffffff16019050600260008281526020019081526020016000206040518060a00160405280600554815260200187878080601f016020809104026020016040519081016040528093929190818152602001838380828437600081840152601f19601f8201169050808301925050505050505081526020018573ffffffffffffffffffffffffffffffffffffffff1681526020018473ffffffffffffffffffffffffffffffffffffffff168152602001428152509080600181540180825580915050906001820390600052602060002090600502016000909192909190915060008201518160000155602082015181600101908051906020019061082c92919061094e565b5060408201518160020160006101000a81548173ffffffffffffffffffffffffffffffffffffffff021916908373ffffffffffffffffffffffffffffffffffffffff16021790555060608201518160030160006101000a81548173ffffffffffffffffffffffffffffffffffffffff021916908373ffffffffffffffffffffffffffffffffffffffff160217905550608082015181600401555050508173ffffffffffffffffffffffffffffffffffffffff168373ffffffffffffffffffffffffffffffffffffffff167f053227a5bdcc96607ea58ea40dd04c9394ddebceb1cd539ad1289d8b074bc4eb60055488884260405161092d9493929190610d0b565b60405180910390a36005600081548092919060010191905055505050505050565b828054600181600116156101000203166002900490600052602060002090601f016020900481019282601f1061098f57805160ff19168380011785556109bd565b828001600101855582156109bd579182015b828111156109bc5782518255916020019190600101906109a1565b5b5090506109ca9190610a0c565b5090565b604051806080016040528060008152602001600073ffffffffffffffffffffffffffffffffffffffff16815260200160608152602001600081525090565b610a2e91905b80821115610a2a576000816000905550600101610a12565b5090565b90565b600081359050610a4081610e3d565b92915050565b60008083601f840112610a5857600080fd5b8235905067ffffffffffffffff811115610a7157600080fd5b602083019150836001820283011115610a8957600080fd5b9250929050565b600060208284031215610aa257600080fd5b6000610ab084828501610a31565b91505092915050565b60008060208385031215610acc57600080fd5b600083013567ffffffffffffffff811115610ae657600080fd5b610af285828601610a46565b92509250509250929050565b60008060008060608587031215610b1457600080fd5b600085013567ffffffffffffffff811115610b2e57600080fd5b610b3a87828801610a46565b94509450506020610b4d87828801610a31565b9250506040610b5e87828801610a31565b91505092959194509250565b6000610b768383610c68565b905092915050565b610b8781610dae565b82525050565b6000610b9882610d58565b610ba28185610d7b565b935083602082028501610bb485610d4b565b8060005b85811015610bf05784840389528151610bd18582610b6a565b9450610bdc83610d6e565b925060208a01995050600181019050610bb8565b50829750879550505050505092915050565b6000610c0e8385610d9d565b9350610c1b838584610dea565b610c2483610e2c565b840190509392505050565b6000610c3a82610d63565b610c448185610d8c565b9350610c54818560208601610df9565b610c5d81610e2c565b840191505092915050565b6000608083016000830151610c806000860182610ccb565b506020830151610c936020860182610b7e565b5060408301518482036040860152610cab8282610c2f565b9150506060830151610cc06060860182610ccb565b508091505092915050565b610cd481610de0565b82525050565b610ce381610de0565b82525050565b60006020820190508181036000830152610d038184610b8d565b905092915050565b6000606082019050610d206000830187610cda565b8181036020830152610d33818587610c02565b9050610d426040830184610cda565b95945050505050565b6000602082019050919050565b600081519050919050565b600081519050919050565b6000602082019050919050565b600082825260208201905092915050565b600082825260208201905092915050565b600082825260208201905092915050565b6000610db982610dc0565b9050919050565b600073ffffffffffffffffffffffffffffffffffffffff82169050919050565b6000819050919050565b82818337600083830152505050565b60005b83811015610e17578082015181840152602081019050610dfc565b83811115610e26576000848401525b50505050565b6000601f19601f8301169050919050565b610e4681610dae565b8114610e5157600080fd5b5056fea265627a7a72305820bdfbabb4c839f76b84dfb60d19297872bbad32f4a6b556de82e0ebc6f92633de6c6578706572696d656e74616cf50037",
  "source": "// SPDX-License-Identifier: MIT\r\npragma solidity ^0.5.8;\r\npragma experimental ABIEncoderV2;\r\ncontract Tweeter{\r\n    struct Tweet{\r\n        uint id;\r\n        address author;\r\n        string description;\r\n        uint date;\r\n    }\r\n    mapping(uint=>Tweet) private tweets;\r\n    mapping(address=>uint[]) private tweetsOf;\r\n    mapping(uint=>Message[]) private conversations;\r\n    mapping(address=>address[]) private following;\r\n    // mapping(address=>mapping(address=>bool)) private operators;\r\n    uint private nextTweet;\r\n    uint private nextMessageId;\r\n\r\n    struct Message{\r\n        uint id;\r\n        string message;\r\n        address from ;\r\n        address to;\r\n        uint date;\r\n    }\r\n    \r\n    //Events \r\n    event TweetSent(uint id,\r\n        address indexed author,\r\n        string description,\r\n        uint date);\r\n    event MessageSent(uint id,\r\n        string message,\r\n        address indexed from ,\r\n        address indexed to,\r\n        uint date);\r\n    // Fuctions \r\n    function createTweet(string calldata _content) external {\r\n        tweets[nextTweet]=Tweet(nextTweet,msg.sender,_content,block.timestamp);\r\n        tweetsOf[msg.sender].push(nextTweet);\r\n        emit TweetSent(nextTweet,msg.sender,_content,block.timestamp);\r\n        nextTweet++;\r\n    }\r\n\r\n\r\n    function textMessage(string calldata _message,address _from ,address _to) external {\r\n        uint conversationId= uint(_from) + uint(_to);\r\n        conversations[conversationId].push(Message(nextMessageId,_message,_from,_to,block.timestamp));\r\n        emit MessageSent(nextMessageId,_message,_from,_to,block.timestamp);\r\n        nextMessageId ++;\r\n    }\r\n\r\n    function follow(address _followed) external {\r\n        following[msg.sender].push(_followed);\r\n    }\r\n\r\n    function getListTweets() view external returns(Tweet[] memory){\r\n        // require(count<=nextTweet && count>0,\"No Latest tweets\");\r\n        Tweet[] memory _tweets= new Tweet[](nextTweet);\r\n\r\n        for(uint i=0;i<nextTweet;i++){\r\n            Tweet storage _tweet = tweets[i];\r\n            _tweets[i]= Tweet(_tweet.id,_tweet.author,_tweet.description,_tweet.date);\r\n        }\r\n\r\n        \r\n        return _tweets;\r\n         \r\n    }\r\n\r\n    function getTweetsOf() view external returns(Tweet[] memory){\r\n        uint[] storage tweetIds= tweetsOf[msg.sender];\r\n        Tweet[] memory _tweets= new Tweet[](tweetIds.length); \r\n\r\n        for(uint i=0;i<tweetIds.length;i++){\r\n            Tweet storage _tweet = tweets[tweetIds[i]];\r\n            _tweets[i]= Tweet(_tweet.id,_tweet.author,_tweet.description,_tweet.date);\r\n        }\r\n\r\n\r\n        return _tweets;\r\n\r\n    }\r\n\r\n   \r\n}",
  "sourcePath": "C:\\Users\\HP\\Desktop\\Web3 Js\\Dapps-Factory-Nikku876\\Day-24-Tweeter\\contracts\\Tweeter.sol",
  "compiler": {
    "name": "solc",
    "version": "0.5.8+commit.23d335f2.Emscripten.clang"
  },
  "schemaVersion": "3.4.4",
  "updatedAt": "2022-03-24T09:49:04.123Z",
  "networkType": "ethereum",
  "devdoc": {
    "methods": {}
  },
  "userdoc": {
    "methods": {}
  }
}