{
  "contractName": "Casino",
  "abi": [
    {
      "inputs": [
        {
          "internalType": "uint256",
          "name": "_minimumBet",
          "type": "uint256"
        }
      ],
      "stateMutability": "nonpayable",
      "type": "constructor"
    },
    {
      "inputs": [],
      "name": "maxAmountOfBets",
      "outputs": [
        {
          "internalType": "uint256",
          "name": "",
          "type": "uint256"
        }
      ],
      "stateMutability": "view",
      "type": "function",
      "constant": true
    },
    {
      "inputs": [],
      "name": "minimumBet",
      "outputs": [
        {
          "internalType": "uint256",
          "name": "",
          "type": "uint256"
        }
      ],
      "stateMutability": "view",
      "type": "function",
      "constant": true
    },
    {
      "inputs": [],
      "name": "numberOfBets",
      "outputs": [
        {
          "internalType": "uint256",
          "name": "",
          "type": "uint256"
        }
      ],
      "stateMutability": "view",
      "type": "function",
      "constant": true
    },
    {
      "inputs": [],
      "name": "owner",
      "outputs": [
        {
          "internalType": "address",
          "name": "",
          "type": "address"
        }
      ],
      "stateMutability": "view",
      "type": "function",
      "constant": true
    },
    {
      "inputs": [
        {
          "internalType": "address",
          "name": "",
          "type": "address"
        }
      ],
      "name": "playerInfo",
      "outputs": [
        {
          "internalType": "uint256",
          "name": "amountBet",
          "type": "uint256"
        },
        {
          "internalType": "uint256",
          "name": "numberSelected",
          "type": "uint256"
        }
      ],
      "stateMutability": "view",
      "type": "function",
      "constant": true
    },
    {
      "inputs": [
        {
          "internalType": "uint256",
          "name": "",
          "type": "uint256"
        }
      ],
      "name": "players",
      "outputs": [
        {
          "internalType": "address",
          "name": "",
          "type": "address"
        }
      ],
      "stateMutability": "view",
      "type": "function",
      "constant": true
    },
    {
      "inputs": [],
      "name": "totalBet",
      "outputs": [
        {
          "internalType": "uint256",
          "name": "",
          "type": "uint256"
        }
      ],
      "stateMutability": "view",
      "type": "function",
      "constant": true
    },
    {
      "stateMutability": "payable",
      "type": "receive",
      "payable": true
    },
    {
      "inputs": [
        {
          "internalType": "address",
          "name": "player",
          "type": "address"
        }
      ],
      "name": "checkPlayerExists",
      "outputs": [
        {
          "internalType": "bool",
          "name": "",
          "type": "bool"
        }
      ],
      "stateMutability": "nonpayable",
      "type": "function"
    },
    {
      "inputs": [
        {
          "internalType": "uint256",
          "name": "numberSelected",
          "type": "uint256"
        }
      ],
      "name": "bet",
      "outputs": [],
      "stateMutability": "payable",
      "type": "function",
      "payable": true
    },
    {
      "inputs": [],
      "name": "generateNumberWinner",
      "outputs": [],
      "stateMutability": "nonpayable",
      "type": "function"
    },
    {
      "inputs": [
        {
          "internalType": "uint256",
          "name": "numberWinner",
          "type": "uint256"
        }
      ],
      "name": "distributePrizes",
      "outputs": [],
      "stateMutability": "nonpayable",
      "type": "function"
    }
  ],
  "bytecode": "0x6080604052606460045534801561001557600080fd5b50604051610c4a380380610c4a833981810160405281019061003791906100c8565b336000806101000a81548173ffffffffffffffffffffffffffffffffffffffff021916908373ffffffffffffffffffffffffffffffffffffffff1602179055506000811461008757806001819055505b506100f5565b600080fd5b6000819050919050565b6100a581610092565b81146100b057600080fd5b50565b6000815190506100c28161009c565b92915050565b6000602082840312156100de576100dd61008d565b5b60006100ec848285016100b3565b91505092915050565b610b46806101046000396000f3fe6080604052600436106100a05760003560e01c80637365870b116100645780637365870b146101925780638da5cb5b146101ae578063c38a8afd146101d9578063e08a96cd14610204578063f71d96cb1461022f578063fe5e18531461026c576100a7565b80630a50e361146100ac5780632ca8c6d3146100c35780634081d916146100ee5780634b1146911461012b5780636ca3fc3b14610169576100a7565b366100a757005b600080fd5b3480156100b857600080fd5b506100c1610297565b005b3480156100cf57600080fd5b506100d86102c0565b6040516100e591906107f5565b60405180910390f35b3480156100fa57600080fd5b5061011560048036038101906101109190610873565b6102c6565b60405161012291906108bb565b60405180910390f35b34801561013757600080fd5b50610152600480360381019061014d9190610873565b610375565b6040516101609291906108d6565b60405180910390f35b34801561017557600080fd5b50610190600480360381019061018b919061092b565b610399565b005b6101ac60048036038101906101a7919061092b565b6105e2565b005b3480156101ba57600080fd5b506101c3610744565b6040516101d09190610967565b60405180910390f35b3480156101e557600080fd5b506101ee610768565b6040516101fb91906107f5565b60405180910390f35b34801561021057600080fd5b5061021961076e565b60405161022691906107f5565b60405180910390f35b34801561023b57600080fd5b506102566004803603810190610251919061092b565b610774565b6040516102639190610967565b60405180910390f35b34801561027857600080fd5b506102816107b3565b60405161028e91906107f5565b60405180910390f35b60006001600a436102a891906109b1565b6102b29190610a11565b90506102bd81610399565b50565b60035481565b600080600090505b60058054905081101561036a578273ffffffffffffffffffffffffffffffffffffffff166005828154811061030657610305610a67565b5b9060005260206000200160009054906101000a900473ffffffffffffffffffffffffffffffffffffffff1673ffffffffffffffffffffffffffffffffffffffff161415610357576001915050610370565b808061036290610a96565b9150506102ce565b50600090505b919050565b60066020528060005260406000206000915090508060000154908060010154905082565b6103a16107b9565b6000805b6005805490508110156104ff576000600582815481106103c8576103c7610a67565b5b9060005260206000200160009054906101000a900473ffffffffffffffffffffffffffffffffffffffff16905084600660008373ffffffffffffffffffffffffffffffffffffffff1673ffffffffffffffffffffffffffffffffffffffff168152602001908152602001600020600101541415610499578084846064811061045357610452610a67565b5b602002019073ffffffffffffffffffffffffffffffffffffffff16908173ffffffffffffffffffffffffffffffffffffffff1681525050828061049590610a96565b9350505b600660008273ffffffffffffffffffffffffffffffffffffffff1673ffffffffffffffffffffffffffffffffffffffff168152602001908152602001600020600080820160009055600182016000905550505080806104f790610a96565b9150506103a5565b50600060646002546105119190610adf565b905060005b828110156105db57600073ffffffffffffffffffffffffffffffffffffffff1684826064811061054957610548610a67565b5b602002015173ffffffffffffffffffffffffffffffffffffffff16146105c85783816064811061057c5761057b610a67565b5b602002015173ffffffffffffffffffffffffffffffffffffffff166108fc839081150290604051600060405180830381858888f193505050501580156105c6573d6000803e3d6000fd5b505b80806105d390610a96565b915050610516565b5050505050565b6105eb336102c6565b156105f557600080fd5b600181101580156106075750600a8111155b61061057600080fd5b60015434101561061f57600080fd5b34600660003373ffffffffffffffffffffffffffffffffffffffff1673ffffffffffffffffffffffffffffffffffffffff1681526020019081526020016000206000018190555080600660003373ffffffffffffffffffffffffffffffffffffffff1673ffffffffffffffffffffffffffffffffffffffff16815260200190815260200160002060010181905550600360008154809291906106c090610a96565b91905055506005339080600181540180825580915050600190039060005260206000200160009091909190916101000a81548173ffffffffffffffffffffffffffffffffffffffff021916908373ffffffffffffffffffffffffffffffffffffffff160217905550346002600082825461073a9190610a11565b9250508190555050565b60008054906101000a900473ffffffffffffffffffffffffffffffffffffffff1681565b60015481565b60045481565b6005818154811061078457600080fd5b906000526020600020016000915054906101000a900473ffffffffffffffffffffffffffffffffffffffff1681565b60025481565b60405180610c800160405280606490602082028036833780820191505090505090565b6000819050919050565b6107ef816107dc565b82525050565b600060208201905061080a60008301846107e6565b92915050565b600080fd5b600073ffffffffffffffffffffffffffffffffffffffff82169050919050565b600061084082610815565b9050919050565b61085081610835565b811461085b57600080fd5b50565b60008135905061086d81610847565b92915050565b60006020828403121561088957610888610810565b5b60006108978482850161085e565b91505092915050565b60008115159050919050565b6108b5816108a0565b82525050565b60006020820190506108d060008301846108ac565b92915050565b60006040820190506108eb60008301856107e6565b6108f860208301846107e6565b9392505050565b610908816107dc565b811461091357600080fd5b50565b600081359050610925816108ff565b92915050565b60006020828403121561094157610940610810565b5b600061094f84828501610916565b91505092915050565b61096181610835565b82525050565b600060208201905061097c6000830184610958565b92915050565b7f4e487b7100000000000000000000000000000000000000000000000000000000600052601260045260246000fd5b60006109bc826107dc565b91506109c7836107dc565b9250826109d7576109d6610982565b5b828206905092915050565b7f4e487b7100000000000000000000000000000000000000000000000000000000600052601160045260246000fd5b6000610a1c826107dc565b9150610a27836107dc565b9250827fffffffffffffffffffffffffffffffffffffffffffffffffffffffffffffffff03821115610a5c57610a5b6109e2565b5b828201905092915050565b7f4e487b7100000000000000000000000000000000000000000000000000000000600052603260045260246000fd5b6000610aa1826107dc565b91507fffffffffffffffffffffffffffffffffffffffffffffffffffffffffffffffff821415610ad457610ad36109e2565b5b600182019050919050565b6000610aea826107dc565b9150610af5836107dc565b925082610b0557610b04610982565b5b82820490509291505056fea264697066735822122032220ce30df9f20bb8cfce7c499f6f727995fc5e42f971c3a1c56e9b02a2643a64736f6c634300080b0033",
  "immutableReferences": {},
  "source": "// SPDX-License-Identifier: MIT\r\npragma solidity ^0.8.11;\r\n\r\ncontract Casino {\r\n   address public owner;\r\n   uint256 public minimumBet;\r\n   uint256 public totalBet;\r\n   uint256 public numberOfBets;\r\n   uint256 public maxAmountOfBets = 100;\r\n   address[] public players;\r\n   struct Player {\r\n      uint256 amountBet;\r\n      uint256 numberSelected;\r\n   }\r\n   // The address of the player and => the user info   \r\n   mapping(address => Player) public playerInfo;\r\n   \r\n    receive() external payable {}\r\n\r\n   constructor(uint256 _minimumBet)  {\r\n      owner = msg.sender;\r\n      if(_minimumBet != 0 ) minimumBet = _minimumBet;\r\n   }\r\n   // function kill() public {\r\n   //    if(msg.sender == owner) selfdestruct(owner);\r\n   // }\r\n   function checkPlayerExists(address player) public  returns(bool){\r\n      for(uint256 i = 0; i < players.length; i++){\r\n         if(players[i] == player) return true;\r\n      }\r\n      return false;\r\n   }\r\n   // To bet for a number between 1 and 10 both inclusive\r\n   function bet(uint256 numberSelected) public payable {\r\n      require(!checkPlayerExists(msg.sender));\r\n      require(numberSelected >= 1 && numberSelected <= 10);\r\n      require(msg.value >= minimumBet);\r\n      playerInfo[msg.sender].amountBet = msg.value;\r\n      playerInfo[msg.sender].numberSelected = numberSelected;\r\n      numberOfBets++;\r\n      players.push(msg.sender);\r\n      totalBet += msg.value;\r\n   }\r\n   // Generates a number between 1 and 10 that will be the winner\r\n   function generateNumberWinner() public {\r\n      uint256 numberGenerated = block.number % 10 + 1; // This isn't secure\r\n      distributePrizes(numberGenerated);\r\n   }\r\n   // Sends the corresponding ether to each winner depending on the total bets\r\n   function distributePrizes(uint256 numberWinner) public {\r\n      address[100] memory winners; // We have to create a temporary in memory array with fixed size\r\n      uint256 count = 0; // This is the count for the array of winners\r\n      for(uint256 i = 0; i < players.length; i++){\r\n         address playerAddress = players[i];\r\n         if(playerInfo[playerAddress].numberSelected == numberWinner){\r\n            winners[count] = playerAddress;\r\n            count++;\r\n         }\r\n         delete playerInfo[playerAddress]; // Delete all the players\r\n      }\r\n      // players.length = 0; // Delete all the players array\r\n      uint256 winnerEtherAmount = totalBet / winners.length; // How much each winner gets\r\n      for(uint256 j = 0; j < count; j++){\r\n         if(winners[j] != address(0)) // Check that the address in this fixed array is not empty\r\n         payable(winners[j]).transfer(winnerEtherAmount);\r\n      }\r\n   }\r\n}",
  "sourcePath": "C:\\Users\\HP\\Desktop\\Web3 Js\\Dapps-Factory-Nikku876\\Casino Decentralised\\contracts\\Casino.sol",
  "compiler": {
    "name": "solc",
    "version": "0.8.11+commit.d7f03943.Emscripten.clang"
  },
  "schemaVersion": "3.4.4",
  "updatedAt": "2022-04-14T05:43:50.507Z",
  "networkType": "ethereum",
  "devdoc": {
    "kind": "dev",
    "methods": {},
    "version": 1
  },
  "userdoc": {
    "kind": "user",
    "methods": {},
    "version": 1
  }
}