{
  "contractName": "String",
  "abi": [
    {
      "inputs": [
        {
          "internalType": "string",
          "name": "str",
          "type": "string"
        }
      ],
      "name": "toGetLength",
      "outputs": [
        {
          "internalType": "uint256",
          "name": "",
          "type": "uint256"
        }
      ],
      "stateMutability": "pure",
      "type": "function",
      "constant": true
    },
    {
      "inputs": [
        {
          "internalType": "string",
          "name": "str1",
          "type": "string"
        },
        {
          "internalType": "string",
          "name": "str2",
          "type": "string"
        }
      ],
      "name": "concatenationString",
      "outputs": [
        {
          "internalType": "string",
          "name": "",
          "type": "string"
        },
        {
          "internalType": "uint256",
          "name": "",
          "type": "uint256"
        }
      ],
      "stateMutability": "pure",
      "type": "function",
      "constant": true
    },
    {
      "inputs": [
        {
          "internalType": "string",
          "name": "_base",
          "type": "string"
        }
      ],
      "name": "reverseString",
      "outputs": [
        {
          "internalType": "string",
          "name": "",
          "type": "string"
        }
      ],
      "stateMutability": "pure",
      "type": "function",
      "constant": true
    }
  ],
  "bytecode": "0x608060405234801561001057600080fd5b5061085f806100206000396000f3fe608060405234801561001057600080fd5b50600436106100415760003560e01c80635729c2111461004657806371f2b0e514610076578063b51c737d146100a7575b600080fd5b610060600480360381019061005b91906104fa565b6100d7565b60405161006d91906105cb565b60405180910390f35b610090600480360381019061008b91906105ed565b6101ea565b60405161009e92919061067e565b60405180910390f35b6100c160048036038101906100bc91906104fa565b610390565b6040516100ce91906106ae565b60405180910390f35b6060600082905060008151116100f0576100ef6106c9565b5b6000815167ffffffffffffffff81111561010d5761010c6103cf565b5b6040519080825280601f01601f19166020018201604052801561013f5781602001600182028036833780820191505090505b509050600081905060005b83518110156101de57838181518110610166576101656106f8565b5b602001015160f81c60f81b8260018387516101819190610756565b61018b9190610756565b8151811061019c5761019b6106f8565b5b60200101907effffffffffffffffffffffffffffffffffffffffffffffffffffffffffffff1916908160001a90535080806101d69061078a565b91505061014a565b50809350505050919050565b6060600080849050600084905060008151835161020791906107d3565b67ffffffffffffffff8111156102205761021f6103cf565b5b6040519080825280601f01601f1916602001820160405280156102525781602001600182028036833780820191505090505b5090506000805b84518110156102e357848181518110610275576102746106f8565b5b602001015160f81c60f81b838381518110610293576102926106f8565b5b60200101907effffffffffffffffffffffffffffffffffffffffffffffffffffffffffffff1916908160001a90535081806102cd9061078a565b92505080806102db9061078a565b915050610259565b5060005b835181101561037157838181518110610303576103026106f8565b5b602001015160f81c60f81b838381518110610321576103206106f8565b5b60200101907effffffffffffffffffffffffffffffffffffffffffffffffffffffffffffff1916908160001a905350818061035b9061078a565b92505080806103699061078a565b9150506102e7565b5060008251905060008390508082975097505050505050509250929050565b6000808290508051915050919050565b6000604051905090565b600080fd5b600080fd5b600080fd5b600080fd5b6000601f19601f8301169050919050565b7f4e487b7100000000000000000000000000000000000000000000000000000000600052604160045260246000fd5b610407826103be565b810181811067ffffffffffffffff82111715610426576104256103cf565b5b80604052505050565b60006104396103a0565b905061044582826103fe565b919050565b600067ffffffffffffffff821115610465576104646103cf565b5b61046e826103be565b9050602081019050919050565b82818337600083830152505050565b600061049d6104988461044a565b61042f565b9050828152602081018484840111156104b9576104b86103b9565b5b6104c484828561047b565b509392505050565b600082601f8301126104e1576104e06103b4565b5b81356104f184826020860161048a565b91505092915050565b6000602082840312156105105761050f6103aa565b5b600082013567ffffffffffffffff81111561052e5761052d6103af565b5b61053a848285016104cc565b91505092915050565b600081519050919050565b600082825260208201905092915050565b60005b8381101561057d578082015181840152602081019050610562565b8381111561058c576000848401525b50505050565b600061059d82610543565b6105a7818561054e565b93506105b781856020860161055f565b6105c0816103be565b840191505092915050565b600060208201905081810360008301526105e58184610592565b905092915050565b60008060408385031215610604576106036103aa565b5b600083013567ffffffffffffffff811115610622576106216103af565b5b61062e858286016104cc565b925050602083013567ffffffffffffffff81111561064f5761064e6103af565b5b61065b858286016104cc565b9150509250929050565b6000819050919050565b61067881610665565b82525050565b600060408201905081810360008301526106988185610592565b90506106a7602083018461066f565b9392505050565b60006020820190506106c3600083018461066f565b92915050565b7f4e487b7100000000000000000000000000000000000000000000000000000000600052600160045260246000fd5b7f4e487b7100000000000000000000000000000000000000000000000000000000600052603260045260246000fd5b7f4e487b7100000000000000000000000000000000000000000000000000000000600052601160045260246000fd5b600061076182610665565b915061076c83610665565b92508282101561077f5761077e610727565b5b828203905092915050565b600061079582610665565b91507fffffffffffffffffffffffffffffffffffffffffffffffffffffffffffffffff8214156107c8576107c7610727565b5b600182019050919050565b60006107de82610665565b91506107e983610665565b9250827fffffffffffffffffffffffffffffffffffffffffffffffffffffffffffffffff0382111561081e5761081d610727565b5b82820190509291505056fea264697066735822122095f144b827cc5cb36a4cd1cc7425f176d79a002f12117f5f9a7de0b05ae2df1f64736f6c634300080b0033",
  "immutableReferences": {},
  "source": "// SPDX-License-Identifier: MIT\r\npragma solidity ^0.8.11;\r\n\r\ncontract String {\r\n    function toGetLength(string memory str) public pure returns (uint256) {\r\n        bytes memory strCopy = bytes(str);\r\n        return strCopy.length;\r\n    }\r\n\r\n    function concatenationString(string memory str1, string memory str2)\r\n        public\r\n        pure\r\n        returns (string memory, uint256)\r\n    {\r\n        bytes memory str1Copy = bytes(str1);\r\n        bytes memory str2Copy = bytes(str2);\r\n        bytes memory str3 = new bytes(str1Copy.length + str2Copy.length);\r\n        uint256 k = 0;\r\n        for (uint256 x = 0; x < str1Copy.length; x++) {\r\n            str3[k] = str1Copy[x];\r\n            k++;\r\n        }\r\n        for (uint256 i = 0; i < str2Copy.length; i++) {\r\n            str3[k] = str2Copy[i];\r\n            k++;\r\n        }\r\n        uint256 len = str3.length;\r\n        string memory combine = string(str3);\r\n\r\n        return (combine, len);\r\n    }\r\n\r\n    function reverseString(string memory _base)\r\n        public\r\n        pure\r\n        returns (string memory)\r\n    {\r\n        bytes memory _baseBytes = bytes(_base);\r\n        assert(_baseBytes.length > 0);\r\n\r\n        string memory _tempValue = new string(_baseBytes.length);\r\n        bytes memory _newValue = bytes(_tempValue);\r\n\r\n\r\n        for(uint i=0;i<_baseBytes.length;i++){\r\n            _newValue[ _baseBytes.length - i - 1] = _baseBytes[i];\r\n        }\r\n\r\n        return string(_newValue);\r\n    }\r\n}\r\n",
  "sourcePath": "C:\\Users\\HP\\Desktop\\Web3 Js\\Dapps-Factory-Nikku876\\Day-10-StringManipulation\\contracts\\String.sol",
  "compiler": {
    "name": "solc",
    "version": "0.8.11+commit.d7f03943.Emscripten.clang"
  },
  "schemaVersion": "3.4.4",
  "updatedAt": "2022-03-14T19:59:00.120Z",
  "networkType": "ethereum",
  "devdoc": {
    "kind": "dev",
    "methods": {},
    "version": 1
  },
  "userdoc": {
    "kind": "user",
    "methods": {},
    "version": 1
  }
}