{
  "_format": "hh-sol-artifact-1",
  "contractName": "MemeCoin",
  "sourceName": "contracts/MemeCoin.sol",
  "abi": [
    {
      "inputs": [],
      "stateMutability": "nonpayable",
      "type": "constructor"
    },
    {
      "anonymous": false,
      "inputs": [
        {
          "indexed": true,
          "internalType": "address",
          "name": "owner",
          "type": "address"
        },
        {
          "indexed": false,
          "internalType": "uint256",
          "name": "amount",
          "type": "uint256"
        },
        {
          "indexed": false,
          "internalType": "string",
          "name": "message",
          "type": "string"
        }
      ],
      "name": "AdditionalMintedTokens",
      "type": "event"
    },
    {
      "anonymous": false,
      "inputs": [
        {
          "indexed": true,
          "internalType": "address",
          "name": "owner",
          "type": "address"
        },
        {
          "indexed": true,
          "internalType": "address",
          "name": "spender",
          "type": "address"
        },
        {
          "indexed": false,
          "internalType": "uint256",
          "name": "value",
          "type": "uint256"
        }
      ],
      "name": "Approval",
      "type": "event"
    },
    {
      "anonymous": false,
      "inputs": [
        {
          "indexed": true,
          "internalType": "address",
          "name": "previousOwner",
          "type": "address"
        },
        {
          "indexed": true,
          "internalType": "address",
          "name": "newOwner",
          "type": "address"
        }
      ],
      "name": "OwnershipTransferred",
      "type": "event"
    },
    {
      "anonymous": false,
      "inputs": [
        {
          "indexed": true,
          "internalType": "address",
          "name": "owner",
          "type": "address"
        },
        {
          "indexed": false,
          "internalType": "uint256",
          "name": "amount",
          "type": "uint256"
        },
        {
          "indexed": false,
          "internalType": "string",
          "name": "message",
          "type": "string"
        }
      ],
      "name": "TokensBurned",
      "type": "event"
    },
    {
      "anonymous": false,
      "inputs": [
        {
          "indexed": true,
          "internalType": "address",
          "name": "owner",
          "type": "address"
        },
        {
          "indexed": false,
          "internalType": "uint256",
          "name": "amount",
          "type": "uint256"
        },
        {
          "indexed": false,
          "internalType": "string",
          "name": "message",
          "type": "string"
        }
      ],
      "name": "TokensMinted",
      "type": "event"
    },
    {
      "anonymous": false,
      "inputs": [
        {
          "indexed": true,
          "internalType": "address",
          "name": "from",
          "type": "address"
        },
        {
          "indexed": true,
          "internalType": "address",
          "name": "to",
          "type": "address"
        },
        {
          "indexed": false,
          "internalType": "uint256",
          "name": "value",
          "type": "uint256"
        }
      ],
      "name": "Transfer",
      "type": "event"
    },
    {
      "inputs": [
        {
          "internalType": "address",
          "name": "owner",
          "type": "address"
        },
        {
          "internalType": "address",
          "name": "spender",
          "type": "address"
        }
      ],
      "name": "allowance",
      "outputs": [
        {
          "internalType": "uint256",
          "name": "",
          "type": "uint256"
        }
      ],
      "stateMutability": "view",
      "type": "function"
    },
    {
      "inputs": [
        {
          "internalType": "address",
          "name": "spender",
          "type": "address"
        },
        {
          "internalType": "uint256",
          "name": "amount",
          "type": "uint256"
        }
      ],
      "name": "approve",
      "outputs": [
        {
          "internalType": "bool",
          "name": "",
          "type": "bool"
        }
      ],
      "stateMutability": "nonpayable",
      "type": "function"
    },
    {
      "inputs": [
        {
          "internalType": "address",
          "name": "account",
          "type": "address"
        }
      ],
      "name": "balanceOf",
      "outputs": [
        {
          "internalType": "uint256",
          "name": "",
          "type": "uint256"
        }
      ],
      "stateMutability": "view",
      "type": "function"
    },
    {
      "inputs": [
        {
          "internalType": "uint256",
          "name": "amount",
          "type": "uint256"
        }
      ],
      "name": "burn",
      "outputs": [],
      "stateMutability": "nonpayable",
      "type": "function"
    },
    {
      "inputs": [
        {
          "internalType": "address",
          "name": "account",
          "type": "address"
        },
        {
          "internalType": "uint256",
          "name": "amount",
          "type": "uint256"
        }
      ],
      "name": "burnFrom",
      "outputs": [],
      "stateMutability": "nonpayable",
      "type": "function"
    },
    {
      "inputs": [
        {
          "internalType": "uint256",
          "name": "value",
          "type": "uint256"
        }
      ],
      "name": "burnedTokens",
      "outputs": [],
      "stateMutability": "nonpayable",
      "type": "function"
    },
    {
      "inputs": [],
      "name": "decimals",
      "outputs": [
        {
          "internalType": "uint8",
          "name": "",
          "type": "uint8"
        }
      ],
      "stateMutability": "view",
      "type": "function"
    },
    {
      "inputs": [
        {
          "internalType": "address",
          "name": "spender",
          "type": "address"
        },
        {
          "internalType": "uint256",
          "name": "subtractedValue",
          "type": "uint256"
        }
      ],
      "name": "decreaseAllowance",
      "outputs": [
        {
          "internalType": "bool",
          "name": "",
          "type": "bool"
        }
      ],
      "stateMutability": "nonpayable",
      "type": "function"
    },
    {
      "inputs": [
        {
          "internalType": "address",
          "name": "spender",
          "type": "address"
        },
        {
          "internalType": "uint256",
          "name": "addedValue",
          "type": "uint256"
        }
      ],
      "name": "increaseAllowance",
      "outputs": [
        {
          "internalType": "bool",
          "name": "",
          "type": "bool"
        }
      ],
      "stateMutability": "nonpayable",
      "type": "function"
    },
    {
      "inputs": [
        {
          "internalType": "address",
          "name": "to",
          "type": "address"
        },
        {
          "internalType": "uint256",
          "name": "value",
          "type": "uint256"
        }
      ],
      "name": "mintingToknen",
      "outputs": [],
      "stateMutability": "nonpayable",
      "type": "function"
    },
    {
      "inputs": [],
      "name": "name",
      "outputs": [
        {
          "internalType": "string",
          "name": "",
          "type": "string"
        }
      ],
      "stateMutability": "view",
      "type": "function"
    },
    {
      "inputs": [],
      "name": "owner",
      "outputs": [
        {
          "internalType": "address",
          "name": "",
          "type": "address"
        }
      ],
      "stateMutability": "view",
      "type": "function"
    },
    {
      "inputs": [],
      "name": "renounceOwnership",
      "outputs": [],
      "stateMutability": "nonpayable",
      "type": "function"
    },
    {
      "inputs": [],
      "name": "symbol",
      "outputs": [
        {
          "internalType": "string",
          "name": "",
          "type": "string"
        }
      ],
      "stateMutability": "view",
      "type": "function"
    },
    {
      "inputs": [],
      "name": "totalSupply",
      "outputs": [
        {
          "internalType": "uint256",
          "name": "",
          "type": "uint256"
        }
      ],
      "stateMutability": "view",
      "type": "function"
    },
    {
      "inputs": [
        {
          "internalType": "address",
          "name": "to",
          "type": "address"
        },
        {
          "internalType": "uint256",
          "name": "amount",
          "type": "uint256"
        }
      ],
      "name": "transfer",
      "outputs": [
        {
          "internalType": "bool",
          "name": "",
          "type": "bool"
        }
      ],
      "stateMutability": "nonpayable",
      "type": "function"
    },
    {
      "inputs": [
        {
          "internalType": "address",
          "name": "from",
          "type": "address"
        },
        {
          "internalType": "address",
          "name": "to",
          "type": "address"
        },
        {
          "internalType": "uint256",
          "name": "amount",
          "type": "uint256"
        }
      ],
      "name": "transferFrom",
      "outputs": [
        {
          "internalType": "bool",
          "name": "",
          "type": "bool"
        }
      ],
      "stateMutability": "nonpayable",
      "type": "function"
    },
    {
      "inputs": [
        {
          "internalType": "address",
          "name": "newOwner",
          "type": "address"
        }
      ],
      "name": "transferOwnership",
      "outputs": [],
      "stateMutability": "nonpayable",
      "type": "function"
    }
  ],
  "bytecode": "0x60806040523480156200001157600080fd5b506040518060400160405280600a81526020017f49742773204e69636b6b000000000000000000000000000000000000000000008152506040518060400160405280600381526020017f49544e0000000000000000000000000000000000000000000000000000000000815250816003908051906020019062000096929190620003ec565b508060049080519060200190620000af929190620003ec565b505050620000d2620000c66200019260201b60201c565b6200019a60201b60201c565b6200011033620000e76200026060201b60201c565b600a620000f5919062000635565b6103e862000104919062000772565b6200026960201b60201c565b3373ffffffffffffffffffffffffffffffffffffffff167f9d89e36eadf856db0ad9ffb5a569e07f95634dddd9501141ecf04820484ad0dc620001586200026060201b60201c565b600a62000166919062000635565b6103e862000175919062000772565b6040516200018491906200053a565b60405180910390a262000903565b600033905090565b6000600560009054906101000a900473ffffffffffffffffffffffffffffffffffffffff16905081600560006101000a81548173ffffffffffffffffffffffffffffffffffffffff021916908373ffffffffffffffffffffffffffffffffffffffff1602179055508173ffffffffffffffffffffffffffffffffffffffff168173ffffffffffffffffffffffffffffffffffffffff167f8be0079c531659141344cd1fd0a4f28419497f9722a3daafe3b4186f6b6457e060405160405180910390a35050565b60006012905090565b600073ffffffffffffffffffffffffffffffffffffffff168273ffffffffffffffffffffffffffffffffffffffff161415620002dc576040517f08c379a0000000000000000000000000000000000000000000000000000000008152600401620002d390620004fb565b60405180910390fd5b620002f060008383620003e260201b60201c565b80600260008282546200030491906200057d565b92505081905550806000808473ffffffffffffffffffffffffffffffffffffffff1673ffffffffffffffffffffffffffffffffffffffff16815260200190815260200160002060008282546200035b91906200057d565b925050819055508173ffffffffffffffffffffffffffffffffffffffff16600073ffffffffffffffffffffffffffffffffffffffff167fddf252ad1be2c89b69c2b068fc378daa952ba7f163c4a11628f55a4df523b3ef83604051620003c291906200051d565b60405180910390a3620003de60008383620003e760201b60201c565b5050565b505050565b505050565b828054620003fa90620007ea565b90600052602060002090601f0160209004810192826200041e57600085556200046a565b82601f106200043957805160ff19168380011785556200046a565b828001600101855582156200046a579182015b82811115620004695782518255916020019190600101906200044c565b5b5090506200047991906200047d565b5090565b5b80821115620004985760008160009055506001016200047e565b5090565b6000620004ab6024836200056c565b9150620004b8826200088b565b604082019050919050565b6000620004d2601f836200056c565b9150620004df82620008da565b602082019050919050565b620004f581620007d3565b82525050565b600060208201905081810360008301526200051681620004c3565b9050919050565b6000602082019050620005346000830184620004ea565b92915050565b6000604082019050620005516000830184620004ea565b818103602083015262000564816200049c565b905092915050565b600082825260208201905092915050565b60006200058a82620007d3565b91506200059783620007d3565b9250827fffffffffffffffffffffffffffffffffffffffffffffffffffffffffffffffff03821115620005cf57620005ce62000820565b5b828201905092915050565b6000808291508390505b60018511156200062c5780860481111562000604576200060362000820565b5b6001851615620006145780820291505b808102905062000624856200087e565b9450620005e4565b94509492505050565b60006200064282620007d3565b91506200064f83620007dd565b92506200067e7fffffffffffffffffffffffffffffffffffffffffffffffffffffffffffffffff848462000686565b905092915050565b6000826200069857600190506200076b565b81620006a857600090506200076b565b8160018114620006c15760028114620006cc5762000702565b60019150506200076b565b60ff841115620006e157620006e062000820565b5b8360020a915084821115620006fb57620006fa62000820565b5b506200076b565b5060208310610133831016604e8410600b84101617156200073c5782820a90508381111562000736576200073562000820565b5b6200076b565b6200074b8484846001620005da565b9250905081840481111562000765576200076462000820565b5b81810290505b9392505050565b60006200077f82620007d3565b91506200078c83620007d3565b9250817fffffffffffffffffffffffffffffffffffffffffffffffffffffffffffffffff0483118215151615620007c857620007c762000820565b5b828202905092915050565b6000819050919050565b600060ff82169050919050565b600060028204905060018216806200080357607f821691505b602082108114156200081a57620008196200084f565b5b50919050565b7f4e487b7100000000000000000000000000000000000000000000000000000000600052601160045260246000fd5b7f4e487b7100000000000000000000000000000000000000000000000000000000600052602260045260246000fd5b60008160011c9050919050565b7f496e697469616c6c7920546f6b656e73204d696e746564204279204f776e657260008201527f2021212100000000000000000000000000000000000000000000000000000000602082015250565b7f45524332303a206d696e7420746f20746865207a65726f206164647265737300600082015250565b61201380620009136000396000f3fe608060405234801561001057600080fd5b50600436106101165760003560e01c806370a08231116100a257806395d89b411161007157806395d89b41146102cd578063a457c2d7146102eb578063a9059cbb1461031b578063dd62ed3e1461034b578063f2fde38b1461037b57610116565b806370a0823114610259578063715018a61461028957806379cc6790146102935780638da5cb5b146102af57610116565b80631f5359ce116100e95780631f5359ce146101a357806323b872dd146101bf578063313ce567146101ef578063395093511461020d57806342966c681461023d57610116565b806306fdde031461011b578063095ea7b31461013957806318160ddd146101695780631c348dd314610187575b600080fd5b610123610397565b60405161013091906117f2565b60405180910390f35b610153600480360381019061014e91906114f8565b610429565b60405161016091906117d7565b60405180910390f35b61017161044c565b60405161017e9190611994565b60405180910390f35b6101a1600480360381019061019c9190611534565b610456565b005b6101bd60048036038101906101b891906114f8565b61052d565b005b6101d960048036038101906101d491906114a9565b610605565b6040516101e691906117d7565b60405180910390f35b6101f7610634565b6040516102049190611a0b565b60405180910390f35b610227600480360381019061022291906114f8565b61063d565b60405161023491906117d7565b60405180910390f35b61025760048036038101906102529190611534565b6106e7565b005b610273600480360381019061026e9190611444565b6106fb565b6040516102809190611994565b60405180910390f35b610291610743565b005b6102ad60048036038101906102a891906114f8565b6107cb565b005b6102b76107eb565b6040516102c491906117bc565b60405180910390f35b6102d5610815565b6040516102e291906117f2565b60405180910390f35b610305600480360381019061030091906114f8565b6108a7565b60405161031291906117d7565b60405180910390f35b610335600480360381019061033091906114f8565b610991565b60405161034291906117d7565b60405180910390f35b6103656004803603810190610360919061146d565b6109b4565b6040516103729190611994565b60405180910390f35b61039560048036038101906103909190611444565b610a3b565b005b6060600380546103a690611b54565b80601f01602080910402602001604051908101604052809291908181526020018280546103d290611b54565b801561041f5780601f106103f45761010080835404028352916020019161041f565b820191906000526020600020905b81548152906001019060200180831161040257829003601f168201915b5050505050905090565b600080610434610b33565b9050610441818585610b3b565b600191505092915050565b6000600254905090565b61045e610b33565b73ffffffffffffffffffffffffffffffffffffffff1661047c6107eb565b73ffffffffffffffffffffffffffffffffffffffff16146104d2576040517f08c379a00000000000000000000000000000000000000000000000000000000081526004016104c9906118d4565b60405180910390fd5b6104dc3382610d06565b3373ffffffffffffffffffffffffffffffffffffffff167ffad31924d655455395c87544c8aa1ffdb5a7505a22a3c2e03f28003b6556a75f8260405161052291906119af565b60405180910390a250565b610535610b33565b73ffffffffffffffffffffffffffffffffffffffff166105536107eb565b73ffffffffffffffffffffffffffffffffffffffff16146105a9576040517f08c379a00000000000000000000000000000000000000000000000000000000081526004016105a0906118d4565b60405180910390fd5b6105b38282610edd565b3373ffffffffffffffffffffffffffffffffffffffff167fe5238bfdd6ba1b5b5e1b772696b4372101b01518375bb44853910b7091840137826040516105f991906119dd565b60405180910390a25050565b600080610610610b33565b905061061d85828561103d565b6106288585856110c9565b60019150509392505050565b60006012905090565b600080610648610b33565b90506106dc818585600160008673ffffffffffffffffffffffffffffffffffffffff1673ffffffffffffffffffffffffffffffffffffffff16815260200190815260200160002060008973ffffffffffffffffffffffffffffffffffffffff1673ffffffffffffffffffffffffffffffffffffffff168152602001908152602001600020546106d79190611a42565b610b3b565b600191505092915050565b6106f86106f2610b33565b82610d06565b50565b60008060008373ffffffffffffffffffffffffffffffffffffffff1673ffffffffffffffffffffffffffffffffffffffff168152602001908152602001600020549050919050565b61074b610b33565b73ffffffffffffffffffffffffffffffffffffffff166107696107eb565b73ffffffffffffffffffffffffffffffffffffffff16146107bf576040517f08c379a00000000000000000000000000000000000000000000000000000000081526004016107b6906118d4565b60405180910390fd5b6107c9600061134a565b565b6107dd826107d7610b33565b8361103d565b6107e78282610d06565b5050565b6000600560009054906101000a900473ffffffffffffffffffffffffffffffffffffffff16905090565b60606004805461082490611b54565b80601f016020809104026020016040519081016040528092919081815260200182805461085090611b54565b801561089d5780601f106108725761010080835404028352916020019161089d565b820191906000526020600020905b81548152906001019060200180831161088057829003601f168201915b5050505050905090565b6000806108b2610b33565b90506000600160008373ffffffffffffffffffffffffffffffffffffffff1673ffffffffffffffffffffffffffffffffffffffff16815260200190815260200160002060008673ffffffffffffffffffffffffffffffffffffffff1673ffffffffffffffffffffffffffffffffffffffff16815260200190815260200160002054905083811015610978576040517f08c379a000000000000000000000000000000000000000000000000000000000815260040161096f90611954565b60405180910390fd5b6109858286868403610b3b565b60019250505092915050565b60008061099c610b33565b90506109a98185856110c9565b600191505092915050565b6000600160008473ffffffffffffffffffffffffffffffffffffffff1673ffffffffffffffffffffffffffffffffffffffff16815260200190815260200160002060008373ffffffffffffffffffffffffffffffffffffffff1673ffffffffffffffffffffffffffffffffffffffff16815260200190815260200160002054905092915050565b610a43610b33565b73ffffffffffffffffffffffffffffffffffffffff16610a616107eb565b73ffffffffffffffffffffffffffffffffffffffff1614610ab7576040517f08c379a0000000000000000000000000000000000000000000000000000000008152600401610aae906118d4565b60405180910390fd5b600073ffffffffffffffffffffffffffffffffffffffff168173ffffffffffffffffffffffffffffffffffffffff161415610b27576040517f08c379a0000000000000000000000000000000000000000000000000000000008152600401610b1e90611854565b60405180910390fd5b610b308161134a565b50565b600033905090565b600073ffffffffffffffffffffffffffffffffffffffff168373ffffffffffffffffffffffffffffffffffffffff161415610bab576040517f08c379a0000000000000000000000000000000000000000000000000000000008152600401610ba290611934565b60405180910390fd5b600073ffffffffffffffffffffffffffffffffffffffff168273ffffffffffffffffffffffffffffffffffffffff161415610c1b576040517f08c379a0000000000000000000000000000000000000000000000000000000008152600401610c1290611874565b60405180910390fd5b80600160008573ffffffffffffffffffffffffffffffffffffffff1673ffffffffffffffffffffffffffffffffffffffff16815260200190815260200160002060008473ffffffffffffffffffffffffffffffffffffffff1673ffffffffffffffffffffffffffffffffffffffff168152602001908152602001600020819055508173ffffffffffffffffffffffffffffffffffffffff168373ffffffffffffffffffffffffffffffffffffffff167f8c5be1e5ebec7d5bd14f71427d1e84f3dd0314c0f7b2291e5b200ac8c7c3b92583604051610cf99190611994565b60405180910390a3505050565b600073ffffffffffffffffffffffffffffffffffffffff168273ffffffffffffffffffffffffffffffffffffffff161415610d76576040517f08c379a0000000000000000000000000000000000000000000000000000000008152600401610d6d906118f4565b60405180910390fd5b610d8282600083611410565b60008060008473ffffffffffffffffffffffffffffffffffffffff1673ffffffffffffffffffffffffffffffffffffffff16815260200190815260200160002054905081811015610e08576040517f08c379a0000000000000000000000000000000000000000000000000000000008152600401610dff90611834565b60405180910390fd5b8181036000808573ffffffffffffffffffffffffffffffffffffffff1673ffffffffffffffffffffffffffffffffffffffff168152602001908152602001600020819055508160026000828254610e5f9190611a98565b92505081905550600073ffffffffffffffffffffffffffffffffffffffff168373ffffffffffffffffffffffffffffffffffffffff167fddf252ad1be2c89b69c2b068fc378daa952ba7f163c4a11628f55a4df523b3ef84604051610ec49190611994565b60405180910390a3610ed883600084611415565b505050565b600073ffffffffffffffffffffffffffffffffffffffff168273ffffffffffffffffffffffffffffffffffffffff161415610f4d576040517f08c379a0000000000000000000000000000000000000000000000000000000008152600401610f4490611974565b60405180910390fd5b610f5960008383611410565b8060026000828254610f6b9190611a42565b92505081905550806000808473ffffffffffffffffffffffffffffffffffffffff1673ffffffffffffffffffffffffffffffffffffffff1681526020019081526020016000206000828254610fc09190611a42565b925050819055508173ffffffffffffffffffffffffffffffffffffffff16600073ffffffffffffffffffffffffffffffffffffffff167fddf252ad1be2c89b69c2b068fc378daa952ba7f163c4a11628f55a4df523b3ef836040516110259190611994565b60405180910390a361103960008383611415565b5050565b600061104984846109b4565b90507fffffffffffffffffffffffffffffffffffffffffffffffffffffffffffffffff81146110c357818110156110b5576040517f08c379a00000000000000000000000000000000000000000000000000000000081526004016110ac90611894565b60405180910390fd5b6110c28484848403610b3b565b5b50505050565b600073ffffffffffffffffffffffffffffffffffffffff168373ffffffffffffffffffffffffffffffffffffffff161415611139576040517f08c379a000000000000000000000000000000000000000000000000000000000815260040161113090611914565b60405180910390fd5b600073ffffffffffffffffffffffffffffffffffffffff168273ffffffffffffffffffffffffffffffffffffffff1614156111a9576040517f08c379a00000000000000000000000000000000000000000000000000000000081526004016111a090611814565b60405180910390fd5b6111b4838383611410565b60008060008573ffffffffffffffffffffffffffffffffffffffff1673ffffffffffffffffffffffffffffffffffffffff1681526020019081526020016000205490508181101561123a576040517f08c379a0000000000000000000000000000000000000000000000000000000008152600401611231906118b4565b60405180910390fd5b8181036000808673ffffffffffffffffffffffffffffffffffffffff1673ffffffffffffffffffffffffffffffffffffffff16815260200190815260200160002081905550816000808573ffffffffffffffffffffffffffffffffffffffff1673ffffffffffffffffffffffffffffffffffffffff16815260200190815260200160002060008282546112cd9190611a42565b925050819055508273ffffffffffffffffffffffffffffffffffffffff168473ffffffffffffffffffffffffffffffffffffffff167fddf252ad1be2c89b69c2b068fc378daa952ba7f163c4a11628f55a4df523b3ef846040516113319190611994565b60405180910390a3611344848484611415565b50505050565b6000600560009054906101000a900473ffffffffffffffffffffffffffffffffffffffff16905081600560006101000a81548173ffffffffffffffffffffffffffffffffffffffff021916908373ffffffffffffffffffffffffffffffffffffffff1602179055508173ffffffffffffffffffffffffffffffffffffffff168173ffffffffffffffffffffffffffffffffffffffff167f8be0079c531659141344cd1fd0a4f28419497f9722a3daafe3b4186f6b6457e060405160405180910390a35050565b505050565b505050565b60008135905061142981611faf565b92915050565b60008135905061143e81611fc6565b92915050565b60006020828403121561145657600080fd5b60006114648482850161141a565b91505092915050565b6000806040838503121561148057600080fd5b600061148e8582860161141a565b925050602061149f8582860161141a565b9150509250929050565b6000806000606084860312156114be57600080fd5b60006114cc8682870161141a565b93505060206114dd8682870161141a565b92505060406114ee8682870161142f565b9150509250925092565b6000806040838503121561150b57600080fd5b60006115198582860161141a565b925050602061152a8582860161142f565b9150509250929050565b60006020828403121561154657600080fd5b60006115548482850161142f565b91505092915050565b61156681611acc565b82525050565b61157581611ade565b82525050565b600061158682611a26565b6115908185611a31565b93506115a0818560208601611b21565b6115a981611be4565b840191505092915050565b60006115c1602383611a31565b91506115cc82611bf5565b604082019050919050565b60006115e4601283611a31565b91506115ef82611c44565b602082019050919050565b6000611607602283611a31565b915061161282611c6d565b604082019050919050565b600061162a602683611a31565b915061163582611cbc565b604082019050919050565b600061164d602283611a31565b915061165882611d0b565b604082019050919050565b6000611670601d83611a31565b915061167b82611d5a565b602082019050919050565b6000611693602683611a31565b915061169e82611d83565b604082019050919050565b60006116b6602083611a31565b91506116c182611dd2565b602082019050919050565b60006116d9602183611a31565b91506116e482611dfb565b604082019050919050565b60006116fc602183611a31565b915061170782611e4a565b604082019050919050565b600061171f602583611a31565b915061172a82611e99565b604082019050919050565b6000611742602483611a31565b915061174d82611ee8565b604082019050919050565b6000611765602583611a31565b915061177082611f37565b604082019050919050565b6000611788601f83611a31565b915061179382611f86565b602082019050919050565b6117a781611b0a565b82525050565b6117b681611b14565b82525050565b60006020820190506117d1600083018461155d565b92915050565b60006020820190506117ec600083018461156c565b92915050565b6000602082019050818103600083015261180c818461157b565b905092915050565b6000602082019050818103600083015261182d816115b4565b9050919050565b6000602082019050818103600083015261184d816115fa565b9050919050565b6000602082019050818103600083015261186d8161161d565b9050919050565b6000602082019050818103600083015261188d81611640565b9050919050565b600060208201905081810360008301526118ad81611663565b9050919050565b600060208201905081810360008301526118cd81611686565b9050919050565b600060208201905081810360008301526118ed816116a9565b9050919050565b6000602082019050818103600083015261190d816116ef565b9050919050565b6000602082019050818103600083015261192d81611712565b9050919050565b6000602082019050818103600083015261194d81611735565b9050919050565b6000602082019050818103600083015261196d81611758565b9050919050565b6000602082019050818103600083015261198d8161177b565b9050919050565b60006020820190506119a9600083018461179e565b92915050565b60006040820190506119c4600083018461179e565b81810360208301526119d5816115d7565b905092915050565b60006040820190506119f2600083018461179e565b8181036020830152611a03816116cc565b905092915050565b6000602082019050611a2060008301846117ad565b92915050565b600081519050919050565b600082825260208201905092915050565b6000611a4d82611b0a565b9150611a5883611b0a565b9250827fffffffffffffffffffffffffffffffffffffffffffffffffffffffffffffffff03821115611a8d57611a8c611b86565b5b828201905092915050565b6000611aa382611b0a565b9150611aae83611b0a565b925082821015611ac157611ac0611b86565b5b828203905092915050565b6000611ad782611aea565b9050919050565b60008115159050919050565b600073ffffffffffffffffffffffffffffffffffffffff82169050919050565b6000819050919050565b600060ff82169050919050565b60005b83811015611b3f578082015181840152602081019050611b24565b83811115611b4e576000848401525b50505050565b60006002820490506001821680611b6c57607f821691505b60208210811415611b8057611b7f611bb5565b5b50919050565b7f4e487b7100000000000000000000000000000000000000000000000000000000600052601160045260246000fd5b7f4e487b7100000000000000000000000000000000000000000000000000000000600052602260045260246000fd5b6000601f19601f8301169050919050565b7f45524332303a207472616e7366657220746f20746865207a65726f206164647260008201527f6573730000000000000000000000000000000000000000000000000000000000602082015250565b7f546f6b656e7320417265204275726e6564200000000000000000000000000000600082015250565b7f45524332303a206275726e20616d6f756e7420657863656564732062616c616e60008201527f6365000000000000000000000000000000000000000000000000000000000000602082015250565b7f4f776e61626c653a206e6577206f776e657220697320746865207a65726f206160008201527f6464726573730000000000000000000000000000000000000000000000000000602082015250565b7f45524332303a20617070726f766520746f20746865207a65726f20616464726560008201527f7373000000000000000000000000000000000000000000000000000000000000602082015250565b7f45524332303a20696e73756666696369656e7420616c6c6f77616e6365000000600082015250565b7f45524332303a207472616e7366657220616d6f756e742065786365656473206260008201527f616c616e63650000000000000000000000000000000000000000000000000000602082015250565b7f4f776e61626c653a2063616c6c6572206973206e6f7420746865206f776e6572600082015250565b7f4164646974696f6e616c20546f6b656e73204d696e746564204279204f776e6560008201527f7200000000000000000000000000000000000000000000000000000000000000602082015250565b7f45524332303a206275726e2066726f6d20746865207a65726f2061646472657360008201527f7300000000000000000000000000000000000000000000000000000000000000602082015250565b7f45524332303a207472616e736665722066726f6d20746865207a65726f20616460008201527f6472657373000000000000000000000000000000000000000000000000000000602082015250565b7f45524332303a20617070726f76652066726f6d20746865207a65726f2061646460008201527f7265737300000000000000000000000000000000000000000000000000000000602082015250565b7f45524332303a2064656372656173656420616c6c6f77616e63652062656c6f7760008201527f207a65726f000000000000000000000000000000000000000000000000000000602082015250565b7f45524332303a206d696e7420746f20746865207a65726f206164647265737300600082015250565b611fb881611acc565b8114611fc357600080fd5b50565b611fcf81611b0a565b8114611fda57600080fd5b5056fea2646970667358221220290e2fb75bfb64b05995ae27adb3754ec1a4bc028bb285dd8c7e32ab6638103f64736f6c63430008030033",
  "linkReferences": {},
  "deployedLinkReferences": {}
}