{
  "contractName": "Delance",
  "abi": [
    {
      "inputs": [
        {
          "internalType": "uint256",
          "name": "_deadline",
          "type": "uint256"
        },
        {
          "internalType": "address",
          "name": "_freelancer",
          "type": "address"
        }
      ],
      "stateMutability": "nonpayable",
      "type": "constructor"
    },
    {
      "inputs": [],
      "name": "deadline",
      "outputs": [
        {
          "internalType": "uint256",
          "name": "",
          "type": "uint256"
        }
      ],
      "stateMutability": "view",
      "type": "function"
    },
    {
      "inputs": [],
      "name": "empolyer",
      "outputs": [
        {
          "internalType": "address",
          "name": "",
          "type": "address"
        }
      ],
      "stateMutability": "view",
      "type": "function"
    },
    {
      "inputs": [],
      "name": "freelancer",
      "outputs": [
        {
          "internalType": "address",
          "name": "",
          "type": "address"
        }
      ],
      "stateMutability": "view",
      "type": "function"
    }
  ],
  "bytecode": "0x608060405234801561001057600080fd5b5060405161035f38038061035f8339818101604052810190610032919061015a565b81600281905550806000806101000a81548173ffffffffffffffffffffffffffffffffffffffff021916908373ffffffffffffffffffffffffffffffffffffffff16021790555033600160006101000a81548173ffffffffffffffffffffffffffffffffffffffff021916908373ffffffffffffffffffffffffffffffffffffffff160217905550505061019a565b600080fd5b6000819050919050565b6100d9816100c6565b81146100e457600080fd5b50565b6000815190506100f6816100d0565b92915050565b600073ffffffffffffffffffffffffffffffffffffffff82169050919050565b6000610127826100fc565b9050919050565b6101378161011c565b811461014257600080fd5b50565b6000815190506101548161012e565b92915050565b60008060408385031215610171576101706100c1565b5b600061017f858286016100e7565b925050602061019085828601610145565b9150509250929050565b6101b6806101a96000396000f3fe608060405234801561001057600080fd5b50600436106100415760003560e01c806329dcb0cf146100465780637053383c14610064578063a37dda2c14610082575b600080fd5b61004e6100a0565b60405161005b9190610109565b60405180910390f35b61006c6100a6565b6040516100799190610165565b60405180910390f35b61008a6100cc565b6040516100979190610165565b60405180910390f35b60025481565b600160009054906101000a900473ffffffffffffffffffffffffffffffffffffffff1681565b60008054906101000a900473ffffffffffffffffffffffffffffffffffffffff1681565b6000819050919050565b610103816100f0565b82525050565b600060208201905061011e60008301846100fa565b92915050565b600073ffffffffffffffffffffffffffffffffffffffff82169050919050565b600061014f82610124565b9050919050565b61015f81610144565b82525050565b600060208201905061017a6000830184610156565b9291505056fea26469706673582212202a0c4cf9c86f1e66c9c0763df183efc7354761da2c0be8afaec6828d5a8edeb664736f6c634300080b0033",
  "immutableReferences": {},
  "source": "// SPDX-License-Identifier: MIT\r\npragma solidity ^0.8.11;\r\n\r\ncontract Delance {\r\n    address public freelancer;\r\n    address public empolyer;\r\n    uint public deadline;\r\n\r\n    constructor(uint  _deadline, address _freelancer){\r\n        deadline=_deadline;\r\n        freelancer=_freelancer;\r\n        empolyer=msg.sender;\r\n\r\n    }\r\n\r\n    // struct ProjectDetail {\r\n    //     uint256 id;\r\n    //     address consumer;\r\n    //     string category;\r\n    //     string desc;\r\n    //     uint256 price;\r\n    //     uint256 lastDate;\r\n    // }\r\n    // uint256 public numProjects;\r\n    // mapping(uint256 => bool) public isComplete;\r\n    // mapping(uint256 => ProjectDetail) public projects;\r\n\r\n    // event AddProject(\r\n    //     uint256 id,\r\n    //     address consumer,\r\n    //     string desc,\r\n    //     uint256 price,\r\n    //     uint256 lastDate\r\n    // );\r\n\r\n    // function listYourProject(\r\n    //     string memory _desc,\r\n    //     string memory _category,\r\n    //     uint256 _price,\r\n    //     uint256 _lastdate\r\n    // ) public timeExceed(_lastdate) returns (bool) {\r\n    //     numProjects++;\r\n    //     projects[numProjects] = ProjectDetail(\r\n    //         numProjects,\r\n    //         msg.sender,\r\n    //         _category,\r\n    //         _desc,\r\n    //         _price,\r\n    //         _lastdate\r\n    //     );\r\n    // }\r\n\r\n    // modifier timeExceed(uint256 x) {\r\n    //     require(block.timestamp <= x);\r\n    //     _;\r\n    // }\r\n}\r\n",
  "sourcePath": "C:\\Users\\HP\\Desktop\\Web3 Js\\Dapps-Factory-Nikku876\\Decentralised Freelance\\contracts\\Delance.sol",
  "compiler": {
    "name": "solc",
    "version": "0.8.11+commit.d7f03943.Emscripten.clang"
  },
  "schemaVersion": "3.4.4",
  "updatedAt": "2022-04-21T00:01:02.049Z",
  "devdoc": {
    "kind": "dev",
    "methods": {},
    "version": 1
  },
  "userdoc": {
    "kind": "user",
    "methods": {},
    "version": 1
  }
}