{
  "_format": "hh-sol-artifact-1",
  "contractName": "Token",
  "sourceName": "contracts/Token.sol",
  "abi": [
    {
      "inputs": [],
      "stateMutability": "nonpayable",
      "type": "constructor"
    },
    {
      "inputs": [],
      "name": "balanceOf",
      "outputs": [
        {
          "internalType": "uint256",
          "name": "",
          "type": "uint256"
        }
      ],
      "stateMutability": "view",
      "type": "function"
    },
    {
      "inputs": [
        {
          "internalType": "address",
          "name": "",
          "type": "address"
        }
      ],
      "name": "balances",
      "outputs": [
        {
          "internalType": "uint256",
          "name": "",
          "type": "uint256"
        }
      ],
      "stateMutability": "view",
      "type": "function"
    },
    {
      "inputs": [],
      "name": "name",
      "outputs": [
        {
          "internalType": "string",
          "name": "",
          "type": "string"
        }
      ],
      "stateMutability": "view",
      "type": "function"
    },
    {
      "inputs": [],
      "name": "owner",
      "outputs": [
        {
          "internalType": "address",
          "name": "",
          "type": "address"
        }
      ],
      "stateMutability": "view",
      "type": "function"
    },
    {
      "inputs": [
        {
          "internalType": "uint256",
          "name": "_requestToken",
          "type": "uint256"
        },
        {
          "internalType": "address",
          "name": "to",
          "type": "address"
        }
      ],
      "name": "sendToken",
      "outputs": [],
      "stateMutability": "nonpayable",
      "type": "function"
    },
    {
      "inputs": [],
      "name": "symbol",
      "outputs": [
        {
          "internalType": "string",
          "name": "",
          "type": "string"
        }
      ],
      "stateMutability": "view",
      "type": "function"
    },
    {
      "inputs": [],
      "name": "totalSupply",
      "outputs": [
        {
          "internalType": "uint256",
          "name": "",
          "type": "uint256"
        }
      ],
      "stateMutability": "view",
      "type": "function"
    }
  ],
  "bytecode": "0x60806040526040518060400160405280601081526020017f4e656572616a2043686f756269736120000000000000000000000000000000008152506000908051906020019061004f9291906100fa565b506040518060400160405280600381526020017f4e435400000000000000000000000000000000000000000000000000000000008152506001908051906020019061009b9291906100fa565b506127106003553480156100ae57600080fd5b50600354600460003373ffffffffffffffffffffffffffffffffffffffff1673ffffffffffffffffffffffffffffffffffffffff168152602001908152602001600020819055506101fe565b828054610106906101cc565b90600052602060002090601f016020900481019282610128576000855561016f565b82601f1061014157805160ff191683800117855561016f565b8280016001018555821561016f579182015b8281111561016e578251825591602001919060010190610153565b5b50905061017c9190610180565b5090565b5b80821115610199576000816000905550600101610181565b5090565b7f4e487b7100000000000000000000000000000000000000000000000000000000600052602260045260246000fd5b600060028204905060018216806101e457607f821691505b602082108114156101f8576101f761019d565b5b50919050565b61080e8061020d6000396000f3fe608060405234801561001057600080fd5b506004361061007d5760003560e01c8063722713f71161005b578063722713f7146100ee578063723785541461010c5780638da5cb5b1461012857806395d89b41146101465761007d565b806306fdde031461008257806318160ddd146100a057806327e235e3146100be575b600080fd5b61008a610164565b60405161009791906104d6565b60405180910390f35b6100a86101f2565b6040516100b59190610511565b60405180910390f35b6100d860048036038101906100d3919061058f565b6101f8565b6040516100e59190610511565b60405180910390f35b6100f6610210565b6040516101039190610511565b60405180910390f35b610126600480360381019061012191906105e8565b610257565b005b610130610389565b60405161013d9190610637565b60405180910390f35b61014e6103af565b60405161015b91906104d6565b60405180910390f35b6000805461017190610681565b80601f016020809104026020016040519081016040528092919081815260200182805461019d90610681565b80156101ea5780601f106101bf576101008083540402835291602001916101ea565b820191906000526020600020905b8154815290600101906020018083116101cd57829003601f168201915b505050505081565b60035481565b60046020528060005260406000206000915090505481565b6000600460003373ffffffffffffffffffffffffffffffffffffffff1673ffffffffffffffffffffffffffffffffffffffff16815260200190815260200160002054905090565b81600460003373ffffffffffffffffffffffffffffffffffffffff1673ffffffffffffffffffffffffffffffffffffffff1681526020019081526020016000205410156102d9576040517f08c379a00000000000000000000000000000000000000000000000000000000081526004016102d0906106ff565b60405180910390fd5b81600460003373ffffffffffffffffffffffffffffffffffffffff1673ffffffffffffffffffffffffffffffffffffffff1681526020019081526020016000206000828254610328919061074e565b9250508190555081600460008373ffffffffffffffffffffffffffffffffffffffff1673ffffffffffffffffffffffffffffffffffffffff168152602001908152602001600020600082825461037e9190610782565b925050819055505050565b600260009054906101000a900473ffffffffffffffffffffffffffffffffffffffff1681565b600180546103bc90610681565b80601f01602080910402602001604051908101604052809291908181526020018280546103e890610681565b80156104355780601f1061040a57610100808354040283529160200191610435565b820191906000526020600020905b81548152906001019060200180831161041857829003601f168201915b505050505081565b600081519050919050565b600082825260208201905092915050565b60005b8381101561047757808201518184015260208101905061045c565b83811115610486576000848401525b50505050565b6000601f19601f8301169050919050565b60006104a88261043d565b6104b28185610448565b93506104c2818560208601610459565b6104cb8161048c565b840191505092915050565b600060208201905081810360008301526104f0818461049d565b905092915050565b6000819050919050565b61050b816104f8565b82525050565b60006020820190506105266000830184610502565b92915050565b600080fd5b600073ffffffffffffffffffffffffffffffffffffffff82169050919050565b600061055c82610531565b9050919050565b61056c81610551565b811461057757600080fd5b50565b60008135905061058981610563565b92915050565b6000602082840312156105a5576105a461052c565b5b60006105b38482850161057a565b91505092915050565b6105c5816104f8565b81146105d057600080fd5b50565b6000813590506105e2816105bc565b92915050565b600080604083850312156105ff576105fe61052c565b5b600061060d858286016105d3565b925050602061061e8582860161057a565b9150509250929050565b61063181610551565b82525050565b600060208201905061064c6000830184610628565b92915050565b7f4e487b7100000000000000000000000000000000000000000000000000000000600052602260045260246000fd5b6000600282049050600182168061069957607f821691505b602082108114156106ad576106ac610652565b5b50919050565b7f4e6f7420656e6f676820746f6b656e7300000000000000000000000000000000600082015250565b60006106e9601083610448565b91506106f4826106b3565b602082019050919050565b60006020820190508181036000830152610718816106dc565b9050919050565b7f4e487b7100000000000000000000000000000000000000000000000000000000600052601160045260246000fd5b6000610759826104f8565b9150610764836104f8565b9250828210156107775761077661071f565b5b828203905092915050565b600061078d826104f8565b9150610798836104f8565b9250827fffffffffffffffffffffffffffffffffffffffffffffffffffffffffffffffff038211156107cd576107cc61071f565b5b82820190509291505056fea26469706673582212200e47a732f9e01c4a3c0a31d58d49524f7dc9541130080c235d08b3ccc2c7b64564736f6c634300080b0033",
  "linkReferences": {},
  "deployedLinkReferences": {}
}