{
  "contractName": "Tweeter",
  "abi": [
    {
      "anonymous": false,
      "inputs": [
        {
          "indexed": false,
          "name": "id",
          "type": "uint256"
        },
        {
          "indexed": true,
          "name": "author",
          "type": "address"
        },
        {
          "indexed": false,
          "name": "description",
          "type": "string"
        },
        {
          "indexed": false,
          "name": "date",
          "type": "uint256"
        }
      ],
      "name": "TweetSent",
      "type": "event"
    },
    {
      "anonymous": false,
      "inputs": [
        {
          "indexed": false,
          "name": "id",
          "type": "uint256"
        },
        {
          "indexed": false,
          "name": "message",
          "type": "string"
        },
        {
          "indexed": true,
          "name": "from",
          "type": "address"
        },
        {
          "indexed": true,
          "name": "to",
          "type": "address"
        },
        {
          "indexed": false,
          "name": "date",
          "type": "uint256"
        }
      ],
      "name": "MessageSent",
      "type": "event"
    },
    {
      "constant": false,
      "inputs": [
        {
          "name": "_content",
          "type": "string"
        }
      ],
      "name": "createTweet",
      "outputs": [],
      "payable": false,
      "stateMutability": "nonpayable",
      "type": "function"
    },
    {
      "constant": false,
      "inputs": [
        {
          "name": "_message",
          "type": "string"
        },
        {
          "name": "_from",
          "type": "address"
        },
        {
          "name": "_to",
          "type": "address"
        }
      ],
      "name": "textMessage",
      "outputs": [],
      "payable": false,
      "stateMutability": "nonpayable",
      "type": "function"
    },
    {
      "constant": false,
      "inputs": [
        {
          "name": "_followed",
          "type": "address"
        }
      ],
      "name": "follow",
      "outputs": [],
      "payable": false,
      "stateMutability": "nonpayable",
      "type": "function"
    },
    {
      "constant": true,
      "inputs": [
        {
          "name": "count",
          "type": "uint256"
        }
      ],
      "name": "getListTweets",
      "outputs": [
        {
          "components": [
            {
              "name": "id",
              "type": "uint256"
            },
            {
              "name": "author",
              "type": "address"
            },
            {
              "name": "description",
              "type": "string"
            },
            {
              "name": "date",
              "type": "uint256"
            }
          ],
          "name": "",
          "type": "tuple[]"
        }
      ],
      "payable": false,
      "stateMutability": "view",
      "type": "function"
    },
    {
      "constant": true,
      "inputs": [],
      "name": "getTweetsOf",
      "outputs": [
        {
          "components": [
            {
              "name": "id",
              "type": "uint256"
            },
            {
              "name": "author",
              "type": "address"
            },
            {
              "name": "description",
              "type": "string"
            },
            {
              "name": "date",
              "type": "uint256"
            }
          ],
          "name": "",
          "type": "tuple[]"
        }
      ],
      "payable": false,
      "stateMutability": "view",
      "type": "function"
    }
  ],
  "bytecode": "0x608060405234801561001057600080fd5b50610fab806100206000396000f3fe608060405234801561001057600080fd5b50600436106100575760003560e01c80634dbf27cc1461005c5780637c9cd2bc14610078578063df10776814610094578063e07ba7a3146100b2578063e7867041146100e2575b600080fd5b61007660048036036100719190810190610b0d565b6100fe565b005b610092600480360361008d9190810190610b36565b6101a4565b005b61009c610387565b6040516100a99190610dcf565b60405180910390f35b6100cc60048036036100c79190810190610be7565b61057a565b6040516100d99190610dcf565b60405180910390f35b6100fc60048036036100f79190810190610b7b565b610764565b005b600360003373ffffffffffffffffffffffffffffffffffffffff1673ffffffffffffffffffffffffffffffffffffffff1681526020019081526020016000208190806001815401808255809150509060018203906000526020600020016000909192909190916101000a81548173ffffffffffffffffffffffffffffffffffffffff021916908373ffffffffffffffffffffffffffffffffffffffff1602179055505050565b604051806080016040528060045481526020013373ffffffffffffffffffffffffffffffffffffffff16815260200183838080601f016020809104026020016040519081016040528093929190818152602001838380828437600081840152601f19601f8201169050808301925050505050505081526020014281525060008060045481526020019081526020016000206000820151816000015560208201518160010160006101000a81548173ffffffffffffffffffffffffffffffffffffffff021916908373ffffffffffffffffffffffffffffffffffffffff16021790555060408201518160020190805190602001906102a29291906109b6565b5060608201518160030155905050600160003373ffffffffffffffffffffffffffffffffffffffff1673ffffffffffffffffffffffffffffffffffffffff16815260200190815260200160002060045490806001815401808255809150509060018203906000526020600020016000909192909190915055503373ffffffffffffffffffffffffffffffffffffffff167f8d6b17b300471dd2e4fef05e2e70f50c236372b9a4aaf37cdb52644d99bc21a76004548484426040516103699493929190610e11565b60405180910390a26004600081548092919060010191905055505050565b60606000600160003373ffffffffffffffffffffffffffffffffffffffff1673ffffffffffffffffffffffffffffffffffffffff16815260200190815260200160002090506060818054905060405190808252806020026020018201604052801561040c57816020015b6103f9610a36565b8152602001906001900390816103f15790505b50905060008090505b828054905081101561057157600080600085848154811061043257fe5b9060005260206000200154815260200190815260200160002090506040518060800160405280826000015481526020018260010160009054906101000a900473ffffffffffffffffffffffffffffffffffffffff1673ffffffffffffffffffffffffffffffffffffffff168152602001826002018054600181600116156101000203166002900480601f01602080910402602001604051908101604052809291908181526020018280546001816001161561010002031660029004801561053a5780601f1061050f5761010080835404028352916020019161053a565b820191906000526020600020905b81548152906001019060200180831161051d57829003601f168201915b50505050508152602001826003015481525083838151811061055857fe5b6020026020010181905250508080600101915050610415565b50809250505090565b6060600454821115801561058e5750600082115b6105cd576040517f08c379a00000000000000000000000000000000000000000000000000000000081526004016105c490610df1565b60405180910390fd5b60608260405190808252806020026020018201604052801561060957816020015b6105f6610a36565b8152602001906001900390816105ee5790505b5090506000836004540390505b60045481101561075a57600080600083815260200190815260200160002090506040518060800160405280826000015481526020018260010160009054906101000a900473ffffffffffffffffffffffffffffffffffffffff1673ffffffffffffffffffffffffffffffffffffffff168152602001826002018054600181600116156101000203166002900480601f0160208091040260200160405190810160405280929190818152602001828054600181600116156101000203166002900480156107235780601f106106f857610100808354040283529160200191610723565b820191906000526020600020905b81548152906001019060200180831161070657829003601f168201915b50505050508152602001826003015481525083838151811061074157fe5b6020026020010181905250508080600101915050610616565b5080915050919050565b60008173ffffffffffffffffffffffffffffffffffffffff168373ffffffffffffffffffffffffffffffffffffffff16019050600260008281526020019081526020016000206040518060a00160405280600554815260200187878080601f016020809104026020016040519081016040528093929190818152602001838380828437600081840152601f19601f8201169050808301925050505050505081526020018573ffffffffffffffffffffffffffffffffffffffff1681526020018473ffffffffffffffffffffffffffffffffffffffff16815260200142815250908060018154018082558091505090600182039060005260206000209060050201600090919290919091506000820151816000015560208201518160010190805190602001906108949291906109b6565b5060408201518160020160006101000a81548173ffffffffffffffffffffffffffffffffffffffff021916908373ffffffffffffffffffffffffffffffffffffffff16021790555060608201518160030160006101000a81548173ffffffffffffffffffffffffffffffffffffffff021916908373ffffffffffffffffffffffffffffffffffffffff160217905550608082015181600401555050508173ffffffffffffffffffffffffffffffffffffffff168373ffffffffffffffffffffffffffffffffffffffff167f053227a5bdcc96607ea58ea40dd04c9394ddebceb1cd539ad1289d8b074bc4eb6005548888426040516109959493929190610e11565b60405180910390a36005600081548092919060010191905055505050505050565b828054600181600116156101000203166002900490600052602060002090601f016020900481019282601f106109f757805160ff1916838001178555610a25565b82800160010185558215610a25579182015b82811115610a24578251825591602001919060010190610a09565b5b509050610a329190610a74565b5090565b604051806080016040528060008152602001600073ffffffffffffffffffffffffffffffffffffffff16815260200160608152602001600081525090565b610a9691905b80821115610a92576000816000905550600101610a7a565b5090565b90565b600081359050610aa881610f43565b92915050565b60008083601f840112610ac057600080fd5b8235905067ffffffffffffffff811115610ad957600080fd5b602083019150836001820283011115610af157600080fd5b9250929050565b600081359050610b0781610f5a565b92915050565b600060208284031215610b1f57600080fd5b6000610b2d84828501610a99565b91505092915050565b60008060208385031215610b4957600080fd5b600083013567ffffffffffffffff811115610b6357600080fd5b610b6f85828601610aae565b92509250509250929050565b60008060008060608587031215610b9157600080fd5b600085013567ffffffffffffffff811115610bab57600080fd5b610bb787828801610aae565b94509450506020610bca87828801610a99565b9250506040610bdb87828801610a99565b91505092959194509250565b600060208284031215610bf957600080fd5b6000610c0784828501610af8565b91505092915050565b6000610c1c8383610d4e565b905092915050565b610c2d81610eb4565b82525050565b6000610c3e82610e5e565b610c488185610e81565b935083602082028501610c5a85610e51565b8060005b85811015610c965784840389528151610c778582610c10565b9450610c8283610e74565b925060208a01995050600181019050610c5e565b50829750879550505050505092915050565b6000610cb48385610ea3565b9350610cc1838584610ef0565b610cca83610f32565b840190509392505050565b6000610ce082610e69565b610cea8185610e92565b9350610cfa818560208601610eff565b610d0381610f32565b840191505092915050565b6000610d1b601083610ea3565b91507f4e6f204c617465737420747765657473000000000000000000000000000000006000830152602082019050919050565b6000608083016000830151610d666000860182610db1565b506020830151610d796020860182610c24565b5060408301518482036040860152610d918282610cd5565b9150506060830151610da66060860182610db1565b508091505092915050565b610dba81610ee6565b82525050565b610dc981610ee6565b82525050565b60006020820190508181036000830152610de98184610c33565b905092915050565b60006020820190508181036000830152610e0a81610d0e565b9050919050565b6000606082019050610e266000830187610dc0565b8181036020830152610e39818587610ca8565b9050610e486040830184610dc0565b95945050505050565b6000602082019050919050565b600081519050919050565b600081519050919050565b6000602082019050919050565b600082825260208201905092915050565b600082825260208201905092915050565b600082825260208201905092915050565b6000610ebf82610ec6565b9050919050565b600073ffffffffffffffffffffffffffffffffffffffff82169050919050565b6000819050919050565b82818337600083830152505050565b60005b83811015610f1d578082015181840152602081019050610f02565b83811115610f2c576000848401525b50505050565b6000601f19601f8301169050919050565b610f4c81610eb4565b8114610f5757600080fd5b50565b610f6381610ee6565b8114610f6e57600080fd5b5056fea265627a7a72305820bbef004ee51162c80ab5777de9fba95a506d72d2ae97b26a8aa8945826339f846c6578706572696d656e74616cf50037",
  "source": "// SPDX-License-Identifier: MIT\r\npragma solidity ^0.5.8;\r\npragma experimental ABIEncoderV2;\r\ncontract Tweeter{\r\n    struct Tweet{\r\n        uint id;\r\n        address author;\r\n        string description;\r\n        uint date;\r\n    }\r\n    mapping(uint=>Tweet) private tweets;\r\n    mapping(address=>uint[]) private tweetsOf;\r\n    mapping(uint=>Message[]) private conversations;\r\n    mapping(address=>address[]) private following;\r\n    // mapping(address=>mapping(address=>bool)) private operators;\r\n    uint private nextTweet;\r\n    uint private nextMessageId;\r\n\r\n    struct Message{\r\n        uint id;\r\n        string message;\r\n        address from ;\r\n        address to;\r\n        uint date;\r\n    }\r\n    \r\n    //Events \r\n    event TweetSent(uint id,\r\n        address indexed author,\r\n        string description,\r\n        uint date);\r\n    event MessageSent(uint id,\r\n        string message,\r\n        address indexed from ,\r\n        address indexed to,\r\n        uint date);\r\n    // Fuctions \r\n    function createTweet(string calldata _content) external {\r\n        tweets[nextTweet]=Tweet(nextTweet,msg.sender,_content,block.timestamp);\r\n        tweetsOf[msg.sender].push(nextTweet);\r\n        emit TweetSent(nextTweet,msg.sender,_content,block.timestamp);\r\n        nextTweet++;\r\n    }\r\n\r\n\r\n    function textMessage(string calldata _message,address _from ,address _to) external {\r\n        uint conversationId= uint(_from) + uint(_to);\r\n        conversations[conversationId].push(Message(nextMessageId,_message,_from,_to,block.timestamp));\r\n        emit MessageSent(nextMessageId,_message,_from,_to,block.timestamp);\r\n        nextMessageId ++;\r\n    }\r\n\r\n    function follow(address _followed) external {\r\n        following[msg.sender].push(_followed);\r\n    }\r\n\r\n    function getListTweets(uint count) view external returns(Tweet[] memory){\r\n        require(count<=nextTweet && count>0,\"No Latest tweets\");\r\n        Tweet[] memory _tweets= new Tweet[](count);\r\n\r\n        for(uint i=nextTweet-count;i<nextTweet;i++){\r\n            Tweet storage _tweet = tweets[i];\r\n            _tweets[i]= Tweet(_tweet.id,_tweet.author,_tweet.description,_tweet.date);\r\n        }\r\n\r\n        \r\n        return _tweets;\r\n         \r\n    }\r\n\r\n    function getTweetsOf() view external returns(Tweet[] memory){\r\n        uint[] storage tweetIds= tweetsOf[msg.sender];\r\n        Tweet[] memory _tweets= new Tweet[](tweetIds.length); \r\n\r\n        for(uint i=0;i<tweetIds.length;i++){\r\n            Tweet storage _tweet = tweets[tweetIds[i]];\r\n            _tweets[i]= Tweet(_tweet.id,_tweet.author,_tweet.description,_tweet.date);\r\n        }\r\n\r\n\r\n        return _tweets;\r\n\r\n    }\r\n\r\n   \r\n}",
  "sourcePath": "C:\\Users\\HP\\Desktop\\Web3 Js\\Dapps-Factory-Nikku876\\Day-24-Tweeter\\contracts\\Tweeter.sol",
  "compiler": {
    "name": "solc",
    "version": "0.5.8+commit.23d335f2.Emscripten.clang"
  },
  "schemaVersion": "3.4.4",
  "updatedAt": "2022-03-23T07:33:51.248Z",
  "networkType": "ethereum",
  "devdoc": {
    "methods": {}
  },
  "userdoc": {
    "methods": {}
  }
}